{
  "contractName": "AggregatorContract",
  "abi": [
    {
      "inputs": [
        {
          "internalType": "address",
          "name": "token_",
          "type": "address"
        },
        {
          "internalType": "address",
          "name": "implementation_",
          "type": "address"
        },
        {
          "internalType": "address",
          "name": "tokenTimelocks_",
          "type": "address"
        }
      ],
      "stateMutability": "nonpayable",
      "type": "constructor"
    },
    {
      "anonymous": false,
      "inputs": [
        {
          "indexed": false,
          "internalType": "uint256",
          "name": "aggregationId",
          "type": "uint256"
        },
        {
          "indexed": false,
          "internalType": "address[]",
          "name": "aclIds",
          "type": "address[]"
        },
        {
          "indexed": false,
          "internalType": "uint256[]",
          "name": "requestIds",
          "type": "uint256[]"
        },
        {
          "indexed": false,
          "internalType": "bytes",
          "name": "request",
          "type": "bytes"
        }
      ],
      "name": "NewAggregation",
      "type": "event"
    },
    {
      "anonymous": false,
      "inputs": [
        {
          "indexed": false,
          "internalType": "uint256",
          "name": "aggregationId",
          "type": "uint256"
        },
        {
          "indexed": false,
          "internalType": "uint256",
          "name": "kDaOId",
          "type": "uint256"
        },
        {
          "indexed": false,
          "internalType": "address",
          "name": "kDaOAddress",
          "type": "address"
        }
      ],
      "name": "NewkDaO",
      "type": "event"
    },
    {
      "anonymous": false,
      "inputs": [
        {
          "indexed": true,
          "internalType": "address",
          "name": "previousOwner",
          "type": "address"
        },
        {
          "indexed": true,
          "internalType": "address",
          "name": "newOwner",
          "type": "address"
        }
      ],
      "name": "OwnershipTransferred",
      "type": "event"
    },
    {
      "inputs": [
        {
          "internalType": "uint256",
          "name": "",
          "type": "uint256"
        }
      ],
      "name": "_aggregations",
      "outputs": [
        {
          "internalType": "bytes",
          "name": "request",
          "type": "bytes"
        },
        {
          "internalType": "uint256",
          "name": "releaseDate",
          "type": "uint256"
        },
        {
          "internalType": "uint256",
          "name": "callForDataDeadline",
          "type": "uint256"
        },
        {
          "internalType": "uint256",
          "name": "minimumQuorumForProposals",
          "type": "uint256"
        },
        {
          "internalType": "uint256",
          "name": "minDebatingPeriod",
          "type": "uint256"
        },
        {
          "internalType": "uint256",
          "name": "minDifferenceLockPeriod",
          "type": "uint256"
        },
        {
          "internalType": "uint256",
          "name": "amountToStake",
          "type": "uint256"
        },
        {
          "internalType": "uint256",
          "name": "m",
          "type": "uint256"
        }
      ],
      "stateMutability": "view",
      "type": "function"
    },
    {
      "inputs": [],
      "name": "_erc20token",
      "outputs": [
        {
          "internalType": "address",
          "name": "",
          "type": "address"
        }
      ],
      "stateMutability": "view",
      "type": "function"
    },
    {
      "inputs": [
        {
          "internalType": "uint256",
          "name": "",
          "type": "uint256"
        }
      ],
      "name": "_kDaOContracts",
      "outputs": [
        {
          "internalType": "address",
          "name": "",
          "type": "address"
        }
      ],
      "stateMutability": "view",
      "type": "function"
    },
    {
      "inputs": [],
      "name": "_numAggregations",
      "outputs": [
        {
          "internalType": "uint256",
          "name": "",
          "type": "uint256"
        }
      ],
      "stateMutability": "view",
      "type": "function"
    },
    {
      "inputs": [],
      "name": "_tokenTimelocks",
      "outputs": [
        {
          "internalType": "address",
          "name": "",
          "type": "address"
        }
      ],
      "stateMutability": "view",
      "type": "function"
    },
    {
      "inputs": [],
      "name": "owner",
      "outputs": [
        {
          "internalType": "address",
          "name": "",
          "type": "address"
        }
      ],
      "stateMutability": "view",
      "type": "function"
    },
    {
      "inputs": [],
      "name": "renounceOwnership",
      "outputs": [],
      "stateMutability": "nonpayable",
      "type": "function"
    },
    {
      "inputs": [
        {
          "internalType": "address",
          "name": "newOwner",
          "type": "address"
        }
      ],
      "name": "transferOwnership",
      "outputs": [],
      "stateMutability": "nonpayable",
      "type": "function"
    },
    {
      "inputs": [
        {
          "internalType": "bytes[]",
          "name": "dataIds_",
          "type": "bytes[]"
        },
        {
          "internalType": "address[]",
          "name": "aclIds_",
          "type": "address[]"
        },
        {
          "internalType": "address[]",
          "name": "users_",
          "type": "address[]"
        },
        {
          "internalType": "bytes",
          "name": "request_",
          "type": "bytes"
        },
        {
          "internalType": "uint256[]",
          "name": "parameters_",
          "type": "uint256[]"
        }
      ],
      "name": "requestAccessToData",
      "outputs": [
        {
          "internalType": "uint256",
          "name": "aggregationId",
          "type": "uint256"
        }
      ],
      "stateMutability": "nonpayable",
      "type": "function"
    },
    {
      "inputs": [
        {
          "internalType": "uint256",
          "name": "aggregationId_",
          "type": "uint256"
        }
      ],
      "name": "createkDaO",
      "outputs": [
        {
          "internalType": "address",
          "name": "",
          "type": "address"
        }
      ],
      "stateMutability": "nonpayable",
      "type": "function"
    },
    {
      "inputs": [
        {
          "internalType": "uint256",
          "name": "aggregationId_",
          "type": "uint256"
        }
      ],
      "name": "checkKgtM",
      "outputs": [
        {
          "internalType": "bool",
          "name": "",
          "type": "bool"
        }
      ],
      "stateMutability": "view",
      "type": "function"
    },
    {
      "inputs": [
        {
          "internalType": "uint256",
          "name": "aggregationId_",
          "type": "uint256"
        }
      ],
      "name": "getKMembers",
      "outputs": [
        {
          "internalType": "address[]",
          "name": "kMembers",
          "type": "address[]"
        }
      ],
      "stateMutability": "view",
      "type": "function"
    }
  ],
  "bytecode": "0x60a06040523480156200001157600080fd5b5060405162002a2438038062002a2483398181016040528101906200003791906200024c565b620000576200004b6200011660201b60201c565b6200011e60201b60201c565b8173ffffffffffffffffffffffffffffffffffffffff1660808173ffffffffffffffffffffffffffffffffffffffff168152505082600160006101000a81548173ffffffffffffffffffffffffffffffffffffffff021916908373ffffffffffffffffffffffffffffffffffffffff16021790555080600260006101000a81548173ffffffffffffffffffffffffffffffffffffffff021916908373ffffffffffffffffffffffffffffffffffffffff160217905550505050620002a8565b600033905090565b60008060009054906101000a900473ffffffffffffffffffffffffffffffffffffffff169050816000806101000a81548173ffffffffffffffffffffffffffffffffffffffff021916908373ffffffffffffffffffffffffffffffffffffffff1602179055508173ffffffffffffffffffffffffffffffffffffffff168173ffffffffffffffffffffffffffffffffffffffff167f8be0079c531659141344cd1fd0a4f28419497f9722a3daafe3b4186f6b6457e060405160405180910390a35050565b600080fd5b600073ffffffffffffffffffffffffffffffffffffffff82169050919050565b60006200021482620001e7565b9050919050565b620002268162000207565b81146200023257600080fd5b50565b60008151905062000246816200021b565b92915050565b600080600060608486031215620002685762000267620001e2565b5b6000620002788682870162000235565b93505060206200028b8682870162000235565b92505060406200029e8682870162000235565b9150509250925092565b608051612760620002c46000396000610a7b01526127606000f3fe608060405234801561001057600080fd5b50600436106100b45760003560e01c80638da5cb5b116100715780638da5cb5b1461018f5780639fcc0777146101ad578063c0cfb007146101dd578063d93ac8f8146101fb578063f2fde38b1461022b578063f4db83da14610247576100b4565b80631a281052146100b95780634b8e31a2146100e9578063519a342814610107578063715018a614610137578063752b8fec1461014157806386ae175614610171575b600080fd5b6100d360048036038101906100ce91906116c5565b61027e565b6040516100e091906117e2565b60405180910390f35b6100f161064e565b6040516100fe9190611813565b60405180910390f35b610121600480360381019061011c91906116c5565b610674565b60405161012e9190611849565b60405180910390f35b61013f61083d565b005b61015b600480360381019061015691906116c5565b6108c5565b6040516101689190611813565b60405180910390f35b610179610cdd565b6040516101869190611873565b60405180910390f35b610197610ce3565b6040516101a49190611813565b60405180910390f35b6101c760048036038101906101c291906116c5565b610d0c565b6040516101d49190611813565b60405180910390f35b6101e5610d4b565b6040516101f29190611813565b60405180910390f35b61021560048036038101906102109190611c6c565b610d71565b6040516102229190611873565b60405180910390f35b61024560048036038101906102409190611d73565b611121565b005b610261600480360381019061025c91906116c5565b611219565b604051610275989796959493929190611e28565b60405180910390f35b606060006003600084815260200190815260200160002090506000816001018054905067ffffffffffffffff8111156102ba576102b96118a4565b5b6040519080825280602002602001820160405280156102e85781602001602082028036833780820191505090505b5090506000805b83600101805490508110156105735760006001905060005b856002018054905081101561044f5781801561043a575085600101838154811061033457610333611ead565b5b9060005260206000200160009054906101000a900473ffffffffffffffffffffffffffffffffffffffff1673ffffffffffffffffffffffffffffffffffffffff166324d8a19a8760020183815481106103905761038f611ead565b5b9060005260206000200160009054906101000a900473ffffffffffffffffffffffffffffffffffffffff168860000186815481106103d1576103d0611ead565b5b906000526020600020016040518363ffffffff1660e01b81526004016103f8929190611fd2565b602060405180830381865afa158015610415573d6000803e3d6000fd5b505050506040513d601f19601f82011682018060405250810190610439919061202e565b5b915080806104479061208a565b915050610307565b50801561055f5784600101828154811061046c5761046b611ead565b5b9060005260206000200160009054906101000a900473ffffffffffffffffffffffffffffffffffffffff1673ffffffffffffffffffffffffffffffffffffffff16638da5cb5b6040518163ffffffff1660e01b8152600401602060405180830381865afa1580156104e1573d6000803e3d6000fd5b505050506040513d601f19601f8201168201806040525081019061050591906120e8565b8484806105119061208a565b95508151811061052457610523611ead565b5b602002602001019073ffffffffffffffffffffffffffffffffffffffff16908173ffffffffffffffffffffffffffffffffffffffff16815250505b50808061056b9061208a565b9150506102ef565b508067ffffffffffffffff81111561058e5761058d6118a4565b5b6040519080825280602002602001820160405280156105bc5781602001602082028036833780820191505090505b50935060005b81811015610645578281815181106105dd576105dc611ead565b5b60200260200101518582815181106105f8576105f7611ead565b5b602002602001019073ffffffffffffffffffffffffffffffffffffffff16908173ffffffffffffffffffffffffffffffffffffffff1681525050808061063d9061208a565b9150506105c2565b50505050919050565b600160009054906101000a900473ffffffffffffffffffffffffffffffffffffffff1681565b6000806003600084815260200190815260200160002090506000805b826001018054905081101561081a5760006001905060005b84600201805490508110156107f0578180156107db57508460010183815481106106d5576106d4611ead565b5b9060005260206000200160009054906101000a900473ffffffffffffffffffffffffffffffffffffffff1673ffffffffffffffffffffffffffffffffffffffff166324d8a19a86600201838154811061073157610730611ead565b5b9060005260206000200160009054906101000a900473ffffffffffffffffffffffffffffffffffffffff1687600001868154811061077257610771611ead565b5b906000526020600020016040518363ffffffff1660e01b8152600401610799929190611fd2565b602060405180830381865afa1580156107b6573d6000803e3d6000fd5b505050506040513d601f19601f820116820180604052508101906107da919061202e565b5b915080806107e89061208a565b9150506106a8565b5080156108065782806108029061208a565b9350505b5080806108129061208a565b915050610690565b5081600b0154811061083157600192505050610838565b6000925050505b919050565b6108456112e9565b73ffffffffffffffffffffffffffffffffffffffff16610863610ce3565b73ffffffffffffffffffffffffffffffffffffffff16146108b9576040517f08c379a00000000000000000000000000000000000000000000000000000000081526004016108b090612172565b60405180910390fd5b6108c360006112f1565b565b60006108cf6112e9565b73ffffffffffffffffffffffffffffffffffffffff166108ed610ce3565b73ffffffffffffffffffffffffffffffffffffffff1614610943576040517f08c379a000000000000000000000000000000000000000000000000000000000815260040161093a90612172565b60405180910390fd5b6000600360008481526020019081526020016000209050806006015442101561096b57600080fd5b80600a0154600160009054906101000a900473ffffffffffffffffffffffffffffffffffffffff1673ffffffffffffffffffffffffffffffffffffffff1663dd62ed3e6109b6610ce3565b306040518363ffffffff1660e01b81526004016109d4929190612192565b602060405180830381865afa1580156109f1573d6000803e3d6000fd5b505050506040513d601f19601f82011682018060405250810190610a1591906121d0565b1015610a56576040517f08c379a0000000000000000000000000000000000000000000000000000000008152600401610a4d90612249565b60405180910390fd5b6000610a618461027e565b905081600b0154815111610a7457600080fd5b6000610a9f7f00000000000000000000000000000000000000000000000000000000000000006113b5565b90508073ffffffffffffffffffffffffffffffffffffffff16633b9ed07e600160009054906101000a900473ffffffffffffffffffffffffffffffffffffffff1684610ae9610ce3565b8760050154600260009054906101000a900473ffffffffffffffffffffffffffffffffffffffff1689600701548a600801548b600901546040518963ffffffff1660e01b8152600401610b43989796959493929190612269565b600060405180830381600087803b158015610b5d57600080fd5b505af1158015610b71573d6000803e3d6000fd5b50505050600160009054906101000a900473ffffffffffffffffffffffffffffffffffffffff1673ffffffffffffffffffffffffffffffffffffffff166323b872dd610bbb610ce3565b8386600a01546040518463ffffffff1660e01b8152600401610bdf939291906122ee565b6020604051808303816000875af1158015610bfe573d6000803e3d6000fd5b505050506040513d601f19601f82011682018060405250810190610c22919061202e565b506005819080600181540180825580915050600190039060005260206000200160009091909190916101000a81548173ffffffffffffffffffffffffffffffffffffffff021916908373ffffffffffffffffffffffffffffffffffffffff1602179055507fdc3fd212259f1ed5cd1fcd1b1520a6e90293d70bf3d65bcfbee0e878c55b0dcb856001600580549050610cba9190612325565b83604051610cca93929190612359565b60405180910390a1809350505050919050565b60045481565b60008060009054906101000a900473ffffffffffffffffffffffffffffffffffffffff16905090565b60058181548110610d1c57600080fd5b906000526020600020016000915054906101000a900473ffffffffffffffffffffffffffffffffffffffff1681565b600260009054906101000a900473ffffffffffffffffffffffffffffffffffffffff1681565b6000610d7b6112e9565b73ffffffffffffffffffffffffffffffffffffffff16610d99610ce3565b73ffffffffffffffffffffffffffffffffffffffff1614610def576040517f08c379a0000000000000000000000000000000000000000000000000000000008152600401610de690612172565b60405180910390fd5b8451865114610e33576040517f08c379a0000000000000000000000000000000000000000000000000000000008152600401610e2a90612402565b60405180910390fd5b60046000815480929190610e469061208a565b919050559050600060036000838152602001908152602001600020905086816000019080519060200190610e7b92919061148a565b5085816001019080519060200190610e949291906114ea565b5084816002019080519060200190610ead9291906114ea565b5083816004019080519060200190610ec6929190611574565b5082600081518110610edb57610eda611ead565b5b602002602001015142610eee9190612422565b816005018190555082600181518110610f0a57610f09611ead565b5b602002602001015142610f1d9190612422565b816006018190555082600281518110610f3957610f38611ead565b5b6020026020010151816007018190555082600381518110610f5d57610f5c611ead565b5b6020026020010151816008018190555082600481518110610f8157610f80611ead565b5b6020026020010151816009018190555082600581518110610fa557610fa4611ead565b5b602002602001015181600a018190555082600681518110610fc957610fc8611ead565b5b602002602001015181600b018190555060005b86518110156110d65781600301878281518110610ffc57610ffb611ead565b5b602002602001015173ffffffffffffffffffffffffffffffffffffffff16631c41fd318a848151811061103257611031611ead565b5b602002602001015189896040518463ffffffff1660e01b815260040161105a93929190612478565b6020604051808303816000875af1158015611079573d6000803e3d6000fd5b505050506040513d601f19601f8201168201806040525081019061109d91906121d0565b908060018154018082558091505060019003906000526020600020016000909190919091505580806110ce9061208a565b915050610fdc565b507f89b15685b6d108a35323d7b884e5afdfb09207e9dd75449267f556d5493a08778287836003018760405161110f94939291906125d2565b60405180910390a15095945050505050565b6111296112e9565b73ffffffffffffffffffffffffffffffffffffffff16611147610ce3565b73ffffffffffffffffffffffffffffffffffffffff161461119d576040517f08c379a000000000000000000000000000000000000000000000000000000000815260040161119490612172565b60405180910390fd5b600073ffffffffffffffffffffffffffffffffffffffff168173ffffffffffffffffffffffffffffffffffffffff16141561120d576040517f08c379a00000000000000000000000000000000000000000000000000000000081526004016112049061269e565b60405180910390fd5b611216816112f1565b50565b600360205280600052604060002060009150905080600401805461123c90611f0b565b80601f016020809104026020016040519081016040528092919081815260200182805461126890611f0b565b80156112b55780601f1061128a576101008083540402835291602001916112b5565b820191906000526020600020905b81548152906001019060200180831161129857829003601f168201915b50505050509080600501549080600601549080600701549080600801549080600901549080600a01549080600b0154905088565b600033905090565b60008060009054906101000a900473ffffffffffffffffffffffffffffffffffffffff169050816000806101000a81548173ffffffffffffffffffffffffffffffffffffffff021916908373ffffffffffffffffffffffffffffffffffffffff1602179055508173ffffffffffffffffffffffffffffffffffffffff168173ffffffffffffffffffffffffffffffffffffffff167f8be0079c531659141344cd1fd0a4f28419497f9722a3daafe3b4186f6b6457e060405160405180910390a35050565b60006040517f3d602d80600a3d3981f3363d3d373d3d3d363d7300000000000000000000000081528260601b60148201527f5af43d82803e903d91602b57fd5bf3000000000000000000000000000000000060288201526037816000f0915050600073ffffffffffffffffffffffffffffffffffffffff168173ffffffffffffffffffffffffffffffffffffffff161415611485576040517f08c379a000000000000000000000000000000000000000000000000000000000815260040161147c9061270a565b60405180910390fd5b919050565b8280548282559060005260206000209081019282156114d9579160200282015b828111156114d85782518290805190602001906114c8929190611574565b50916020019190600101906114aa565b5b5090506114e691906115fa565b5090565b828054828255906000526020600020908101928215611563579160200282015b828111156115625782518260006101000a81548173ffffffffffffffffffffffffffffffffffffffff021916908373ffffffffffffffffffffffffffffffffffffffff1602179055509160200191906001019061150a565b5b509050611570919061161e565b5090565b82805461158090611f0b565b90600052602060002090601f0160209004810192826115a257600085556115e9565b82601f106115bb57805160ff19168380011785556115e9565b828001600101855582156115e9579182015b828111156115e85782518255916020019190600101906115cd565b5b5090506115f6919061161e565b5090565b5b8082111561161a5760008181611611919061163b565b506001016115fb565b5090565b5b8082111561163757600081600090555060010161161f565b5090565b50805461164790611f0b565b6000825580601f106116595750611678565b601f016020900490600052602060002090810190611677919061161e565b5b50565b6000604051905090565b600080fd5b600080fd5b6000819050919050565b6116a28161168f565b81146116ad57600080fd5b50565b6000813590506116bf81611699565b92915050565b6000602082840312156116db576116da611685565b5b60006116e9848285016116b0565b91505092915050565b600081519050919050565b600082825260208201905092915050565b6000819050602082019050919050565b600073ffffffffffffffffffffffffffffffffffffffff82169050919050565b60006117498261171e565b9050919050565b6117598161173e565b82525050565b600061176b8383611750565b60208301905092915050565b6000602082019050919050565b600061178f826116f2565b61179981856116fd565b93506117a48361170e565b8060005b838110156117d55781516117bc888261175f565b97506117c783611777565b9250506001810190506117a8565b5085935050505092915050565b600060208201905081810360008301526117fc8184611784565b905092915050565b61180d8161173e565b82525050565b60006020820190506118286000830184611804565b92915050565b60008115159050919050565b6118438161182e565b82525050565b600060208201905061185e600083018461183a565b92915050565b61186d8161168f565b82525050565b60006020820190506118886000830184611864565b92915050565b600080fd5b6000601f19601f8301169050919050565b7f4e487b7100000000000000000000000000000000000000000000000000000000600052604160045260246000fd5b6118dc82611893565b810181811067ffffffffffffffff821117156118fb576118fa6118a4565b5b80604052505050565b600061190e61167b565b905061191a82826118d3565b919050565b600067ffffffffffffffff82111561193a576119396118a4565b5b602082029050602081019050919050565b600080fd5b600080fd5b600067ffffffffffffffff8211156119705761196f6118a4565b5b61197982611893565b9050602081019050919050565b82818337600083830152505050565b60006119a86119a384611955565b611904565b9050828152602081018484840111156119c4576119c3611950565b5b6119cf848285611986565b509392505050565b600082601f8301126119ec576119eb61188e565b5b81356119fc848260208601611995565b91505092915050565b6000611a18611a138461191f565b611904565b90508083825260208201905060208402830185811115611a3b57611a3a61194b565b5b835b81811015611a8257803567ffffffffffffffff811115611a6057611a5f61188e565b5b808601611a6d89826119d7565b85526020850194505050602081019050611a3d565b5050509392505050565b600082601f830112611aa157611aa061188e565b5b8135611ab1848260208601611a05565b91505092915050565b600067ffffffffffffffff821115611ad557611ad46118a4565b5b602082029050602081019050919050565b611aef8161173e565b8114611afa57600080fd5b50565b600081359050611b0c81611ae6565b92915050565b6000611b25611b2084611aba565b611904565b90508083825260208201905060208402830185811115611b4857611b4761194b565b5b835b81811015611b715780611b5d8882611afd565b845260208401935050602081019050611b4a565b5050509392505050565b600082601f830112611b9057611b8f61188e565b5b8135611ba0848260208601611b12565b91505092915050565b600067ffffffffffffffff821115611bc457611bc36118a4565b5b602082029050602081019050919050565b6000611be8611be384611ba9565b611904565b90508083825260208201905060208402830185811115611c0b57611c0a61194b565b5b835b81811015611c345780611c2088826116b0565b845260208401935050602081019050611c0d565b5050509392505050565b600082601f830112611c5357611c5261188e565b5b8135611c63848260208601611bd5565b91505092915050565b600080600080600060a08688031215611c8857611c87611685565b5b600086013567ffffffffffffffff811115611ca657611ca561168a565b5b611cb288828901611a8c565b955050602086013567ffffffffffffffff811115611cd357611cd261168a565b5b611cdf88828901611b7b565b945050604086013567ffffffffffffffff811115611d0057611cff61168a565b5b611d0c88828901611b7b565b935050606086013567ffffffffffffffff811115611d2d57611d2c61168a565b5b611d39888289016119d7565b925050608086013567ffffffffffffffff811115611d5a57611d5961168a565b5b611d6688828901611c3e565b9150509295509295909350565b600060208284031215611d8957611d88611685565b5b6000611d9784828501611afd565b91505092915050565b600081519050919050565b600082825260208201905092915050565b60005b83811015611dda578082015181840152602081019050611dbf565b83811115611de9576000848401525b50505050565b6000611dfa82611da0565b611e048185611dab565b9350611e14818560208601611dbc565b611e1d81611893565b840191505092915050565b6000610100820190508181036000830152611e43818b611def565b9050611e52602083018a611864565b611e5f6040830189611864565b611e6c6060830188611864565b611e796080830187611864565b611e8660a0830186611864565b611e9360c0830185611864565b611ea060e0830184611864565b9998505050505050505050565b7f4e487b7100000000000000000000000000000000000000000000000000000000600052603260045260246000fd5b7f4e487b7100000000000000000000000000000000000000000000000000000000600052602260045260246000fd5b60006002820490506001821680611f2357607f821691505b60208210811415611f3757611f36611edc565b5b50919050565b60008190508160005260206000209050919050565b60008154611f5f81611f0b565b611f698186611dab565b94506001821660008114611f845760018114611f9657611fc9565b60ff1983168652602086019350611fc9565b611f9f85611f3d565b60005b83811015611fc157815481890152600182019150602081019050611fa2565b808801955050505b50505092915050565b6000604082019050611fe76000830185611804565b8181036020830152611ff98184611f52565b90509392505050565b61200b8161182e565b811461201657600080fd5b50565b60008151905061202881612002565b92915050565b60006020828403121561204457612043611685565b5b600061205284828501612019565b91505092915050565b7f4e487b7100000000000000000000000000000000000000000000000000000000600052601160045260246000fd5b60006120958261168f565b91507fffffffffffffffffffffffffffffffffffffffffffffffffffffffffffffffff8214156120c8576120c761205b565b5b600182019050919050565b6000815190506120e281611ae6565b92915050565b6000602082840312156120fe576120fd611685565b5b600061210c848285016120d3565b91505092915050565b600082825260208201905092915050565b7f4f776e61626c653a2063616c6c6572206973206e6f7420746865206f776e6572600082015250565b600061215c602083612115565b915061216782612126565b602082019050919050565b6000602082019050818103600083015261218b8161214f565b9050919050565b60006040820190506121a76000830185611804565b6121b46020830184611804565b9392505050565b6000815190506121ca81611699565b92915050565b6000602082840312156121e6576121e5611685565b5b60006121f4848285016121bb565b91505092915050565b7f496e73756666696369656e742042616c616e6365000000000000000000000000600082015250565b6000612233601483612115565b915061223e826121fd565b602082019050919050565b6000602082019050818103600083015261226281612226565b9050919050565b60006101008201905061227f600083018b611804565b8181036020830152612291818a611784565b90506122a06040830189611804565b6122ad6060830188611864565b6122ba6080830187611804565b6122c760a0830186611864565b6122d460c0830185611864565b6122e160e0830184611864565b9998505050505050505050565b60006060820190506123036000830186611804565b6123106020830185611804565b61231d6040830184611864565b949350505050565b60006123308261168f565b915061233b8361168f565b92508282101561234e5761234d61205b565b5b828203905092915050565b600060608201905061236e6000830186611864565b61237b6020830185611864565b6123886040830184611804565b949350505050565b7f41676772656761746f72436f6e74726163743a20696e7075742064617461206c60008201527f656e677468206d69736d61746368000000000000000000000000000000000000602082015250565b60006123ec602e83612115565b91506123f782612390565b604082019050919050565b6000602082019050818103600083015261241b816123df565b9050919050565b600061242d8261168f565b91506124388361168f565b9250827fffffffffffffffffffffffffffffffffffffffffffffffffffffffffffffffff0382111561246d5761246c61205b565b5b828201905092915050565b600060608201905081810360008301526124928186611def565b905081810360208301526124a68185611784565b905081810360408301526124ba8184611def565b9050949350505050565b600081549050919050565b600082825260208201905092915050565b60008190508160005260206000209050919050565b6124fe8161168f565b82525050565b600061251083836124f5565b60208301905092915050565b60008160001c9050919050565b6000819050919050565b60006125466125418361251c565b612529565b9050919050565b60006125598254612533565b9050919050565b6000600182019050919050565b6000612578826124c4565b61258281856124cf565b935061258d836124e0565b8060005b838110156125c5576125a28261254d565b6125ac8882612504565b97506125b783612560565b925050600181019050612591565b5085935050505092915050565b60006080820190506125e76000830187611864565b81810360208301526125f98186611784565b9050818103604083015261260d818561256d565b905081810360608301526126218184611def565b905095945050505050565b7f4f776e61626c653a206e6577206f776e657220697320746865207a65726f206160008201527f6464726573730000000000000000000000000000000000000000000000000000602082015250565b6000612688602683612115565b91506126938261262c565b604082019050919050565b600060208201905081810360008301526126b78161267b565b9050919050565b7f455243313136373a20637265617465206661696c656400000000000000000000600082015250565b60006126f4601683612115565b91506126ff826126be565b602082019050919050565b60006020820190508181036000830152612723816126e7565b905091905056fea2646970667358221220c84f24ef2c6301718022a4d7eb87b81c63ef56c884b665545f45b03197e7912e64736f6c634300080c0033",
  "immutableReferences": {
    "164": [
      {
        "length": 32,
        "start": 2683
      }
    ]
  },
  "source": "// SPDX-License-Identifier: MIT\n\npragma solidity ^0.8.0;\n\nimport \"./DataOwnerContract.sol\";\nimport \"./kDaO.sol\";\n\n/**\n * @dev Enables an Aggregator to request access to data\n */\ncontract AggregatorContract is Ownable {\n    // Access Control List structure\n    struct Aggregation {\n        bytes[] dataIds;\n        address[] aclIds;\n        address[] users;\n        uint256[] requestIds;\n        bytes request;\n        uint256 releaseDate;\n        uint256 callForDataDeadline;\n        uint256 minimumQuorumForProposals;\n        uint256 minDebatingPeriod;\n        uint256 minDifferenceLockPeriod;\n        uint256 amountToStake;\n        uint256 m;\n    }\n\n    // kDaO on chain contract\n    address immutable _implementation;\n\n    // Token used by the DAO\n    address public _erc20token;\n\n    // The contract used for timelocks\n    address public _tokenTimelocks;\n\n    // Aggregations of data performed (or to perform)\n    mapping(uint256 => Aggregation) public _aggregations;\n\n    // Number of Aggregations\n    uint256 public _numAggregations;\n\n    // List of kDaO cloned contracts\n    address[] public _kDaOContracts;\n\n    /**\n     * Event for a new request made\n     */\n    event NewAggregation(\n        uint256 aggregationId,\n        address[] aclIds,\n        uint256[] requestIds,\n        bytes request\n    );\n\n    /**\n     * Event for a new kDaO creation\n     */\n    event NewkDaO(uint256 aggregationId, uint256 kDaOId, address kDaOAddress);\n\n    constructor(\n        address token_,\n        address implementation_,\n        address tokenTimelocks_\n    ) {\n        _implementation = implementation_;\n        _erc20token = token_;\n        _tokenTimelocks = tokenTimelocks_;\n    }\n\n    /**\n     * @dev Creates a request to grant access to id_ to users_\n     * with a reason request_\n     */\n    function requestAccessToData(\n        bytes[] memory dataIds_,\n        address[] memory aclIds_,\n        address[] memory users_,\n        bytes memory request_,\n        uint256[] memory parameters_\n    ) public onlyOwner returns (uint256 aggregationId) {\n        require(\n            dataIds_.length == aclIds_.length,\n            \"AggregatorContract: input data length mismatch\"\n        );\n\n        aggregationId = _numAggregations++;\n        Aggregation storage a = _aggregations[aggregationId];\n        a.dataIds = dataIds_;\n        a.aclIds = aclIds_;\n        a.users = users_;\n        a.request = request_;\n        /*uint256 releaseDatePeriod_,\n        uint256 callForDataPeriod_,\n        uint256 minimumQuorumForProposals_,\n        uint256 minDebatingPeriod_,\n        uint256 minDifferenceLockPeriod_,\n        uint256 amountToStake_,\n        uint256 m_*/\n        a.releaseDate = block.timestamp + parameters_[0];\n        a.callForDataDeadline = block.timestamp + parameters_[1];\n        a.minimumQuorumForProposals = parameters_[2];\n        a.minDebatingPeriod = parameters_[3];\n        a.minDifferenceLockPeriod = parameters_[4];\n        a.amountToStake = parameters_[5];\n        a.m = parameters_[6];\n\n        for (uint256 i = 0; i < aclIds_.length; i++) {\n            a.requestIds.push(\n                DataOwnerContract(aclIds_[i]).requestAccess(\n                    dataIds_[i],\n                    users_,\n                    request_\n                )\n            );\n        }\n\n        emit NewAggregation(aggregationId, aclIds_, a.requestIds, request_);\n    }\n\n    /**\n     * @dev Creates a new kDaO contract\n     * @return the contract address\n     */\n    function createkDaO(uint256 aggregationId_)\n        public\n        onlyOwner\n        returns (address)\n    {\n        Aggregation storage a = _aggregations[aggregationId_];\n        require(block.timestamp >= a.callForDataDeadline);\n        require(\n            IERC20Upgradeable(_erc20token).allowance(owner(), address(this)) >=\n                a.amountToStake,\n            \"Insufficient Balance\"\n        );\n        address[] memory members = getKMembers(aggregationId_);\n        require(members.length > a.m);\n\n        address clone = Clones.clone(_implementation);\n        kDaO(clone).initialize(\n            _erc20token,\n            members,\n            owner(),\n            a.releaseDate,\n            _tokenTimelocks,\n            a.minimumQuorumForProposals,\n            a.minDebatingPeriod,\n            a.minDifferenceLockPeriod\n        );\n\n        IERC20Upgradeable(_erc20token).transferFrom(\n            owner(),\n            clone,\n            a.amountToStake\n        );\n\n        _kDaOContracts.push(clone);\n\n        emit NewkDaO(aggregationId_, _kDaOContracts.length - 1, clone);\n\n        return clone;\n    }\n\n    /**\n     * @dev Check if k data owners allowed the aggregation aggregationId_\n     */\n    function checkKgtM(uint256 aggregationId_) public view returns (bool) {\n        Aggregation storage a = _aggregations[aggregationId_];\n\n        uint256 k = 0;\n        for (uint256 i = 0; i < a.aclIds.length; i++) {\n            bool temp = true;\n            for (uint256 j = 0; j < a.users.length; j++) {\n                temp =\n                    temp &&\n                    DataOwnerContract(a.aclIds[i]).checkPermissions(\n                        a.users[j],\n                        a.dataIds[i]\n                    );\n            }\n            if (temp) k++;\n        }\n        if (k >= a.m) return true;\n        return false;\n    }\n\n    /**\n     * @dev Get the k data owners that allowed the aggregation aggregationId_\n     */\n    function getKMembers(uint256 aggregationId_)\n        public\n        view\n        returns (address[] memory kMembers)\n    {\n        Aggregation storage a = _aggregations[aggregationId_];\n\n        address[] memory tmpKMembers = new address[](a.aclIds.length);\n        uint256 k = 0;\n        for (uint256 i = 0; i < a.aclIds.length; i++) {\n            bool temp = true;\n            for (uint256 j = 0; j < a.users.length; j++) {\n                temp =\n                    temp &&\n                    DataOwnerContract(a.aclIds[i]).checkPermissions(\n                        a.users[j],\n                        a.dataIds[i]\n                    );\n            }\n            if (temp) tmpKMembers[k++] = DataOwnerContract(a.aclIds[i]).owner();\n        }\n        kMembers = new address[](k);\n        for (uint256 i = 0; i < k; i++) {\n            kMembers[i] = tmpKMembers[i];\n        }\n    }\n}\n",
  "sourcePath": "/home/miker/workspace/decentralized-auth/k-dao/contracts/AggregatorContract.sol",
  "compiler": {
    "name": "solc",
    "version": "0.8.12+commit.f00d7308.Emscripten.clang"
  },
  "schemaVersion": "3.4.5",
  "updatedAt": "2022-05-06T15:45:59.295Z",
  "devdoc": {
    "details": "Enables an Aggregator to request access to data",
    "kind": "dev",
    "methods": {
      "checkKgtM(uint256)": {
        "details": "Check if k data owners allowed the aggregation aggregationId_"
      },
      "createkDaO(uint256)": {
        "details": "Creates a new kDaO contract",
        "returns": {
          "_0": "the contract address"
        }
      },
      "getKMembers(uint256)": {
        "details": "Get the k data owners that allowed the aggregation aggregationId_"
      },
      "owner()": {
        "details": "Returns the address of the current owner."
      },
      "renounceOwnership()": {
        "details": "Leaves the contract without owner. It will not be possible to call `onlyOwner` functions anymore. Can only be called by the current owner. NOTE: Renouncing ownership will leave the contract without an owner, thereby removing any functionality that is only available to the owner."
      },
      "requestAccessToData(bytes[],address[],address[],bytes,uint256[])": {
        "details": "Creates a request to grant access to id_ to users_ with a reason request_"
      },
      "transferOwnership(address)": {
        "details": "Transfers ownership of the contract to a new account (`newOwner`). Can only be called by the current owner."
      }
    },
    "version": 1
  },
  "userdoc": {
    "events": {
      "NewAggregation(uint256,address[],uint256[],bytes)": {
        "notice": "Event for a new request made"
      },
      "NewkDaO(uint256,uint256,address)": {
        "notice": "Event for a new kDaO creation"
      }
    },
    "kind": "user",
    "methods": {},
    "version": 1
  }
}