{
  "contractName": "AggregatorContract",
  "abi": [
    {
      "inputs": [
        {
          "internalType": "address",
          "name": "token_",
          "type": "address"
        },
        {
          "internalType": "address",
          "name": "implementation_",
          "type": "address"
        },
        {
          "internalType": "address",
          "name": "tokenTimelocks_",
          "type": "address"
        }
      ],
      "stateMutability": "nonpayable",
      "type": "constructor"
    },
    {
      "anonymous": false,
      "inputs": [
        {
          "indexed": false,
          "internalType": "uint256",
          "name": "aggregationId",
          "type": "uint256"
        },
        {
          "indexed": false,
          "internalType": "address[]",
          "name": "aclIds",
          "type": "address[]"
        },
        {
          "indexed": false,
          "internalType": "uint256[]",
          "name": "requestIds",
          "type": "uint256[]"
        },
        {
          "indexed": false,
          "internalType": "bytes",
          "name": "request",
          "type": "bytes"
        }
      ],
      "name": "NewAggregation",
      "type": "event"
    },
    {
      "anonymous": false,
      "inputs": [
        {
          "indexed": true,
          "internalType": "address",
          "name": "previousOwner",
          "type": "address"
        },
        {
          "indexed": true,
          "internalType": "address",
          "name": "newOwner",
          "type": "address"
        }
      ],
      "name": "OwnershipTransferred",
      "type": "event"
    },
    {
      "inputs": [
        {
          "internalType": "uint256",
          "name": "",
          "type": "uint256"
        }
      ],
      "name": "_aggregations",
      "outputs": [
        {
          "internalType": "bytes",
          "name": "request",
          "type": "bytes"
        },
        {
          "internalType": "uint256",
          "name": "releaseDate",
          "type": "uint256"
        },
        {
          "internalType": "uint256",
          "name": "callForDataDeadline",
          "type": "uint256"
        },
        {
          "internalType": "uint256",
          "name": "minimumQuorumForProposals",
          "type": "uint256"
        },
        {
          "internalType": "uint256",
          "name": "minDebatingPeriod",
          "type": "uint256"
        },
        {
          "internalType": "uint256",
          "name": "minDifferenceLockPeriod",
          "type": "uint256"
        },
        {
          "internalType": "uint256",
          "name": "amountToStake",
          "type": "uint256"
        },
        {
          "internalType": "uint256",
          "name": "m",
          "type": "uint256"
        }
      ],
      "stateMutability": "view",
      "type": "function",
      "constant": true
    },
    {
      "inputs": [],
      "name": "_erc20token",
      "outputs": [
        {
          "internalType": "address",
          "name": "",
          "type": "address"
        }
      ],
      "stateMutability": "view",
      "type": "function",
      "constant": true
    },
    {
      "inputs": [
        {
          "internalType": "uint256",
          "name": "",
          "type": "uint256"
        }
      ],
      "name": "_kDaOContracts",
      "outputs": [
        {
          "internalType": "address",
          "name": "",
          "type": "address"
        }
      ],
      "stateMutability": "view",
      "type": "function",
      "constant": true
    },
    {
      "inputs": [],
      "name": "_numAggregations",
      "outputs": [
        {
          "internalType": "uint256",
          "name": "",
          "type": "uint256"
        }
      ],
      "stateMutability": "view",
      "type": "function",
      "constant": true
    },
    {
      "inputs": [],
      "name": "_tokenTimelocks",
      "outputs": [
        {
          "internalType": "address",
          "name": "",
          "type": "address"
        }
      ],
      "stateMutability": "view",
      "type": "function",
      "constant": true
    },
    {
      "inputs": [],
      "name": "owner",
      "outputs": [
        {
          "internalType": "address",
          "name": "",
          "type": "address"
        }
      ],
      "stateMutability": "view",
      "type": "function",
      "constant": true
    },
    {
      "inputs": [],
      "name": "renounceOwnership",
      "outputs": [],
      "stateMutability": "nonpayable",
      "type": "function"
    },
    {
      "inputs": [
        {
          "internalType": "address",
          "name": "newOwner",
          "type": "address"
        }
      ],
      "name": "transferOwnership",
      "outputs": [],
      "stateMutability": "nonpayable",
      "type": "function"
    },
    {
      "inputs": [
        {
          "internalType": "bytes[]",
          "name": "dataIds_",
          "type": "bytes[]"
        },
        {
          "internalType": "address[]",
          "name": "aclIds_",
          "type": "address[]"
        },
        {
          "internalType": "address[]",
          "name": "users_",
          "type": "address[]"
        },
        {
          "internalType": "bytes",
          "name": "request_",
          "type": "bytes"
        },
        {
          "internalType": "uint256[]",
          "name": "parameters_",
          "type": "uint256[]"
        }
      ],
      "name": "requestAccessToData",
      "outputs": [
        {
          "internalType": "uint256",
          "name": "aggregationId",
          "type": "uint256"
        }
      ],
      "stateMutability": "nonpayable",
      "type": "function"
    },
    {
      "inputs": [
        {
          "internalType": "uint256",
          "name": "aggregationId_",
          "type": "uint256"
        }
      ],
      "name": "createkDaO",
      "outputs": [
        {
          "internalType": "address",
          "name": "",
          "type": "address"
        }
      ],
      "stateMutability": "nonpayable",
      "type": "function"
    },
    {
      "inputs": [
        {
          "internalType": "uint256",
          "name": "aggregationId_",
          "type": "uint256"
        }
      ],
      "name": "checkKgtM",
      "outputs": [
        {
          "internalType": "bool",
          "name": "",
          "type": "bool"
        }
      ],
      "stateMutability": "view",
      "type": "function",
      "constant": true
    },
    {
      "inputs": [
        {
          "internalType": "uint256",
          "name": "aggregationId_",
          "type": "uint256"
        }
      ],
      "name": "getKMembers",
      "outputs": [
        {
          "internalType": "address[]",
          "name": "kMembers",
          "type": "address[]"
        }
      ],
      "stateMutability": "view",
      "type": "function",
      "constant": true
    }
  ],
  "bytecode": "0x60a06040523480156200001157600080fd5b506040516200296e3803806200296e83398181016040528101906200003791906200024c565b620000576200004b6200011660201b60201c565b6200011e60201b60201c565b8173ffffffffffffffffffffffffffffffffffffffff1660808173ffffffffffffffffffffffffffffffffffffffff168152505082600160006101000a81548173ffffffffffffffffffffffffffffffffffffffff021916908373ffffffffffffffffffffffffffffffffffffffff16021790555080600260006101000a81548173ffffffffffffffffffffffffffffffffffffffff021916908373ffffffffffffffffffffffffffffffffffffffff160217905550505050620002a8565b600033905090565b60008060009054906101000a900473ffffffffffffffffffffffffffffffffffffffff169050816000806101000a81548173ffffffffffffffffffffffffffffffffffffffff021916908373ffffffffffffffffffffffffffffffffffffffff1602179055508173ffffffffffffffffffffffffffffffffffffffff168173ffffffffffffffffffffffffffffffffffffffff167f8be0079c531659141344cd1fd0a4f28419497f9722a3daafe3b4186f6b6457e060405160405180910390a35050565b600080fd5b600073ffffffffffffffffffffffffffffffffffffffff82169050919050565b60006200021482620001e7565b9050919050565b620002268162000207565b81146200023257600080fd5b50565b60008151905062000246816200021b565b92915050565b600080600060608486031215620002685762000267620001e2565b5b6000620002788682870162000235565b93505060206200028b8682870162000235565b92505060406200029e8682870162000235565b9150509250925092565b6080516126aa620002c46000396000610a7c01526126aa6000f3fe608060405234801561001057600080fd5b50600436106100b45760003560e01c80638da5cb5b116100715780638da5cb5b1461018f5780639fcc0777146101ad578063c0cfb007146101dd578063d93ac8f8146101fb578063f2fde38b1461022b578063f4db83da14610247576100b4565b80631a281052146100b95780634b8e31a2146100e9578063519a342814610107578063715018a614610137578063752b8fec1461014157806386ae175614610171575b600080fd5b6100d360048036038101906100ce919061167a565b61027e565b6040516100e09190611797565b60405180910390f35b6100f161064e565b6040516100fe91906117c8565b60405180910390f35b610121600480360381019061011c919061167a565b610674565b60405161012e91906117fe565b60405180910390f35b61013f61083e565b005b61015b6004803603810190610156919061167a565b6108c6565b60405161016891906117c8565b60405180910390f35b610179610c92565b6040516101869190611828565b60405180910390f35b610197610c98565b6040516101a491906117c8565b60405180910390f35b6101c760048036038101906101c2919061167a565b610cc1565b6040516101d491906117c8565b60405180910390f35b6101e5610d00565b6040516101f291906117c8565b60405180910390f35b61021560048036038101906102109190611c21565b610d26565b6040516102229190611828565b60405180910390f35b61024560048036038101906102409190611d28565b6110d6565b005b610261600480360381019061025c919061167a565b6111ce565b604051610275989796959493929190611ddd565b60405180910390f35b606060006003600084815260200190815260200160002090506000816001018054905067ffffffffffffffff8111156102ba576102b9611859565b5b6040519080825280602002602001820160405280156102e85781602001602082028036833780820191505090505b5090506000805b83600101805490508110156105735760006001905060005b856002018054905081101561044f5781801561043a575085600101838154811061033457610333611e62565b5b9060005260206000200160009054906101000a900473ffffffffffffffffffffffffffffffffffffffff1673ffffffffffffffffffffffffffffffffffffffff166324d8a19a8760020183815481106103905761038f611e62565b5b9060005260206000200160009054906101000a900473ffffffffffffffffffffffffffffffffffffffff168860000186815481106103d1576103d0611e62565b5b906000526020600020016040518363ffffffff1660e01b81526004016103f8929190611f87565b602060405180830381865afa158015610415573d6000803e3d6000fd5b505050506040513d601f19601f820116820180604052508101906104399190611fe3565b5b915080806104479061203f565b915050610307565b50801561055f5784600101828154811061046c5761046b611e62565b5b9060005260206000200160009054906101000a900473ffffffffffffffffffffffffffffffffffffffff1673ffffffffffffffffffffffffffffffffffffffff16638da5cb5b6040518163ffffffff1660e01b8152600401602060405180830381865afa1580156104e1573d6000803e3d6000fd5b505050506040513d601f19601f82011682018060405250810190610505919061209d565b8684806105119061203f565b95508151811061052457610523611e62565b5b602002602001019073ffffffffffffffffffffffffffffffffffffffff16908173ffffffffffffffffffffffffffffffffffffffff16815250505b50808061056b9061203f565b9150506102ef565b508067ffffffffffffffff81111561058e5761058d611859565b5b6040519080825280602002602001820160405280156105bc5781602001602082028036833780820191505090505b50935060005b81811015610645578281815181106105dd576105dc611e62565b5b60200260200101518582815181106105f8576105f7611e62565b5b602002602001019073ffffffffffffffffffffffffffffffffffffffff16908173ffffffffffffffffffffffffffffffffffffffff1681525050808061063d9061203f565b9150506105c2565b50505050919050565b600160009054906101000a900473ffffffffffffffffffffffffffffffffffffffff1681565b6000806003600084815260200190815260200160002090506000805b826001018054905081101561081a5760006001905060005b84600201805490508110156107f0578180156107db57508460010183815481106106d5576106d4611e62565b5b9060005260206000200160009054906101000a900473ffffffffffffffffffffffffffffffffffffffff1673ffffffffffffffffffffffffffffffffffffffff166324d8a19a86600201838154811061073157610730611e62565b5b9060005260206000200160009054906101000a900473ffffffffffffffffffffffffffffffffffffffff1687600001868154811061077257610771611e62565b5b906000526020600020016040518363ffffffff1660e01b8152600401610799929190611f87565b602060405180830381865afa1580156107b6573d6000803e3d6000fd5b505050506040513d601f19601f820116820180604052508101906107da9190611fe3565b5b915080806107e89061203f565b9150506106a8565b5080156108065782806108029061203f565b9350505b5080806108129061203f565b915050610690565b5081600b015481111561083257600192505050610839565b6000925050505b919050565b61084661129e565b73ffffffffffffffffffffffffffffffffffffffff16610864610c98565b73ffffffffffffffffffffffffffffffffffffffff16146108ba576040517f08c379a00000000000000000000000000000000000000000000000000000000081526004016108b190612127565b60405180910390fd5b6108c460006112a6565b565b60006108d061129e565b73ffffffffffffffffffffffffffffffffffffffff166108ee610c98565b73ffffffffffffffffffffffffffffffffffffffff1614610944576040517f08c379a000000000000000000000000000000000000000000000000000000000815260040161093b90612127565b60405180910390fd5b6000600360008481526020019081526020016000209050806006015442101561096c57600080fd5b80600a0154600160009054906101000a900473ffffffffffffffffffffffffffffffffffffffff1673ffffffffffffffffffffffffffffffffffffffff1663dd62ed3e6109b7610c98565b306040518363ffffffff1660e01b81526004016109d5929190612147565b602060405180830381865afa1580156109f2573d6000803e3d6000fd5b505050506040513d601f19601f82011682018060405250810190610a169190612185565b1015610a57576040517f08c379a0000000000000000000000000000000000000000000000000000000008152600401610a4e906121fe565b60405180910390fd5b6000610a628461027e565b905081600b0154815111610a7557600080fd5b6000610aa07f000000000000000000000000000000000000000000000000000000000000000061136a565b90508073ffffffffffffffffffffffffffffffffffffffff16633b9ed07e600160009054906101000a900473ffffffffffffffffffffffffffffffffffffffff1684610aea610c98565b8760050154600260009054906101000a900473ffffffffffffffffffffffffffffffffffffffff1689600701548a600801548b600901546040518963ffffffff1660e01b8152600401610b4498979695949392919061221e565b600060405180830381600087803b158015610b5e57600080fd5b505af1158015610b72573d6000803e3d6000fd5b50505050600160009054906101000a900473ffffffffffffffffffffffffffffffffffffffff1673ffffffffffffffffffffffffffffffffffffffff166323b872dd610bbc610c98565b8386600a01546040518463ffffffff1660e01b8152600401610be0939291906122a3565b6020604051808303816000875af1158015610bff573d6000803e3d6000fd5b505050506040513d601f19601f82011682018060405250810190610c239190611fe3565b506005819080600181540180825580915050600190039060005260206000200160009091909190916101000a81548173ffffffffffffffffffffffffffffffffffffffff021916908373ffffffffffffffffffffffffffffffffffffffff160217905550809350505050919050565b60045481565b60008060009054906101000a900473ffffffffffffffffffffffffffffffffffffffff16905090565b60058181548110610cd157600080fd5b906000526020600020016000915054906101000a900473ffffffffffffffffffffffffffffffffffffffff1681565b600260009054906101000a900473ffffffffffffffffffffffffffffffffffffffff1681565b6000610d3061129e565b73ffffffffffffffffffffffffffffffffffffffff16610d4e610c98565b73ffffffffffffffffffffffffffffffffffffffff1614610da4576040517f08c379a0000000000000000000000000000000000000000000000000000000008152600401610d9b90612127565b60405180910390fd5b8451865114610de8576040517f08c379a0000000000000000000000000000000000000000000000000000000008152600401610ddf9061234c565b60405180910390fd5b60046000815480929190610dfb9061203f565b919050559050600060036000838152602001908152602001600020905086816000019080519060200190610e3092919061143f565b5085816001019080519060200190610e4992919061149f565b5084816002019080519060200190610e6292919061149f565b5083816004019080519060200190610e7b929190611529565b5082600081518110610e9057610e8f611e62565b5b602002602001015142610ea3919061236c565b816005018190555082600181518110610ebf57610ebe611e62565b5b602002602001015142610ed2919061236c565b816006018190555082600281518110610eee57610eed611e62565b5b6020026020010151816007018190555082600381518110610f1257610f11611e62565b5b6020026020010151816008018190555082600481518110610f3657610f35611e62565b5b6020026020010151816009018190555082600581518110610f5a57610f59611e62565b5b602002602001015181600a018190555082600681518110610f7e57610f7d611e62565b5b602002602001015181600b018190555060005b865181101561108b5781600301878281518110610fb157610fb0611e62565b5b602002602001015173ffffffffffffffffffffffffffffffffffffffff16631c41fd318a8481518110610fe757610fe6611e62565b5b602002602001015189896040518463ffffffff1660e01b815260040161100f939291906123c2565b6020604051808303816000875af115801561102e573d6000803e3d6000fd5b505050506040513d601f19601f820116820180604052508101906110529190612185565b908060018154018082558091505060019003906000526020600020016000909190919091505580806110839061203f565b915050610f91565b507f89b15685b6d108a35323d7b884e5afdfb09207e9dd75449267f556d5493a0877828783600301876040516110c4949392919061251c565b60405180910390a15095945050505050565b6110de61129e565b73ffffffffffffffffffffffffffffffffffffffff166110fc610c98565b73ffffffffffffffffffffffffffffffffffffffff1614611152576040517f08c379a000000000000000000000000000000000000000000000000000000000815260040161114990612127565b60405180910390fd5b600073ffffffffffffffffffffffffffffffffffffffff168173ffffffffffffffffffffffffffffffffffffffff1614156111c2576040517f08c379a00000000000000000000000000000000000000000000000000000000081526004016111b9906125e8565b60405180910390fd5b6111cb816112a6565b50565b60036020528060005260406000206000915090508060040180546111f190611ec0565b80601f016020809104026020016040519081016040528092919081815260200182805461121d90611ec0565b801561126a5780601f1061123f5761010080835404028352916020019161126a565b820191906000526020600020905b81548152906001019060200180831161124d57829003601f168201915b50505050509080600501549080600601549080600701549080600801549080600901549080600a01549080600b0154905088565b600033905090565b60008060009054906101000a900473ffffffffffffffffffffffffffffffffffffffff169050816000806101000a81548173ffffffffffffffffffffffffffffffffffffffff021916908373ffffffffffffffffffffffffffffffffffffffff1602179055508173ffffffffffffffffffffffffffffffffffffffff168173ffffffffffffffffffffffffffffffffffffffff167f8be0079c531659141344cd1fd0a4f28419497f9722a3daafe3b4186f6b6457e060405160405180910390a35050565b60006040517f3d602d80600a3d3981f3363d3d373d3d3d363d7300000000000000000000000081528260601b60148201527f5af43d82803e903d91602b57fd5bf3000000000000000000000000000000000060288201526037816000f0915050600073ffffffffffffffffffffffffffffffffffffffff168173ffffffffffffffffffffffffffffffffffffffff16141561143a576040517f08c379a000000000000000000000000000000000000000000000000000000000815260040161143190612654565b60405180910390fd5b919050565b82805482825590600052602060002090810192821561148e579160200282015b8281111561148d57825182908051906020019061147d929190611529565b509160200191906001019061145f565b5b50905061149b91906115af565b5090565b828054828255906000526020600020908101928215611518579160200282015b828111156115175782518260006101000a81548173ffffffffffffffffffffffffffffffffffffffff021916908373ffffffffffffffffffffffffffffffffffffffff160217905550916020019190600101906114bf565b5b50905061152591906115d3565b5090565b82805461153590611ec0565b90600052602060002090601f016020900481019282611557576000855561159e565b82601f1061157057805160ff191683800117855561159e565b8280016001018555821561159e579182015b8281111561159d578251825591602001919060010190611582565b5b5090506115ab91906115d3565b5090565b5b808211156115cf57600081816115c691906115f0565b506001016115b0565b5090565b5b808211156115ec5760008160009055506001016115d4565b5090565b5080546115fc90611ec0565b6000825580601f1061160e575061162d565b601f01602090049060005260206000209081019061162c91906115d3565b5b50565b6000604051905090565b600080fd5b600080fd5b6000819050919050565b61165781611644565b811461166257600080fd5b50565b6000813590506116748161164e565b92915050565b6000602082840312156116905761168f61163a565b5b600061169e84828501611665565b91505092915050565b600081519050919050565b600082825260208201905092915050565b6000819050602082019050919050565b600073ffffffffffffffffffffffffffffffffffffffff82169050919050565b60006116fe826116d3565b9050919050565b61170e816116f3565b82525050565b60006117208383611705565b60208301905092915050565b6000602082019050919050565b6000611744826116a7565b61174e81856116b2565b9350611759836116c3565b8060005b8381101561178a5781516117718882611714565b975061177c8361172c565b92505060018101905061175d565b5085935050505092915050565b600060208201905081810360008301526117b18184611739565b905092915050565b6117c2816116f3565b82525050565b60006020820190506117dd60008301846117b9565b92915050565b60008115159050919050565b6117f8816117e3565b82525050565b600060208201905061181360008301846117ef565b92915050565b61182281611644565b82525050565b600060208201905061183d6000830184611819565b92915050565b600080fd5b6000601f19601f8301169050919050565b7f4e487b7100000000000000000000000000000000000000000000000000000000600052604160045260246000fd5b61189182611848565b810181811067ffffffffffffffff821117156118b0576118af611859565b5b80604052505050565b60006118c3611630565b90506118cf8282611888565b919050565b600067ffffffffffffffff8211156118ef576118ee611859565b5b602082029050602081019050919050565b600080fd5b600080fd5b600067ffffffffffffffff82111561192557611924611859565b5b61192e82611848565b9050602081019050919050565b82818337600083830152505050565b600061195d6119588461190a565b6118b9565b90508281526020810184848401111561197957611978611905565b5b61198484828561193b565b509392505050565b600082601f8301126119a1576119a0611843565b5b81356119b184826020860161194a565b91505092915050565b60006119cd6119c8846118d4565b6118b9565b905080838252602082019050602084028301858111156119f0576119ef611900565b5b835b81811015611a3757803567ffffffffffffffff811115611a1557611a14611843565b5b808601611a22898261198c565b855260208501945050506020810190506119f2565b5050509392505050565b600082601f830112611a5657611a55611843565b5b8135611a668482602086016119ba565b91505092915050565b600067ffffffffffffffff821115611a8a57611a89611859565b5b602082029050602081019050919050565b611aa4816116f3565b8114611aaf57600080fd5b50565b600081359050611ac181611a9b565b92915050565b6000611ada611ad584611a6f565b6118b9565b90508083825260208201905060208402830185811115611afd57611afc611900565b5b835b81811015611b265780611b128882611ab2565b845260208401935050602081019050611aff565b5050509392505050565b600082601f830112611b4557611b44611843565b5b8135611b55848260208601611ac7565b91505092915050565b600067ffffffffffffffff821115611b7957611b78611859565b5b602082029050602081019050919050565b6000611b9d611b9884611b5e565b6118b9565b90508083825260208201905060208402830185811115611bc057611bbf611900565b5b835b81811015611be95780611bd58882611665565b845260208401935050602081019050611bc2565b5050509392505050565b600082601f830112611c0857611c07611843565b5b8135611c18848260208601611b8a565b91505092915050565b600080600080600060a08688031215611c3d57611c3c61163a565b5b600086013567ffffffffffffffff811115611c5b57611c5a61163f565b5b611c6788828901611a41565b955050602086013567ffffffffffffffff811115611c8857611c8761163f565b5b611c9488828901611b30565b945050604086013567ffffffffffffffff811115611cb557611cb461163f565b5b611cc188828901611b30565b935050606086013567ffffffffffffffff811115611ce257611ce161163f565b5b611cee8882890161198c565b925050608086013567ffffffffffffffff811115611d0f57611d0e61163f565b5b611d1b88828901611bf3565b9150509295509295909350565b600060208284031215611d3e57611d3d61163a565b5b6000611d4c84828501611ab2565b91505092915050565b600081519050919050565b600082825260208201905092915050565b60005b83811015611d8f578082015181840152602081019050611d74565b83811115611d9e576000848401525b50505050565b6000611daf82611d55565b611db98185611d60565b9350611dc9818560208601611d71565b611dd281611848565b840191505092915050565b6000610100820190508181036000830152611df8818b611da4565b9050611e07602083018a611819565b611e146040830189611819565b611e216060830188611819565b611e2e6080830187611819565b611e3b60a0830186611819565b611e4860c0830185611819565b611e5560e0830184611819565b9998505050505050505050565b7f4e487b7100000000000000000000000000000000000000000000000000000000600052603260045260246000fd5b7f4e487b7100000000000000000000000000000000000000000000000000000000600052602260045260246000fd5b60006002820490506001821680611ed857607f821691505b60208210811415611eec57611eeb611e91565b5b50919050565b60008190508160005260206000209050919050565b60008154611f1481611ec0565b611f1e8186611d60565b94506001821660008114611f395760018114611f4b57611f7e565b60ff1983168652602086019350611f7e565b611f5485611ef2565b60005b83811015611f7657815481890152600182019150602081019050611f57565b808801955050505b50505092915050565b6000604082019050611f9c60008301856117b9565b8181036020830152611fae8184611f07565b90509392505050565b611fc0816117e3565b8114611fcb57600080fd5b50565b600081519050611fdd81611fb7565b92915050565b600060208284031215611ff957611ff861163a565b5b600061200784828501611fce565b91505092915050565b7f4e487b7100000000000000000000000000000000000000000000000000000000600052601160045260246000fd5b600061204a82611644565b91507fffffffffffffffffffffffffffffffffffffffffffffffffffffffffffffffff82141561207d5761207c612010565b5b600182019050919050565b60008151905061209781611a9b565b92915050565b6000602082840312156120b3576120b261163a565b5b60006120c184828501612088565b91505092915050565b600082825260208201905092915050565b7f4f776e61626c653a2063616c6c6572206973206e6f7420746865206f776e6572600082015250565b60006121116020836120ca565b915061211c826120db565b602082019050919050565b6000602082019050818103600083015261214081612104565b9050919050565b600060408201905061215c60008301856117b9565b61216960208301846117b9565b9392505050565b60008151905061217f8161164e565b92915050565b60006020828403121561219b5761219a61163a565b5b60006121a984828501612170565b91505092915050565b7f496e73756666696369656e742042616c616e6365000000000000000000000000600082015250565b60006121e86014836120ca565b91506121f3826121b2565b602082019050919050565b60006020820190508181036000830152612217816121db565b9050919050565b600061010082019050612234600083018b6117b9565b8181036020830152612246818a611739565b905061225560408301896117b9565b6122626060830188611819565b61226f60808301876117b9565b61227c60a0830186611819565b61228960c0830185611819565b61229660e0830184611819565b9998505050505050505050565b60006060820190506122b860008301866117b9565b6122c560208301856117b9565b6122d26040830184611819565b949350505050565b7f41676772656761746f72436f6e74726163743a20696e7075742064617461206c60008201527f656e677468206d69736d61746368000000000000000000000000000000000000602082015250565b6000612336602e836120ca565b9150612341826122da565b604082019050919050565b6000602082019050818103600083015261236581612329565b9050919050565b600061237782611644565b915061238283611644565b9250827fffffffffffffffffffffffffffffffffffffffffffffffffffffffffffffffff038211156123b7576123b6612010565b5b828201905092915050565b600060608201905081810360008301526123dc8186611da4565b905081810360208301526123f08185611739565b905081810360408301526124048184611da4565b9050949350505050565b600081549050919050565b600082825260208201905092915050565b60008190508160005260206000209050919050565b61244881611644565b82525050565b600061245a838361243f565b60208301905092915050565b60008160001c9050919050565b6000819050919050565b600061249061248b83612466565b612473565b9050919050565b60006124a3825461247d565b9050919050565b6000600182019050919050565b60006124c28261240e565b6124cc8185612419565b93506124d78361242a565b8060005b8381101561250f576124ec82612497565b6124f6888261244e565b9750612501836124aa565b9250506001810190506124db565b5085935050505092915050565b60006080820190506125316000830187611819565b81810360208301526125438186611739565b9050818103604083015261255781856124b7565b9050818103606083015261256b8184611da4565b905095945050505050565b7f4f776e61626c653a206e6577206f776e657220697320746865207a65726f206160008201527f6464726573730000000000000000000000000000000000000000000000000000602082015250565b60006125d26026836120ca565b91506125dd82612576565b604082019050919050565b60006020820190508181036000830152612601816125c5565b9050919050565b7f455243313136373a20637265617465206661696c656400000000000000000000600082015250565b600061263e6016836120ca565b915061264982612608565b602082019050919050565b6000602082019050818103600083015261266d81612631565b905091905056fea2646970667358221220bd9af64bb82669d280e529a0ca4b6a73decfbc5357e33263d72b81d1f984d0b664736f6c634300080c0033",
  "immutableReferences": {
    "164": [
      {
        "length": 32,
        "start": 2684
      }
    ]
  },
  "source": "// SPDX-License-Identifier: MIT\n\npragma solidity ^0.8.0;\n\nimport \"./DataOwnerContract.sol\";\nimport \"./kDaO.sol\";\n\n/**\n * @dev Enables an Aggregator to request access to data\n */\ncontract AggregatorContract is Ownable {\n    // Access Control List structure\n    struct Aggregation {\n        bytes[] dataIds;\n        address[] aclIds;\n        address[] users;\n        uint256[] requestIds;\n        bytes request;\n        uint256 releaseDate;\n        uint256 callForDataDeadline;\n        uint256 minimumQuorumForProposals;\n        uint256 minDebatingPeriod;\n        uint256 minDifferenceLockPeriod;\n        uint256 amountToStake;\n        uint256 m;\n    }\n\n    // kDaO on chain contract\n    address immutable _implementation;\n\n    // Token used by the DAO\n    address public _erc20token;\n\n    // The contract used for timelocks\n    address public _tokenTimelocks;\n\n    // Aggregations of data performed (or to perform)\n    mapping(uint256 => Aggregation) public _aggregations;\n\n    // Number of Aggregations\n    uint256 public _numAggregations;\n\n    // List of kDaO cloned contracts\n    address[] public _kDaOContracts;\n\n    /**\n     * Event for a new request made\n     */\n    event NewAggregation(\n        uint256 aggregationId,\n        address[] aclIds,\n        uint256[] requestIds,\n        bytes request\n    );\n\n    constructor(\n        address token_,\n        address implementation_,\n        address tokenTimelocks_\n    ) {\n        _implementation = implementation_;\n        _erc20token = token_;\n        _tokenTimelocks = tokenTimelocks_;\n    }\n\n    /**\n     * @dev Creates a request to grant access to id_ to users_\n     * with a reason request_\n     */\n    function requestAccessToData(\n        bytes[] memory dataIds_,\n        address[] memory aclIds_,\n        address[] memory users_,\n        bytes memory request_,\n        uint256[] memory parameters_\n    ) public onlyOwner returns (uint256 aggregationId) {\n        require(\n            dataIds_.length == aclIds_.length,\n            \"AggregatorContract: input data length mismatch\"\n        );\n\n        aggregationId = _numAggregations++;\n        Aggregation storage a = _aggregations[aggregationId];\n        a.dataIds = dataIds_;\n        a.aclIds = aclIds_;\n        a.users = users_;\n        a.request = request_;\n        /*uint256 releaseDatePeriod_,\n        uint256 callForDataPeriod_,\n        uint256 minimumQuorumForProposals_,\n        uint256 minDebatingPeriod_,\n        uint256 minDifferenceLockPeriod_,\n        uint256 amountToStake_,\n        uint256 m_*/\n        a.releaseDate = block.timestamp + parameters_[0];\n        a.callForDataDeadline = block.timestamp + parameters_[1];\n        a.minimumQuorumForProposals = parameters_[2];\n        a.minDebatingPeriod = parameters_[3];\n        a.minDifferenceLockPeriod = parameters_[4];\n        a.amountToStake = parameters_[5];\n        a.m = parameters_[6];\n\n        for (uint256 i = 0; i < aclIds_.length; i++) {\n            a.requestIds.push(\n                DataOwnerContract(aclIds_[i]).requestAccess(\n                    dataIds_[i],\n                    users_,\n                    request_\n                )\n            );\n        }\n\n        emit NewAggregation(aggregationId, aclIds_, a.requestIds, request_);\n    }\n\n    /**\n     * @dev Creates a new kDaO contract\n     * @return the contract address\n     */\n    function createkDaO(uint256 aggregationId_)\n        public\n        onlyOwner\n        returns (address)\n    {\n        Aggregation storage a = _aggregations[aggregationId_];\n        require(block.timestamp >= a.callForDataDeadline);\n        require(\n            IERC20Upgradeable(_erc20token).allowance(owner(), address(this)) >=\n                a.amountToStake,\n            \"Insufficient Balance\"\n        );\n        address[] memory members = getKMembers(aggregationId_);\n        require(members.length > a.m);\n\n        address clone = Clones.clone(_implementation);\n        kDaO(clone).initialize(\n            _erc20token,\n            members,\n            owner(),\n            a.releaseDate,\n            _tokenTimelocks,\n            a.minimumQuorumForProposals,\n            a.minDebatingPeriod,\n            a.minDifferenceLockPeriod\n        );\n\n        IERC20Upgradeable(_erc20token).transferFrom(\n            owner(),\n            clone,\n            a.amountToStake\n        );\n\n        _kDaOContracts.push(clone);\n\n        return clone;\n    }\n\n    /**\n     * @dev Check if k data owners allowed the aggregation aggregationId_\n     */\n    function checkKgtM(uint256 aggregationId_) public view returns (bool) {\n        Aggregation storage a = _aggregations[aggregationId_];\n\n        uint256 k = 0;\n        for (uint256 i = 0; i < a.aclIds.length; i++) {\n            bool temp = true;\n            for (uint256 j = 0; j < a.users.length; j++) {\n                temp =\n                    temp &&\n                    DataOwnerContract(a.aclIds[i]).checkPermissions(\n                        a.users[j],\n                        a.dataIds[i]\n                    );\n            }\n            if (temp) k++;\n        }\n        if (k > a.m) return true;\n        return false;\n    }\n\n    /**\n     * @dev Get the k data owners that allowed the aggregation aggregationId_\n     */\n    function getKMembers(uint256 aggregationId_)\n        public\n        view\n        returns (address[] memory kMembers)\n    {\n        Aggregation storage a = _aggregations[aggregationId_];\n\n        address[] memory tmpKMembers = new address[](a.aclIds.length);\n        uint256 k = 0;\n        for (uint256 i = 0; i < a.aclIds.length; i++) {\n            bool temp = true;\n            for (uint256 j = 0; j < a.users.length; j++) {\n                temp =\n                    temp &&\n                    DataOwnerContract(a.aclIds[i]).checkPermissions(\n                        a.users[j],\n                        a.dataIds[i]\n                    );\n            }\n            if (temp) kMembers[k++] = DataOwnerContract(a.aclIds[i]).owner();\n        }\n        kMembers = new address[](k);\n        for (uint256 i = 0; i < k; i++) {\n            kMembers[i] = tmpKMembers[i];\n        }\n    }\n}\n",
  "sourcePath": "/home/miker/workspace/decentralized-auth/k-dao/contracts/AggregatorContract.sol",
  "compiler": {
    "name": "solc",
    "version": "0.8.12+commit.f00d7308.Emscripten.clang"
  },
  "schemaVersion": "3.4.5",
  "updatedAt": "2022-05-03T17:22:17.420Z",
  "networkType": "ethereum",
  "devdoc": {
    "details": "Enables an Aggregator to request access to data",
    "kind": "dev",
    "methods": {
      "checkKgtM(uint256)": {
        "details": "Check if k data owners allowed the aggregation aggregationId_"
      },
      "createkDaO(uint256)": {
        "details": "Creates a new kDaO contract",
        "returns": {
          "_0": "the contract address"
        }
      },
      "getKMembers(uint256)": {
        "details": "Get the k data owners that allowed the aggregation aggregationId_"
      },
      "owner()": {
        "details": "Returns the address of the current owner."
      },
      "renounceOwnership()": {
        "details": "Leaves the contract without owner. It will not be possible to call `onlyOwner` functions anymore. Can only be called by the current owner. NOTE: Renouncing ownership will leave the contract without an owner, thereby removing any functionality that is only available to the owner."
      },
      "requestAccessToData(bytes[],address[],address[],bytes,uint256[])": {
        "details": "Creates a request to grant access to id_ to users_ with a reason request_"
      },
      "transferOwnership(address)": {
        "details": "Transfers ownership of the contract to a new account (`newOwner`). Can only be called by the current owner."
      }
    },
    "version": 1
  },
  "userdoc": {
    "events": {
      "NewAggregation(uint256,address[],uint256[],bytes)": {
        "notice": "Event for a new request made"
      }
    },
    "kind": "user",
    "methods": {},
    "version": 1
  }
}