{
  "contractName": "DataOwnerContract",
  "abi": [
    {
      "anonymous": false,
      "inputs": [
        {
          "indexed": false,
          "internalType": "uint256",
          "name": "amount",
          "type": "uint256"
        }
      ],
      "name": "AccessGranted",
      "type": "event"
    },
    {
      "anonymous": false,
      "inputs": [
        {
          "indexed": false,
          "internalType": "uint256",
          "name": "requestId",
          "type": "uint256"
        },
        {
          "indexed": false,
          "internalType": "bytes",
          "name": "dataId",
          "type": "bytes"
        },
        {
          "indexed": false,
          "internalType": "address[]",
          "name": "users",
          "type": "address[]"
        },
        {
          "indexed": false,
          "internalType": "bytes",
          "name": "request",
          "type": "bytes"
        }
      ],
      "name": "NewRequest",
      "type": "event"
    },
    {
      "anonymous": false,
      "inputs": [
        {
          "indexed": true,
          "internalType": "address",
          "name": "previousOwner",
          "type": "address"
        },
        {
          "indexed": true,
          "internalType": "address",
          "name": "newOwner",
          "type": "address"
        }
      ],
      "name": "OwnershipTransferred",
      "type": "event"
    },
    {
      "inputs": [],
      "name": "_numRequests",
      "outputs": [
        {
          "internalType": "uint256",
          "name": "",
          "type": "uint256"
        }
      ],
      "stateMutability": "view",
      "type": "function",
      "constant": true
    },
    {
      "inputs": [
        {
          "internalType": "uint256",
          "name": "",
          "type": "uint256"
        }
      ],
      "name": "_requests",
      "outputs": [
        {
          "internalType": "bytes",
          "name": "dataId",
          "type": "bytes"
        },
        {
          "internalType": "bytes",
          "name": "request",
          "type": "bytes"
        }
      ],
      "stateMutability": "view",
      "type": "function",
      "constant": true
    },
    {
      "inputs": [],
      "name": "owner",
      "outputs": [
        {
          "internalType": "address",
          "name": "",
          "type": "address"
        }
      ],
      "stateMutability": "view",
      "type": "function",
      "constant": true
    },
    {
      "inputs": [],
      "name": "renounceOwnership",
      "outputs": [],
      "stateMutability": "nonpayable",
      "type": "function"
    },
    {
      "inputs": [
        {
          "internalType": "address",
          "name": "newOwner",
          "type": "address"
        }
      ],
      "name": "transferOwnership",
      "outputs": [],
      "stateMutability": "nonpayable",
      "type": "function"
    },
    {
      "inputs": [
        {
          "internalType": "bytes",
          "name": "id_",
          "type": "bytes"
        },
        {
          "internalType": "address[]",
          "name": "users_",
          "type": "address[]"
        },
        {
          "internalType": "bytes",
          "name": "request_",
          "type": "bytes"
        }
      ],
      "name": "requestAccess",
      "outputs": [
        {
          "internalType": "uint256",
          "name": "requestId",
          "type": "uint256"
        }
      ],
      "stateMutability": "nonpayable",
      "type": "function"
    },
    {
      "inputs": [
        {
          "internalType": "uint256",
          "name": "requestId_",
          "type": "uint256"
        }
      ],
      "name": "grantAccessRequest",
      "outputs": [],
      "stateMutability": "nonpayable",
      "type": "function"
    },
    {
      "inputs": [
        {
          "internalType": "bytes",
          "name": "id_",
          "type": "bytes"
        },
        {
          "internalType": "address[]",
          "name": "users_",
          "type": "address[]"
        }
      ],
      "name": "grantAccess",
      "outputs": [],
      "stateMutability": "nonpayable",
      "type": "function"
    },
    {
      "inputs": [
        {
          "internalType": "bytes",
          "name": "id_",
          "type": "bytes"
        },
        {
          "internalType": "address[]",
          "name": "users_",
          "type": "address[]"
        }
      ],
      "name": "revokeAccess",
      "outputs": [],
      "stateMutability": "nonpayable",
      "type": "function"
    },
    {
      "inputs": [
        {
          "internalType": "address",
          "name": "user_",
          "type": "address"
        },
        {
          "internalType": "bytes",
          "name": "id_",
          "type": "bytes"
        }
      ],
      "name": "checkPermissions",
      "outputs": [
        {
          "internalType": "bool",
          "name": "",
          "type": "bool"
        }
      ],
      "stateMutability": "view",
      "type": "function",
      "constant": true
    }
  ],
  "bytecode": "0x608060405234801561001057600080fd5b5061002d61002261003260201b60201c565b61003a60201b60201c565b6100fe565b600033905090565b60008060009054906101000a900473ffffffffffffffffffffffffffffffffffffffff169050816000806101000a81548173ffffffffffffffffffffffffffffffffffffffff021916908373ffffffffffffffffffffffffffffffffffffffff1602179055508173ffffffffffffffffffffffffffffffffffffffff168173ffffffffffffffffffffffffffffffffffffffff167f8be0079c531659141344cd1fd0a4f28419497f9722a3daafe3b4186f6b6457e060405160405180910390a35050565b61177f8061010d6000396000f3fe608060405234801561001057600080fd5b506004361061009e5760003560e01c8063715018a611610066578063715018a6146101595780637cbbb222146101635780638da5cb5b1461017f578063bff60c0f1461019d578063f2fde38b146101ce5761009e565b806305860b3b146100a357806318fda686146100c15780631c41fd31146100dd57806324d8a19a1461010d5780636945f7501461013d575b600080fd5b6100ab6101ea565b6040516100b89190610d7a565b60405180910390f35b6100db60048036038101906100d69190610dd5565b6101f0565b005b6100f760048036038101906100f2919061106e565b6103a5565b6040516101049190610d7a565b60405180910390f35b61012760048036038101906101229190611115565b610467565b604051610134919061118c565b60405180910390f35b610157600480360381019061015291906111a7565b610532565b005b6101616105bc565b005b61017d600480360381019061017891906111a7565b610644565b005b6101876107ea565b604051610194919061122e565b60405180910390f35b6101b760048036038101906101b29190610dd5565b610813565b6040516101c59291906112d1565b60405180910390f35b6101e860048036038101906101e39190611308565b610947565b005b60035481565b6101f8610a3f565b73ffffffffffffffffffffffffffffffffffffffff166102166107ea565b73ffffffffffffffffffffffffffffffffffffffff161461026c576040517f08c379a000000000000000000000000000000000000000000000000000000000815260040161026390611392565b60405180910390fd5b60006002600083815260200190815260200160002090506103a1816000018054610295906113e1565b80601f01602080910402602001604051908101604052809291908181526020018280546102c1906113e1565b801561030e5780601f106102e35761010080835404028352916020019161030e565b820191906000526020600020905b8154815290600101906020018083116102f157829003601f168201915b50505050508260010180548060200260200160405190810160405280929190818152602001828054801561039757602002820191906000526020600020905b8160009054906101000a900473ffffffffffffffffffffffffffffffffffffffff1673ffffffffffffffffffffffffffffffffffffffff168152602001906001019080831161034d575b5050505050610a47565b5050565b6000600360008154809291906103ba90611442565b9190505590506000600260008381526020019081526020016000209050848160000190805190602001906103ef929190610c34565b5083816001019080519060200190610408929190610cba565b5082816002019080519060200190610421929190610c34565b507fbf2b727a3688211601d48ba1b307823a6ac238b8cf27394f10b06ad661fad482828686866040516104579493929190611549565b60405180910390a1509392505050565b60006001151560018360405161047d91906115df565b908152602001604051809103902060010160008573ffffffffffffffffffffffffffffffffffffffff1673ffffffffffffffffffffffffffffffffffffffff16815260200190815260200160002060009054906101000a900460ff161515148061051957506104ea6107ea565b73ffffffffffffffffffffffffffffffffffffffff168373ffffffffffffffffffffffffffffffffffffffff16145b15610527576001905061052c565b600090505b92915050565b61053a610a3f565b73ffffffffffffffffffffffffffffffffffffffff166105586107ea565b73ffffffffffffffffffffffffffffffffffffffff16146105ae576040517f08c379a00000000000000000000000000000000000000000000000000000000081526004016105a590611392565b60405180910390fd5b6105b88282610a47565b5050565b6105c4610a3f565b73ffffffffffffffffffffffffffffffffffffffff166105e26107ea565b73ffffffffffffffffffffffffffffffffffffffff1614610638576040517f08c379a000000000000000000000000000000000000000000000000000000000815260040161062f90611392565b60405180910390fd5b6106426000610b70565b565b61064c610a3f565b73ffffffffffffffffffffffffffffffffffffffff1661066a6107ea565b73ffffffffffffffffffffffffffffffffffffffff16146106c0576040517f08c379a00000000000000000000000000000000000000000000000000000000081526004016106b790611392565b60405180910390fd5b600115156001836040516106d491906115df565b908152602001604051809103902060000160009054906101000a900460ff16151514610735576040517f08c379a000000000000000000000000000000000000000000000000000000000815260040161072c90611668565b60405180910390fd5b60005b81518110156107e557600060018460405161075391906115df565b9081526020016040518091039020600101600084848151811061077957610778611688565b5b602002602001015173ffffffffffffffffffffffffffffffffffffffff1673ffffffffffffffffffffffffffffffffffffffff16815260200190815260200160002060006101000a81548160ff02191690831515021790555080806107dd90611442565b915050610738565b505050565b60008060009054906101000a900473ffffffffffffffffffffffffffffffffffffffff16905090565b6002602052806000526040600020600091509050806000018054610836906113e1565b80601f0160208091040260200160405190810160405280929190818152602001828054610862906113e1565b80156108af5780601f10610884576101008083540402835291602001916108af565b820191906000526020600020905b81548152906001019060200180831161089257829003601f168201915b5050505050908060020180546108c4906113e1565b80601f01602080910402602001604051908101604052809291908181526020018280546108f0906113e1565b801561093d5780601f106109125761010080835404028352916020019161093d565b820191906000526020600020905b81548152906001019060200180831161092057829003601f168201915b5050505050905082565b61094f610a3f565b73ffffffffffffffffffffffffffffffffffffffff1661096d6107ea565b73ffffffffffffffffffffffffffffffffffffffff16146109c3576040517f08c379a00000000000000000000000000000000000000000000000000000000081526004016109ba90611392565b60405180910390fd5b600073ffffffffffffffffffffffffffffffffffffffff168173ffffffffffffffffffffffffffffffffffffffff161415610a33576040517f08c379a0000000000000000000000000000000000000000000000000000000008152600401610a2a90611729565b60405180910390fd5b610a3c81610b70565b50565b600033905090565b60001515600183604051610a5b91906115df565b908152602001604051809103902060000160009054906101000a900460ff1615151415610abc5760018083604051610a9391906115df565b908152602001604051809103902060000160006101000a81548160ff0219169083151502179055505b60005b8151811015610b6b5760018084604051610ad991906115df565b90815260200160405180910390206001016000848481518110610aff57610afe611688565b5b602002602001015173ffffffffffffffffffffffffffffffffffffffff1673ffffffffffffffffffffffffffffffffffffffff16815260200190815260200160002060006101000a81548160ff0219169083151502179055508080610b6390611442565b915050610abf565b505050565b60008060009054906101000a900473ffffffffffffffffffffffffffffffffffffffff169050816000806101000a81548173ffffffffffffffffffffffffffffffffffffffff021916908373ffffffffffffffffffffffffffffffffffffffff1602179055508173ffffffffffffffffffffffffffffffffffffffff168173ffffffffffffffffffffffffffffffffffffffff167f8be0079c531659141344cd1fd0a4f28419497f9722a3daafe3b4186f6b6457e060405160405180910390a35050565b828054610c40906113e1565b90600052602060002090601f016020900481019282610c625760008555610ca9565b82601f10610c7b57805160ff1916838001178555610ca9565b82800160010185558215610ca9579182015b82811115610ca8578251825591602001919060010190610c8d565b5b509050610cb69190610d44565b5090565b828054828255906000526020600020908101928215610d33579160200282015b82811115610d325782518260006101000a81548173ffffffffffffffffffffffffffffffffffffffff021916908373ffffffffffffffffffffffffffffffffffffffff16021790555091602001919060010190610cda565b5b509050610d409190610d44565b5090565b5b80821115610d5d576000816000905550600101610d45565b5090565b6000819050919050565b610d7481610d61565b82525050565b6000602082019050610d8f6000830184610d6b565b92915050565b6000604051905090565b600080fd5b600080fd5b610db281610d61565b8114610dbd57600080fd5b50565b600081359050610dcf81610da9565b92915050565b600060208284031215610deb57610dea610d9f565b5b6000610df984828501610dc0565b91505092915050565b600080fd5b600080fd5b6000601f19601f8301169050919050565b7f4e487b7100000000000000000000000000000000000000000000000000000000600052604160045260246000fd5b610e5582610e0c565b810181811067ffffffffffffffff82111715610e7457610e73610e1d565b5b80604052505050565b6000610e87610d95565b9050610e938282610e4c565b919050565b600067ffffffffffffffff821115610eb357610eb2610e1d565b5b610ebc82610e0c565b9050602081019050919050565b82818337600083830152505050565b6000610eeb610ee684610e98565b610e7d565b905082815260208101848484011115610f0757610f06610e07565b5b610f12848285610ec9565b509392505050565b600082601f830112610f2f57610f2e610e02565b5b8135610f3f848260208601610ed8565b91505092915050565b600067ffffffffffffffff821115610f6357610f62610e1d565b5b602082029050602081019050919050565b600080fd5b600073ffffffffffffffffffffffffffffffffffffffff82169050919050565b6000610fa482610f79565b9050919050565b610fb481610f99565b8114610fbf57600080fd5b50565b600081359050610fd181610fab565b92915050565b6000610fea610fe584610f48565b610e7d565b9050808382526020820190506020840283018581111561100d5761100c610f74565b5b835b8181101561103657806110228882610fc2565b84526020840193505060208101905061100f565b5050509392505050565b600082601f83011261105557611054610e02565b5b8135611065848260208601610fd7565b91505092915050565b60008060006060848603121561108757611086610d9f565b5b600084013567ffffffffffffffff8111156110a5576110a4610da4565b5b6110b186828701610f1a565b935050602084013567ffffffffffffffff8111156110d2576110d1610da4565b5b6110de86828701611040565b925050604084013567ffffffffffffffff8111156110ff576110fe610da4565b5b61110b86828701610f1a565b9150509250925092565b6000806040838503121561112c5761112b610d9f565b5b600061113a85828601610fc2565b925050602083013567ffffffffffffffff81111561115b5761115a610da4565b5b61116785828601610f1a565b9150509250929050565b60008115159050919050565b61118681611171565b82525050565b60006020820190506111a1600083018461117d565b92915050565b600080604083850312156111be576111bd610d9f565b5b600083013567ffffffffffffffff8111156111dc576111db610da4565b5b6111e885828601610f1a565b925050602083013567ffffffffffffffff81111561120957611208610da4565b5b61121585828601611040565b9150509250929050565b61122881610f99565b82525050565b6000602082019050611243600083018461121f565b92915050565b600081519050919050565b600082825260208201905092915050565b60005b83811015611283578082015181840152602081019050611268565b83811115611292576000848401525b50505050565b60006112a382611249565b6112ad8185611254565b93506112bd818560208601611265565b6112c681610e0c565b840191505092915050565b600060408201905081810360008301526112eb8185611298565b905081810360208301526112ff8184611298565b90509392505050565b60006020828403121561131e5761131d610d9f565b5b600061132c84828501610fc2565b91505092915050565b600082825260208201905092915050565b7f4f776e61626c653a2063616c6c6572206973206e6f7420746865206f776e6572600082015250565b600061137c602083611335565b915061138782611346565b602082019050919050565b600060208201905081810360008301526113ab8161136f565b9050919050565b7f4e487b7100000000000000000000000000000000000000000000000000000000600052602260045260246000fd5b600060028204905060018216806113f957607f821691505b6020821081141561140d5761140c6113b2565b5b50919050565b7f4e487b7100000000000000000000000000000000000000000000000000000000600052601160045260246000fd5b600061144d82610d61565b91507fffffffffffffffffffffffffffffffffffffffffffffffffffffffffffffffff8214156114805761147f611413565b5b600182019050919050565b600081519050919050565b600082825260208201905092915050565b6000819050602082019050919050565b6114c081610f99565b82525050565b60006114d283836114b7565b60208301905092915050565b6000602082019050919050565b60006114f68261148b565b6115008185611496565b935061150b836114a7565b8060005b8381101561153c57815161152388826114c6565b975061152e836114de565b92505060018101905061150f565b5085935050505092915050565b600060808201905061155e6000830187610d6b565b81810360208301526115708186611298565b9050818103604083015261158481856114eb565b905081810360608301526115988184611298565b905095945050505050565b600081905092915050565b60006115b982611249565b6115c381856115a3565b93506115d3818560208601611265565b80840191505092915050565b60006115eb82846115ae565b915081905092915050565b7f446174614f776e6572436f6e74726163743a2064617461206964206e6f74206360008201527f6f72726563740000000000000000000000000000000000000000000000000000602082015250565b6000611652602683611335565b915061165d826115f6565b604082019050919050565b6000602082019050818103600083015261168181611645565b9050919050565b7f4e487b7100000000000000000000000000000000000000000000000000000000600052603260045260246000fd5b7f4f776e61626c653a206e6577206f776e657220697320746865207a65726f206160008201527f6464726573730000000000000000000000000000000000000000000000000000602082015250565b6000611713602683611335565b915061171e826116b7565b604082019050919050565b6000602082019050818103600083015261174281611706565b905091905056fea2646970667358221220714e998b6186a5bea21e42b38bea727d6b845634239282daeae91d9fb2f3441064736f6c634300080c0033",
  "immutableReferences": {},
  "source": "// SPDX-License-Identifier: MIT\n\npragma solidity ^0.8.0;\n\nimport \"@openzeppelin/contracts/access/Ownable.sol\";\n\n/**\n * @dev Enables a Data Owner to maintaing an Access Control List for\n * managing access to the data\n */\ncontract DataOwnerContract is Ownable {\n    // Access Control List structure\n    struct ACL {\n        bool created;\n        mapping(address => bool) allowed;\n    }\n\n    // Request structure\n    struct Request {\n        bytes dataId;\n        address[] users;\n        bytes request;\n    }\n\n    // Access Control List\n    mapping(bytes => ACL) _data;\n\n    // Requests for granting access\n    mapping(uint256 => Request) public _requests;\n\n    // Number of Requests\n    uint256 public _numRequests;\n\n    /**\n     * Event for an access granted\n     */\n    event AccessGranted(uint256 amount);\n\n    /**\n     * Event for a new request made\n     */\n    event NewRequest(\n        uint256 requestId,\n        bytes dataId,\n        address[] users,\n        bytes request\n    );\n\n    /**\n     * @dev Creates a request to grant access to id_ to users_\n     * with a reason request_\n     */\n    function requestAccess(\n        bytes memory id_,\n        address[] memory users_,\n        bytes memory request_\n    ) public returns (uint256 requestId) {\n        requestId = _numRequests++;\n        Request storage r = _requests[requestId];\n        r.dataId = id_;\n        r.users = users_;\n        r.request = request_;\n\n        emit NewRequest(requestId, id_, users_, request_);\n    }\n\n    /**\n     * @dev Grants access to r.dataId to r.users where r is a\n     * request with id requestId_\n     */\n    function grantAccessRequest(uint256 requestId_) public onlyOwner {\n        Request storage r = _requests[requestId_];\n        _grantAccess(r.dataId, r.users);\n    }\n\n    /**\n     * @dev Grants access to id_ to users_\n     */\n    function grantAccess(bytes memory id_, address[] memory users_)\n        public\n        onlyOwner\n    {\n        _grantAccess(id_, users_);\n    }\n\n    /**\n     * @dev Revokes access to id_ to users_\n     */\n    function revokeAccess(bytes memory id_, address[] memory users_)\n        public\n        onlyOwner\n    {\n        require(\n            _data[id_].created == true,\n            \"DataOwnerContract: data id not correct\"\n        );\n\n        for (uint256 i = 0; i < users_.length; i++) {\n            _data[id_].allowed[users_[i]] = false;\n        }\n    }\n\n    /**\n     * @dev Internal function to grant access to id_ to users_\n     */\n    function _grantAccess(bytes memory id_, address[] memory users_) internal {\n        if (_data[id_].created == false) _data[id_].created = true;\n\n        for (uint256 i = 0; i < users_.length; i++) {\n            _data[id_].allowed[users_[i]] = true;\n        }\n    }\n\n    /**\n     * @dev Check if user_ is allowed to access id_\n     */\n    function checkPermissions(address user_, bytes memory id_)\n        public\n        view\n        returns (bool)\n    {\n        if (_data[id_].allowed[user_] == true || user_ == owner()) return true;\n        return false;\n    }\n}\n",
  "sourcePath": "/home/miker/workspace/decentralized-auth/k-dao/contracts/DataOwnerContract.sol",
  "compiler": {
    "name": "solc",
    "version": "0.8.12+commit.f00d7308.Emscripten.clang"
  },
  "schemaVersion": "3.4.5",
  "updatedAt": "2022-05-05T14:38:54.067Z",
  "networkType": "ethereum",
  "devdoc": {
    "details": "Enables a Data Owner to maintaing an Access Control List for managing access to the data",
    "kind": "dev",
    "methods": {
      "checkPermissions(address,bytes)": {
        "details": "Check if user_ is allowed to access id_"
      },
      "grantAccess(bytes,address[])": {
        "details": "Grants access to id_ to users_"
      },
      "grantAccessRequest(uint256)": {
        "details": "Grants access to r.dataId to r.users where r is a request with id requestId_"
      },
      "owner()": {
        "details": "Returns the address of the current owner."
      },
      "renounceOwnership()": {
        "details": "Leaves the contract without owner. It will not be possible to call `onlyOwner` functions anymore. Can only be called by the current owner. NOTE: Renouncing ownership will leave the contract without an owner, thereby removing any functionality that is only available to the owner."
      },
      "requestAccess(bytes,address[],bytes)": {
        "details": "Creates a request to grant access to id_ to users_ with a reason request_"
      },
      "revokeAccess(bytes,address[])": {
        "details": "Revokes access to id_ to users_"
      },
      "transferOwnership(address)": {
        "details": "Transfers ownership of the contract to a new account (`newOwner`). Can only be called by the current owner."
      }
    },
    "version": 1
  },
  "userdoc": {
    "events": {
      "AccessGranted(uint256)": {
        "notice": "Event for an access granted"
      },
      "NewRequest(uint256,bytes,address[],bytes)": {
        "notice": "Event for a new request made"
      }
    },
    "kind": "user",
    "methods": {},
    "version": 1
  }
}