{
  "contractName": "kDaO",
  "abi": [
    {
      "anonymous": false,
      "inputs": [
        {
          "indexed": false,
          "internalType": "uint256",
          "name": "proposalID",
          "type": "uint256"
        },
        {
          "indexed": false,
          "internalType": "string",
          "name": "metadata",
          "type": "string"
        },
        {
          "indexed": false,
          "internalType": "uint256",
          "name": "executionDate",
          "type": "uint256"
        }
      ],
      "name": "ProposalAdded",
      "type": "event"
    },
    {
      "anonymous": false,
      "inputs": [
        {
          "indexed": false,
          "internalType": "uint256",
          "name": "proposalID",
          "type": "uint256"
        },
        {
          "indexed": false,
          "internalType": "bool",
          "name": "proposalPassed",
          "type": "bool"
        },
        {
          "indexed": false,
          "internalType": "uint256",
          "name": "finalResult",
          "type": "uint256"
        }
      ],
      "name": "ProposalExecuted",
      "type": "event"
    },
    {
      "anonymous": false,
      "inputs": [
        {
          "indexed": false,
          "internalType": "uint256",
          "name": "proposalID",
          "type": "uint256"
        },
        {
          "indexed": false,
          "internalType": "uint256",
          "name": "suggestionID",
          "type": "uint256"
        },
        {
          "indexed": false,
          "internalType": "address",
          "name": "advisor",
          "type": "address"
        },
        {
          "indexed": false,
          "internalType": "string",
          "name": "metadata",
          "type": "string"
        }
      ],
      "name": "SuggestionAdded",
      "type": "event"
    },
    {
      "anonymous": false,
      "inputs": [
        {
          "indexed": false,
          "internalType": "uint256",
          "name": "proposalID",
          "type": "uint256"
        },
        {
          "indexed": false,
          "internalType": "uint256",
          "name": "oldSuggestionID",
          "type": "uint256"
        },
        {
          "indexed": false,
          "internalType": "uint256",
          "name": "newSuggestionID",
          "type": "uint256"
        },
        {
          "indexed": false,
          "internalType": "address",
          "name": "voter",
          "type": "address"
        },
        {
          "indexed": false,
          "internalType": "uint256",
          "name": "voteWeight",
          "type": "uint256"
        }
      ],
      "name": "VoteChanged",
      "type": "event"
    },
    {
      "anonymous": false,
      "inputs": [
        {
          "indexed": false,
          "internalType": "uint256",
          "name": "proposalID",
          "type": "uint256"
        },
        {
          "indexed": false,
          "internalType": "uint256",
          "name": "suggestionID",
          "type": "uint256"
        },
        {
          "indexed": false,
          "internalType": "address",
          "name": "voter",
          "type": "address"
        },
        {
          "indexed": false,
          "internalType": "uint256",
          "name": "voteWeight",
          "type": "uint256"
        }
      ],
      "name": "Voted",
      "type": "event"
    },
    {
      "inputs": [],
      "name": "_aggregator",
      "outputs": [
        {
          "internalType": "address",
          "name": "",
          "type": "address"
        }
      ],
      "stateMutability": "view",
      "type": "function",
      "constant": true
    },
    {
      "inputs": [],
      "name": "_erc20token",
      "outputs": [
        {
          "internalType": "address",
          "name": "",
          "type": "address"
        }
      ],
      "stateMutability": "view",
      "type": "function",
      "constant": true
    },
    {
      "inputs": [
        {
          "internalType": "uint256",
          "name": "",
          "type": "uint256"
        }
      ],
      "name": "_members",
      "outputs": [
        {
          "internalType": "address",
          "name": "",
          "type": "address"
        }
      ],
      "stateMutability": "view",
      "type": "function",
      "constant": true
    },
    {
      "inputs": [],
      "name": "_minDebatingPeriod",
      "outputs": [
        {
          "internalType": "uint256",
          "name": "",
          "type": "uint256"
        }
      ],
      "stateMutability": "view",
      "type": "function",
      "constant": true
    },
    {
      "inputs": [],
      "name": "_minDifferenceLockPeriod",
      "outputs": [
        {
          "internalType": "uint256",
          "name": "",
          "type": "uint256"
        }
      ],
      "stateMutability": "view",
      "type": "function",
      "constant": true
    },
    {
      "inputs": [],
      "name": "_minQuorum",
      "outputs": [
        {
          "internalType": "uint256",
          "name": "",
          "type": "uint256"
        }
      ],
      "stateMutability": "view",
      "type": "function",
      "constant": true
    },
    {
      "inputs": [],
      "name": "_numProposals",
      "outputs": [
        {
          "internalType": "uint256",
          "name": "",
          "type": "uint256"
        }
      ],
      "stateMutability": "view",
      "type": "function",
      "constant": true
    },
    {
      "inputs": [
        {
          "internalType": "uint256",
          "name": "",
          "type": "uint256"
        }
      ],
      "name": "_proposals",
      "outputs": [
        {
          "internalType": "string",
          "name": "metadata",
          "type": "string"
        },
        {
          "internalType": "uint256",
          "name": "executionDate",
          "type": "uint256"
        },
        {
          "internalType": "uint256",
          "name": "quorum",
          "type": "uint256"
        },
        {
          "internalType": "uint256",
          "name": "numSuggestions",
          "type": "uint256"
        },
        {
          "internalType": "bool",
          "name": "executed",
          "type": "bool"
        },
        {
          "internalType": "bool",
          "name": "proposalPassed",
          "type": "bool"
        },
        {
          "internalType": "bool",
          "name": "locked",
          "type": "bool"
        },
        {
          "internalType": "uint256",
          "name": "finalResult",
          "type": "uint256"
        }
      ],
      "stateMutability": "view",
      "type": "function",
      "constant": true
    },
    {
      "inputs": [],
      "name": "_releaseDate",
      "outputs": [
        {
          "internalType": "uint256",
          "name": "",
          "type": "uint256"
        }
      ],
      "stateMutability": "view",
      "type": "function",
      "constant": true
    },
    {
      "inputs": [],
      "name": "_tokenTimelocks",
      "outputs": [
        {
          "internalType": "address",
          "name": "",
          "type": "address"
        }
      ],
      "stateMutability": "view",
      "type": "function",
      "constant": true
    },
    {
      "inputs": [
        {
          "internalType": "address",
          "name": "ERC20token",
          "type": "address"
        },
        {
          "internalType": "address[]",
          "name": "members",
          "type": "address[]"
        },
        {
          "internalType": "address",
          "name": "aggregator",
          "type": "address"
        },
        {
          "internalType": "uint256",
          "name": "releaseDate",
          "type": "uint256"
        },
        {
          "internalType": "address",
          "name": "tokenTimelockProxy",
          "type": "address"
        },
        {
          "internalType": "uint256",
          "name": "minimumQuorumForProposals",
          "type": "uint256"
        },
        {
          "internalType": "uint256",
          "name": "minTimeForDebate",
          "type": "uint256"
        },
        {
          "internalType": "uint256",
          "name": "minDifferenceLockPeriod_",
          "type": "uint256"
        }
      ],
      "name": "initialize",
      "outputs": [],
      "stateMutability": "nonpayable",
      "type": "function"
    },
    {
      "inputs": [
        {
          "internalType": "string",
          "name": "metadata",
          "type": "string"
        },
        {
          "internalType": "uint256",
          "name": "debatingPeriod",
          "type": "uint256"
        },
        {
          "internalType": "uint256",
          "name": "quorum",
          "type": "uint256"
        }
      ],
      "name": "submitRefundProposal",
      "outputs": [
        {
          "internalType": "uint256",
          "name": "proposalID",
          "type": "uint256"
        }
      ],
      "stateMutability": "nonpayable",
      "type": "function"
    },
    {
      "inputs": [
        {
          "internalType": "uint256",
          "name": "proposalID",
          "type": "uint256"
        }
      ],
      "name": "executeRefundProposal",
      "outputs": [],
      "stateMutability": "nonpayable",
      "type": "function"
    },
    {
      "inputs": [],
      "name": "releaseFundsToAggregator",
      "outputs": [],
      "stateMutability": "nonpayable",
      "type": "function"
    },
    {
      "inputs": [
        {
          "internalType": "string",
          "name": "metadata",
          "type": "string"
        },
        {
          "internalType": "uint256",
          "name": "debatingPeriod",
          "type": "uint256"
        },
        {
          "internalType": "uint256",
          "name": "quorum",
          "type": "uint256"
        }
      ],
      "name": "submitProposal",
      "outputs": [
        {
          "internalType": "uint256",
          "name": "proposalID",
          "type": "uint256"
        }
      ],
      "stateMutability": "nonpayable",
      "type": "function"
    },
    {
      "inputs": [
        {
          "internalType": "uint256",
          "name": "proposalID",
          "type": "uint256"
        },
        {
          "internalType": "string",
          "name": "metadata",
          "type": "string"
        }
      ],
      "name": "submitSuggestion",
      "outputs": [
        {
          "internalType": "uint256",
          "name": "suggestionID",
          "type": "uint256"
        }
      ],
      "stateMutability": "nonpayable",
      "type": "function"
    },
    {
      "inputs": [
        {
          "internalType": "uint256",
          "name": "proposalID",
          "type": "uint256"
        },
        {
          "internalType": "uint256",
          "name": "suggestionID",
          "type": "uint256"
        }
      ],
      "name": "vote",
      "outputs": [
        {
          "internalType": "uint256",
          "name": "voteID",
          "type": "uint256"
        }
      ],
      "stateMutability": "nonpayable",
      "type": "function"
    },
    {
      "inputs": [
        {
          "internalType": "uint256",
          "name": "proposalID",
          "type": "uint256"
        },
        {
          "internalType": "uint256",
          "name": "newSuggestionID",
          "type": "uint256"
        }
      ],
      "name": "changeVote",
      "outputs": [
        {
          "internalType": "uint256",
          "name": "voteID",
          "type": "uint256"
        }
      ],
      "stateMutability": "nonpayable",
      "type": "function"
    },
    {
      "inputs": [
        {
          "internalType": "uint256",
          "name": "proposalID",
          "type": "uint256"
        }
      ],
      "name": "executeProposal",
      "outputs": [],
      "stateMutability": "nonpayable",
      "type": "function"
    },
    {
      "inputs": [
        {
          "internalType": "address",
          "name": "locker",
          "type": "address"
        },
        {
          "internalType": "uint256",
          "name": "minDate",
          "type": "uint256"
        }
      ],
      "name": "checkLockedTokens",
      "outputs": [
        {
          "internalType": "uint256",
          "name": "",
          "type": "uint256"
        }
      ],
      "stateMutability": "view",
      "type": "function",
      "constant": true
    },
    {
      "inputs": [
        {
          "internalType": "uint256",
          "name": "proposalID",
          "type": "uint256"
        }
      ],
      "name": "isExecuted",
      "outputs": [
        {
          "internalType": "bool",
          "name": "",
          "type": "bool"
        }
      ],
      "stateMutability": "view",
      "type": "function",
      "constant": true
    },
    {
      "inputs": [
        {
          "internalType": "uint256",
          "name": "proposalID",
          "type": "uint256"
        }
      ],
      "name": "getProposalFinalResult",
      "outputs": [
        {
          "internalType": "uint256",
          "name": "",
          "type": "uint256"
        }
      ],
      "stateMutability": "view",
      "type": "function",
      "constant": true
    },
    {
      "inputs": [
        {
          "internalType": "uint256",
          "name": "proposalID",
          "type": "uint256"
        }
      ],
      "name": "getProposalMetadata",
      "outputs": [
        {
          "internalType": "string",
          "name": "",
          "type": "string"
        }
      ],
      "stateMutability": "view",
      "type": "function",
      "constant": true
    },
    {
      "inputs": [
        {
          "internalType": "uint256",
          "name": "proposalID",
          "type": "uint256"
        },
        {
          "internalType": "uint256",
          "name": "suggestionID",
          "type": "uint256"
        }
      ],
      "name": "getProposalSuggestionMetadata",
      "outputs": [
        {
          "internalType": "string",
          "name": "",
          "type": "string"
        }
      ],
      "stateMutability": "view",
      "type": "function",
      "constant": true
    },
    {
      "inputs": [
        {
          "internalType": "uint256",
          "name": "proposalID",
          "type": "uint256"
        }
      ],
      "name": "numberOfProposalSuggestions",
      "outputs": [
        {
          "internalType": "uint256",
          "name": "",
          "type": "uint256"
        }
      ],
      "stateMutability": "view",
      "type": "function",
      "constant": true
    },
    {
      "inputs": [
        {
          "internalType": "uint256",
          "name": "proposalID",
          "type": "uint256"
        },
        {
          "internalType": "uint256",
          "name": "suggestionID",
          "type": "uint256"
        }
      ],
      "name": "getProposalSuggestionVotes",
      "outputs": [
        {
          "internalType": "uint256",
          "name": "",
          "type": "uint256"
        }
      ],
      "stateMutability": "view",
      "type": "function",
      "constant": true
    },
    {
      "inputs": [
        {
          "internalType": "uint256",
          "name": "proposalID",
          "type": "uint256"
        },
        {
          "internalType": "uint256",
          "name": "suggestionID",
          "type": "uint256"
        }
      ],
      "name": "getProposalSuggestionVotesQuantity",
      "outputs": [
        {
          "internalType": "uint256",
          "name": "",
          "type": "uint256"
        }
      ],
      "stateMutability": "view",
      "type": "function",
      "constant": true
    },
    {
      "inputs": [
        {
          "internalType": "address",
          "name": "account",
          "type": "address"
        },
        {
          "internalType": "uint256",
          "name": "proposalID",
          "type": "uint256"
        },
        {
          "internalType": "uint256",
          "name": "suggestionID",
          "type": "uint256"
        }
      ],
      "name": "hasVotedFor",
      "outputs": [
        {
          "internalType": "bool",
          "name": "",
          "type": "bool"
        }
      ],
      "stateMutability": "view",
      "type": "function",
      "constant": true
    }
  ],
  "bytecode": "0x608060405234801561001057600080fd5b506131a5806100206000396000f3fe608060405234801561001057600080fd5b50600436106101c45760003560e01c80639c699efd116100f9578063cf8f9e0c11610097578063eb9b983811610071578063eb9b983814610570578063ee1c3f36146105a0578063f0ded290146105d0578063f9f0e8bb14610600576101c4565b8063cf8f9e0c146104f2578063d7df4b8114610522578063e38908b914610552576101c4565b8063a6b39cdd116100d3578063a6b39cdd14610444578063a9593b9814610474578063b384abef146104a4578063c0cfb007146104d4576101c4565b80639c699efd146103c6578063a1848c98146103f6578063a449750e14610426576101c4565b80634621a5f7116101665780635fa18185116101405780635fa18185146103185780636f23b1aa1461034857806376a6bf52146103785780639411c94d146103a8576101c4565b80634621a5f7146102be5780634b8e31a2146102dc57806352e1491c146102fa576101c4565b80632e569fd2116101a25780632e569fd21461024c5780632f4af071146102685780633b9ed07e146102725780633cf87dfc1461028e576101c4565b80630a494840146101c95780630d61b5191461020057806323fcff231461021c575b600080fd5b6101e360048036038101906101de9190612141565b61061e565b6040516101f7989796959493929190612231565b60405180910390f35b61021a60048036038101906102159190612141565b610715565b005b610236600480360381019061023191906122b6565b6108d5565b60405161024391906122f6565b60405180910390f35b61026660048036038101906102619190612141565b61093e565b005b6102706109c2565b005b61028c600480360381019061028791906124b7565b6109db565b005b6102a860048036038101906102a39190612141565b610ad7565b6040516102b59190612598565b60405180910390f35b6102c6610b16565b6040516102d391906122f6565b60405180910390f35b6102e4610b1c565b6040516102f19190612598565b60405180910390f35b610302610b42565b60405161030f9190612598565b60405180910390f35b610332600480360381019061032d9190612668565b610b68565b60405161033f91906122f6565b60405180910390f35b610362600480360381019061035d91906122b6565b610d74565b60405161036f91906126c4565b60405180910390f35b610392600480360381019061038d9190612141565b610e65565b60405161039f91906126e6565b60405180910390f35b6103b0610ea0565b6040516103bd91906122f6565b60405180910390f35b6103e060048036038101906103db9190612701565b610ea6565b6040516103ed91906126e6565b60405180910390f35b610410600480360381019061040b91906122b6565b610f3e565b60405161041d91906122f6565b60405180910390f35b61042e610fa7565b60405161043b91906122f6565b60405180910390f35b61045e60048036038101906104599190612754565b610fad565b60405161046b91906122f6565b60405180910390f35b61048e600480360381019061048991906122b6565b611141565b60405161049b91906122f6565b60405180910390f35b6104be60048036038101906104b991906122b6565b6114dc565b6040516104cb91906122f6565b60405180910390f35b6104dc611723565b6040516104e99190612598565b60405180910390f35b61050c60048036038101906105079190612141565b611749565b60405161051991906122f6565b60405180910390f35b61053c60048036038101906105379190612754565b6117bf565b60405161054991906122f6565b60405180910390f35b61055a6118a9565b60405161056791906122f6565b60405180910390f35b61058a60048036038101906105859190612141565b6118af565b60405161059791906126c4565b60405180910390f35b6105ba60048036038101906105b59190612141565b611965565b6040516105c791906122f6565b60405180910390f35b6105ea60048036038101906105e591906127c3565b611993565b6040516105f791906122f6565b60405180910390f35b610608611ab8565b60405161061591906122f6565b60405180910390f35b600860205280600052604060002060009150905080600001805461064190612832565b80601f016020809104026020016040519081016040528092919081815260200182805461066d90612832565b80156106ba5780601f1061068f576101008083540402835291602001916106ba565b820191906000526020600020905b81548152906001019060200180831161069d57829003601f168201915b5050505050908060010154908060020154908060040154908060060160009054906101000a900460ff16908060060160019054906101000a900460ff16908060060160029054906101000a900460ff16908060070154905088565b600954811061072357600080fd5b60006008600083815260200190815260200160002090508060060160009054906101000a900460ff1615801561075d575080600101544210155b61076657600080fd5b60018160060160006101000a81548160ff0219169083151502179055506000808260030160008381526020019081526020016000206004015490506000600190505b83600401548110156108295783600301600082815260200190815260200160002060040154826107d89190612893565b915083600301600084815260200190815260200160002060040154846003016000838152602001908152602001600020600401541115610816578092505b8080610821906128e9565b9150506107a8565b5082600201548111156108615760018360060160016101000a81548160ff02191690831515021790555081836007018190555061087f565b60008360060160016101000a81548160ff0219169083151502179055505b7fec8f304a675f7bb10c5d3eb44ea2444dd65a0da66105763bd6b5bb98aa1461db848460060160019054906101000a900460ff1685600701546040516108c793929190612932565b60405180910390a150505050565b6000828260095482106108e757600080fd5b6008600083815260200190815260200160002060040154811061090957600080fd5b600860008681526020019081526020016000206003016000858152602001908152602001600020600301549250505092915050565b600954811061094c57600080fd5b6000600860008381526020019081526020016000209050600115158160060160029054906101000a900460ff1615151461098557600080fd5b61098e82610715565b8060060160019054906101000a900460ff1680156109b0575060008160070154145b156109be576109bd611abe565b5b5050565b6003544210156109d157600080fd5b6109d9611c79565b565b600060019054906101000a900460ff16610a035760008054906101000a900460ff1615610a0c565b610a0b611dde565b5b610a4b576040517f08c379a0000000000000000000000000000000000000000000000000000000008152600401610a42906129db565b60405180910390fd5b60008060019054906101000a900460ff161590508015610a9b576001600060016101000a81548160ff02191690831515021790555060016000806101000a81548160ff0219169083151502179055505b610aab8989898989898989611def565b8015610acc5760008060016101000a81548160ff0219169083151502179055505b505050505050505050565b60018181548110610ae757600080fd5b906000526020600020016000915054906101000a900473ffffffffffffffffffffffffffffffffffffffff1681565b60065481565b600060029054906101000a900473ffffffffffffffffffffffffffffffffffffffff1681565b600260009054906101000a900473ffffffffffffffffffffffffffffffffffffffff1681565b60006009548310610bae576040517f08c379a0000000000000000000000000000000000000000000000000000000008152600401610ba590612a47565b60405180910390fd5b60006008600085815260200190815260200160002090508060060160029054906101000a900460ff16158015610bf357508060060160009054906101000a900460ff16155b8015610c03575080600101544211155b610c42576040517f08c379a0000000000000000000000000000000000000000000000000000000008152600401610c3990612ad9565b60405180910390fd5b6000610c5f336007548460010154610c5a9190612893565b611993565b11610c9f576040517f08c379a0000000000000000000000000000000000000000000000000000000008152600401610c9690612b45565b60405180910390fd5b806004016000815480929190610cb4906128e9565b91905055915060008160030160008481526020019081526020016000209050338160000160006101000a81548173ffffffffffffffffffffffffffffffffffffffff021916908373ffffffffffffffffffffffffffffffffffffffff16021790555083816001019080519060200190610d2e929190611fca565b507f8df6b99f30e761ca43c468a8a06f7a952076821bb5f8b40ed108d3116216aa0c85843387604051610d649493929190612b65565b60405180910390a1505092915050565b606082826009548210610d8657600080fd5b60086000838152602001908152602001600020600401548110610da857600080fd5b6008600086815260200190815260200160002060030160008581526020019081526020016000206001018054610ddd90612832565b80601f0160208091040260200160405190810160405280929190818152602001828054610e0990612832565b8015610e565780601f10610e2b57610100808354040283529160200191610e56565b820191906000526020600020905b815481529060010190602001808311610e3957829003601f168201915b50505050509250505092915050565b60006009548210610e7557600080fd5b6008600083815260200190815260200160002060060160009054906101000a900460ff169050919050565b60035481565b600082826009548210610eb857600080fd5b60086000838152602001908152602001600020600401548110610eda57600080fd5b836008600087815260200190815260200160002060050160008873ffffffffffffffffffffffffffffffffffffffff1673ffffffffffffffffffffffffffffffffffffffff1681526020019081526020016000206001015414925050509392505050565b600082826009548210610f5057600080fd5b60086000838152602001908152602001600020600401548110610f7257600080fd5b600860008681526020019081526020016000206003016000858152602001908152602001600020600401549250505092915050565b60075481565b6000600654831015610ff4576040517f08c379a0000000000000000000000000000000000000000000000000000000008152600401610feb90612c23565b60405180910390fd5b600554821015611039576040517f08c379a000000000000000000000000000000000000000000000000000000000815260040161103090612c8f565b60405180910390fd5b600083426110479190612893565b90506000611062336007548461105d9190612893565b611993565b116110a2576040517f08c379a000000000000000000000000000000000000000000000000000000000815260040161109990612b45565b60405180910390fd5b600960008154809291906110b5906128e9565b9190505591506000600860008481526020019081526020016000209050858160000190805190602001906110ea929190611fca565b508181600101819055508381600201819055507f961208aa3e528e7624367220a862d58a9483ed782d8bc03c42f558d85e9c1ec883878460405161113093929190612caf565b60405180910390a150509392505050565b6000600954831061115157600080fd5b60006008600085815260200190815260200160002090508060060160009054906101000a900460ff1615801561118b575080600101544211155b61119457600080fd5b60006111b13360075484600101546111ac9190612893565b611993565b9050600081116111f6576040517f08c379a00000000000000000000000000000000000000000000000000000000081526004016111ed90612b45565b60405180910390fd5b60008260050160003373ffffffffffffffffffffffffffffffffffffffff1673ffffffffffffffffffffffffffffffffffffffff16815260200190815260200160002090508060000160009054906101000a900460ff1661125657600080fd5b848160010154141561126757600080fd5b8260040154851061127757600080fd5b60008160010154905085826001018190555060008460030160008381526020019081526020016000209050600085600301600089815260200190815260200160002090506000846002015490506001836003015411156113c0576000836002016000600186600301546112ea9190612ced565b815260200190815260200160002060009054906101000a900473ffffffffffffffffffffffffffffffffffffffff1690508084600201600084815260200190815260200160002060006101000a81548173ffffffffffffffffffffffffffffffffffffffff021916908373ffffffffffffffffffffffffffffffffffffffff16021790555060008860050160008373ffffffffffffffffffffffffffffffffffffffff1673ffffffffffffffffffffffffffffffffffffffff168152602001908152602001600020905082816002018190555050505b8260030160008154809291906113d590612d21565b9190505550858360040160008282546113ee9190612ced565b9250508190555081600301600081548092919061140a906128e9565b919050558560020181905550338260020160008760020154815260200190815260200160002060006101000a81548173ffffffffffffffffffffffffffffffffffffffff021916908373ffffffffffffffffffffffffffffffffffffffff160217905550858260040160008282546114829190612893565b925050819055507f52799e0a041002398f2dbc39d845f710f7fed55292c3e6ae29e30a3c751df1f58a858b338a6040516114c0959493929190612d4b565b60405180910390a1846002015497505050505050505092915050565b600060095483106114ec57600080fd5b60006008600085815260200190815260200160002090508060060160009054906101000a900460ff16158015611526575080600101544211155b61152f57600080fd5b600061154c3360075484600101546115479190612893565b611993565b905060008111611591576040517f08c379a000000000000000000000000000000000000000000000000000000000815260040161158890612b45565b60405180910390fd5b60008260050160003373ffffffffffffffffffffffffffffffffffffffff1673ffffffffffffffffffffffffffffffffffffffff16815260200190815260200160002090508060000160009054906101000a900460ff16156115f257600080fd5b8260040154851061160257600080fd5b6000836003016000878152602001908152602001600020905060018260000160006101000a81548160ff021916908315150217905550858260010181905550806003016000815480929190611656906128e9565b919050558260020181905550338160020160008460020154815260200190815260200160002060006101000a81548173ffffffffffffffffffffffffffffffffffffffff021916908373ffffffffffffffffffffffffffffffffffffffff160217905550828160040160008282546116ce9190612893565b925050819055507f41df84b3b467b06744e40c92613c666324e7c640ce0a41ec06efdf602d3676068787338660405161170a9493929190612d9e565b60405180910390a1816002015494505050505092915050565b600460009054906101000a900473ffffffffffffffffffffffffffffffffffffffff1681565b6000600954821061175957600080fd5b61176282610e65565b6117a1576040517f08c379a000000000000000000000000000000000000000000000000000000000815260040161179890612e2f565b60405180910390fd5b60086000838152602001908152602001600020600701549050919050565b60008083426117ce9190612893565b90506003548111156117df57600080fd5b6117ea858585610fad565b915061182b826040518060400160405280600681526020017f726566756e640000000000000000000000000000000000000000000000000000815250610b68565b5061186b826040518060400160405280600a81526020017f6e6f742d726566756e6400000000000000000000000000000000000000000000815250610b68565b50600060086000848152602001908152602001600020905060018160060160026101000a81548160ff02191690831515021790555050509392505050565b60055481565b606060095482106118bf57600080fd5b6008600083815260200190815260200160002060000180546118e090612832565b80601f016020809104026020016040519081016040528092919081815260200182805461190c90612832565b80156119595780601f1061192e57610100808354040283529160200191611959565b820191906000526020600020905b81548152906001019060200180831161193c57829003601f168201915b50505050509050919050565b6000600954821061197557600080fd5b60086000838152602001908152602001600020600401549050919050565b60008060009050600080600460009054906101000a900473ffffffffffffffffffffffffffffffffffffffff1673ffffffffffffffffffffffffffffffffffffffff166354bb83c1876040518263ffffffff1660e01b81526004016119f89190612598565b600060405180830381865afa158015611a15573d6000803e3d6000fd5b505050506040513d6000823e3d601f19601f82011682018060405250810190611a3e9190612f27565b9150915060005b8251811015611aab5785838281518110611a6257611a61612f9f565b5b602002602001015110611a9857818181518110611a8257611a81612f9f565b5b602002602001015184611a959190612893565b93505b8080611aa3906128e9565b915050611a45565b5082935050505092915050565b60095481565b60008060029054906101000a900473ffffffffffffffffffffffffffffffffffffffff1673ffffffffffffffffffffffffffffffffffffffff166370a08231306040518263ffffffff1660e01b8152600401611b1a9190612598565b602060405180830381865afa158015611b37573d6000803e3d6000fd5b505050506040513d601f19601f82011682018060405250810190611b5b9190612fce565b9050600060018054905082611b70919061302a565b905060005b600180549050811015611c7457600060029054906101000a900473ffffffffffffffffffffffffffffffffffffffff1673ffffffffffffffffffffffffffffffffffffffff1663a9059cbb60018381548110611bd457611bd3612f9f565b5b9060005260206000200160009054906101000a900473ffffffffffffffffffffffffffffffffffffffff16846040518363ffffffff1660e01b8152600401611c1d92919061305b565b6020604051808303816000875af1158015611c3c573d6000803e3d6000fd5b505050506040513d601f19601f82011682018060405250810190611c6091906130b0565b508080611c6c906128e9565b915050611b75565b505050565b60008060029054906101000a900473ffffffffffffffffffffffffffffffffffffffff1673ffffffffffffffffffffffffffffffffffffffff166370a08231306040518263ffffffff1660e01b8152600401611cd59190612598565b602060405180830381865afa158015611cf2573d6000803e3d6000fd5b505050506040513d601f19601f82011682018060405250810190611d169190612fce565b9050600060029054906101000a900473ffffffffffffffffffffffffffffffffffffffff1673ffffffffffffffffffffffffffffffffffffffff1663a9059cbb600260009054906101000a900473ffffffffffffffffffffffffffffffffffffffff16836040518363ffffffff1660e01b8152600401611d9792919061305b565b6020604051808303816000875af1158015611db6573d6000803e3d6000fd5b505050506040513d601f19601f82011682018060405250810190611dda91906130b0565b5050565b6000611de930611e58565b15905090565b600060019054906101000a900460ff16611e3e576040517f08c379a0000000000000000000000000000000000000000000000000000000008152600401611e359061314f565b60405180910390fd5b611e4e8888888888888888611e7b565b5050505050505050565b6000808273ffffffffffffffffffffffffffffffffffffffff163b119050919050565b600060019054906101000a900460ff16611eca576040517f08c379a0000000000000000000000000000000000000000000000000000000008152600401611ec19061314f565b60405180910390fd5b87600060026101000a81548173ffffffffffffffffffffffffffffffffffffffff021916908373ffffffffffffffffffffffffffffffffffffffff1602179055508660019080519060200190611f21929190612050565b508460038190555085600260006101000a81548173ffffffffffffffffffffffffffffffffffffffff021916908373ffffffffffffffffffffffffffffffffffffffff16021790555083600460006101000a81548173ffffffffffffffffffffffffffffffffffffffff021916908373ffffffffffffffffffffffffffffffffffffffff1602179055508260058190555081600681905550806007819055505050505050505050565b828054611fd690612832565b90600052602060002090601f016020900481019282611ff8576000855561203f565b82601f1061201157805160ff191683800117855561203f565b8280016001018555821561203f579182015b8281111561203e578251825591602001919060010190612023565b5b50905061204c91906120da565b5090565b8280548282559060005260206000209081019282156120c9579160200282015b828111156120c85782518260006101000a81548173ffffffffffffffffffffffffffffffffffffffff021916908373ffffffffffffffffffffffffffffffffffffffff16021790555091602001919060010190612070565b5b5090506120d691906120da565b5090565b5b808211156120f35760008160009055506001016120db565b5090565b6000604051905090565b600080fd5b600080fd5b6000819050919050565b61211e8161210b565b811461212957600080fd5b50565b60008135905061213b81612115565b92915050565b60006020828403121561215757612156612101565b5b60006121658482850161212c565b91505092915050565b600081519050919050565b600082825260208201905092915050565b60005b838110156121a857808201518184015260208101905061218d565b838111156121b7576000848401525b50505050565b6000601f19601f8301169050919050565b60006121d98261216e565b6121e38185612179565b93506121f381856020860161218a565b6121fc816121bd565b840191505092915050565b6122108161210b565b82525050565b60008115159050919050565b61222b81612216565b82525050565b600061010082019050818103600083015261224c818b6121ce565b905061225b602083018a612207565b6122686040830189612207565b6122756060830188612207565b6122826080830187612222565b61228f60a0830186612222565b61229c60c0830185612222565b6122a960e0830184612207565b9998505050505050505050565b600080604083850312156122cd576122cc612101565b5b60006122db8582860161212c565b92505060206122ec8582860161212c565b9150509250929050565b600060208201905061230b6000830184612207565b92915050565b600073ffffffffffffffffffffffffffffffffffffffff82169050919050565b600061233c82612311565b9050919050565b61234c81612331565b811461235757600080fd5b50565b60008135905061236981612343565b92915050565b600080fd5b7f4e487b7100000000000000000000000000000000000000000000000000000000600052604160045260246000fd5b6123ac826121bd565b810181811067ffffffffffffffff821117156123cb576123ca612374565b5b80604052505050565b60006123de6120f7565b90506123ea82826123a3565b919050565b600067ffffffffffffffff82111561240a57612409612374565b5b602082029050602081019050919050565b600080fd5b600061243361242e846123ef565b6123d4565b905080838252602082019050602084028301858111156124565761245561241b565b5b835b8181101561247f578061246b888261235a565b845260208401935050602081019050612458565b5050509392505050565b600082601f83011261249e5761249d61236f565b5b81356124ae848260208601612420565b91505092915050565b600080600080600080600080610100898b0312156124d8576124d7612101565b5b60006124e68b828c0161235a565b985050602089013567ffffffffffffffff81111561250757612506612106565b5b6125138b828c01612489565b97505060406125248b828c0161235a565b96505060606125358b828c0161212c565b95505060806125468b828c0161235a565b94505060a06125578b828c0161212c565b93505060c06125688b828c0161212c565b92505060e06125798b828c0161212c565b9150509295985092959890939650565b61259281612331565b82525050565b60006020820190506125ad6000830184612589565b92915050565b600080fd5b600067ffffffffffffffff8211156125d3576125d2612374565b5b6125dc826121bd565b9050602081019050919050565b82818337600083830152505050565b600061260b612606846125b8565b6123d4565b905082815260208101848484011115612627576126266125b3565b5b6126328482856125e9565b509392505050565b600082601f83011261264f5761264e61236f565b5b813561265f8482602086016125f8565b91505092915050565b6000806040838503121561267f5761267e612101565b5b600061268d8582860161212c565b925050602083013567ffffffffffffffff8111156126ae576126ad612106565b5b6126ba8582860161263a565b9150509250929050565b600060208201905081810360008301526126de81846121ce565b905092915050565b60006020820190506126fb6000830184612222565b92915050565b60008060006060848603121561271a57612719612101565b5b60006127288682870161235a565b93505060206127398682870161212c565b925050604061274a8682870161212c565b9150509250925092565b60008060006060848603121561276d5761276c612101565b5b600084013567ffffffffffffffff81111561278b5761278a612106565b5b6127978682870161263a565b93505060206127a88682870161212c565b92505060406127b98682870161212c565b9150509250925092565b600080604083850312156127da576127d9612101565b5b60006127e88582860161235a565b92505060206127f98582860161212c565b9150509250929050565b7f4e487b7100000000000000000000000000000000000000000000000000000000600052602260045260246000fd5b6000600282049050600182168061284a57607f821691505b6020821081141561285e5761285d612803565b5b50919050565b7f4e487b7100000000000000000000000000000000000000000000000000000000600052601160045260246000fd5b600061289e8261210b565b91506128a98361210b565b9250827fffffffffffffffffffffffffffffffffffffffffffffffffffffffffffffffff038211156128de576128dd612864565b5b828201905092915050565b60006128f48261210b565b91507fffffffffffffffffffffffffffffffffffffffffffffffffffffffffffffffff82141561292757612926612864565b5b600182019050919050565b60006060820190506129476000830186612207565b6129546020830185612222565b6129616040830184612207565b949350505050565b7f496e697469616c697a61626c653a20636f6e747261637420697320616c72656160008201527f647920696e697469616c697a6564000000000000000000000000000000000000602082015250565b60006129c5602e83612179565b91506129d082612969565b604082019050919050565b600060208201905081810360008301526129f4816129b8565b9050919050565b7f57726f6e6720726f706f73616c20696400000000000000000000000000000000600082015250565b6000612a31601083612179565b9150612a3c826129fb565b602082019050919050565b60006020820190508181036000830152612a6081612a24565b9050919050565b7f50726f706f73616c206578656375746564206f7220746f20626520657865637560008201527f7465640000000000000000000000000000000000000000000000000000000000602082015250565b6000612ac3602383612179565b9150612ace82612a67565b604082019050919050565b60006020820190508181036000830152612af281612ab6565b9050919050565b7f4e6f7420656e6f75676820746f6b656e73206c6f636b65640000000000000000600082015250565b6000612b2f601883612179565b9150612b3a82612af9565b602082019050919050565b60006020820190508181036000830152612b5e81612b22565b9050919050565b6000608082019050612b7a6000830187612207565b612b876020830186612207565b612b946040830185612589565b8181036060830152612ba681846121ce565b905095945050505050565b7f4c657373207468616e20746865206d696e696d756d206465626174696e67207060008201527f6572696f64000000000000000000000000000000000000000000000000000000602082015250565b6000612c0d602583612179565b9150612c1882612bb1565b604082019050919050565b60006020820190508181036000830152612c3c81612c00565b9050919050565b7f4c657373207468616e20746865206d696e696d756d2071756f72756d00000000600082015250565b6000612c79601c83612179565b9150612c8482612c43565b602082019050919050565b60006020820190508181036000830152612ca881612c6c565b9050919050565b6000606082019050612cc46000830186612207565b8181036020830152612cd681856121ce565b9050612ce56040830184612207565b949350505050565b6000612cf88261210b565b9150612d038361210b565b925082821015612d1657612d15612864565b5b828203905092915050565b6000612d2c8261210b565b91506000821415612d4057612d3f612864565b5b600182039050919050565b600060a082019050612d606000830188612207565b612d6d6020830187612207565b612d7a6040830186612207565b612d876060830185612589565b612d946080830184612207565b9695505050505050565b6000608082019050612db36000830187612207565b612dc06020830186612207565b612dcd6040830185612589565b612dda6060830184612207565b95945050505050565b7f50726f706f73616c206e6f742079657420657865637574656400000000000000600082015250565b6000612e19601983612179565b9150612e2482612de3565b602082019050919050565b60006020820190508181036000830152612e4881612e0c565b9050919050565b600067ffffffffffffffff821115612e6a57612e69612374565b5b602082029050602081019050919050565b600081519050612e8a81612115565b92915050565b6000612ea3612e9e84612e4f565b6123d4565b90508083825260208201905060208402830185811115612ec657612ec561241b565b5b835b81811015612eef5780612edb8882612e7b565b845260208401935050602081019050612ec8565b5050509392505050565b600082601f830112612f0e57612f0d61236f565b5b8151612f1e848260208601612e90565b91505092915050565b60008060408385031215612f3e57612f3d612101565b5b600083015167ffffffffffffffff811115612f5c57612f5b612106565b5b612f6885828601612ef9565b925050602083015167ffffffffffffffff811115612f8957612f88612106565b5b612f9585828601612ef9565b9150509250929050565b7f4e487b7100000000000000000000000000000000000000000000000000000000600052603260045260246000fd5b600060208284031215612fe457612fe3612101565b5b6000612ff284828501612e7b565b91505092915050565b7f4e487b7100000000000000000000000000000000000000000000000000000000600052601260045260246000fd5b60006130358261210b565b91506130408361210b565b9250826130505761304f612ffb565b5b828204905092915050565b60006040820190506130706000830185612589565b61307d6020830184612207565b9392505050565b61308d81612216565b811461309857600080fd5b50565b6000815190506130aa81613084565b92915050565b6000602082840312156130c6576130c5612101565b5b60006130d48482850161309b565b91505092915050565b7f496e697469616c697a61626c653a20636f6e7472616374206973206e6f74206960008201527f6e697469616c697a696e67000000000000000000000000000000000000000000602082015250565b6000613139602b83612179565b9150613144826130dd565b604082019050919050565b600060208201905081810360008301526131688161312c565b905091905056fea2646970667358221220491fee7d84b876b131448418bc4bdff6f9f89be1376aaccc4e2180c3c179ceaf64736f6c634300080c0033",
  "immutableReferences": {},
  "source": "// SPDX-License-Identifier: MIT\n\npragma solidity ^0.8.0;\n\nimport \"./TokenTimelockProxy.sol\";\n\n/**\n * @dev kDaO contract\n */\ncontract kDaO is Initializable {\n    // Token used by the DAO\n    address public _erc20token;\n\n    // The DAO's members\n    address[] public _members;\n\n    // The DAO's aggregator\n    address public _aggregator;\n\n    // The aggregator's funds release date\n    uint256 public _releaseDate;\n\n    // The contract used for votes weights\n    address public _tokenTimelocks;\n\n    // The number of votes quantity able to validate a proposal\n    uint256 public _minQuorum;\n\n    // Minimum time before execution\n    uint256 public _minDebatingPeriod;\n\n    // Minimum time difference between a lock time and a debate execution\n    uint256 public _minDifferenceLockPeriod;\n\n    // List of Proposals for Artifact generated by assignee\n    mapping(uint256 => Proposal) public _proposals;\n\n    // Number of Proposals\n    uint256 public _numProposals;\n\n    /**\n     * Structure used to manipulate a proposal\n     */\n    struct Proposal {\n        string metadata;\n        uint256 executionDate;\n        uint256 quorum;\n        mapping(uint256 => Suggestion) suggestions;\n        uint256 numSuggestions;\n        mapping(address => Vote) votes;\n        bool executed;\n        bool proposalPassed;\n        bool locked;\n        uint256 finalResult;\n    }\n\n    /**\n     * Structure used to manipulate a suggestion\n     */\n    struct Suggestion {\n        address advisor;\n        string metadata;\n        mapping(uint256 => address) votes;\n        uint256 numVotes;\n        uint256 votesQuantity;\n    }\n\n    /**\n     * Structure used to manipulate a vote of a single member\n     */\n    struct Vote {\n        bool voted;\n        uint256 suggestionID;\n        uint256 voteID;\n    }\n\n    /**\n     * Event for a proposal added\n     */\n    event ProposalAdded(\n        uint256 proposalID,\n        string metadata,\n        uint256 executionDate\n    );\n\n    /**\n     * Event for a suggestion added\n     */\n    event SuggestionAdded(\n        uint256 proposalID,\n        uint256 suggestionID,\n        address advisor,\n        string metadata\n    );\n\n    /**\n     * Event for a vote\n     */\n    event Voted(\n        uint256 proposalID,\n        uint256 suggestionID,\n        address voter,\n        uint256 voteWeight\n    );\n\n    /**\n     * Event for a vote changed\n     */\n    event VoteChanged(\n        uint256 proposalID,\n        uint256 oldSuggestionID,\n        uint256 newSuggestionID,\n        address voter,\n        uint256 voteWeight\n    );\n\n    /**\n     * Event for an execution\n     */\n    event ProposalExecuted(\n        uint256 proposalID,\n        bool proposalPassed,\n        uint256 finalResult\n    );\n\n    /**\n     * @dev Modifier to allow only operating with existing suggestion\n     */\n    modifier suggestionExists(uint256 proposalID, uint256 suggestionID) {\n        require(proposalID < _numProposals);\n        require(suggestionID < _proposals[proposalID].numSuggestions);\n        _;\n    }\n\n    /**\n     * @dev init DAO\n     *\n     * @param tokenTimelockProxy Address of the token timelock proxy used for weight\n     * @param minimumQuorumForProposals Number used to validate a vote in the execution\n     * @param minTimeForDebate minimum time required before execution\n     */\n    function __kDaO_init(\n        address ERC20token,\n        address[] memory members,\n        address aggregator,\n        uint256 releaseDate,\n        address tokenTimelockProxy,\n        uint256 minimumQuorumForProposals,\n        uint256 minTimeForDebate,\n        uint256 minDifferenceLockPeriod_\n    ) internal onlyInitializing {\n        __kDaO_init_unchained(\n            ERC20token,\n            members,\n            aggregator,\n            releaseDate,\n            tokenTimelockProxy,\n            minimumQuorumForProposals,\n            minTimeForDebate,\n            minDifferenceLockPeriod_\n        );\n    }\n\n    function __kDaO_init_unchained(\n        address ERC20token,\n        address[] memory members,\n        address aggregator,\n        uint256 releaseDate,\n        address tokenTimelockProxy,\n        uint256 minimumQuorumForProposals,\n        uint256 minTimeForDebate,\n        uint256 minDifferenceLockPeriod_\n    ) internal onlyInitializing {\n        _erc20token = ERC20token;\n        _members = members;\n        _releaseDate = releaseDate;\n        _aggregator = aggregator;\n        _tokenTimelocks = tokenTimelockProxy;\n        _minQuorum = minimumQuorumForProposals;\n        _minDebatingPeriod = minTimeForDebate;\n        _minDifferenceLockPeriod = minDifferenceLockPeriod_;\n    }\n\n    function initialize(\n        address ERC20token,\n        address[] memory members,\n        address aggregator,\n        uint256 releaseDate,\n        address tokenTimelockProxy,\n        uint256 minimumQuorumForProposals,\n        uint256 minTimeForDebate,\n        uint256 minDifferenceLockPeriod_\n    ) public initializer {\n        __kDaO_init(\n            ERC20token,\n            members,\n            aggregator,\n            releaseDate,\n            tokenTimelockProxy,\n            minimumQuorumForProposals,\n            minTimeForDebate,\n            minDifferenceLockPeriod_\n        );\n    }\n\n    /**\n     * @dev Add Refund Proposal\n     */\n    function submitRefundProposal(\n        string memory metadata,\n        uint256 debatingPeriod,\n        uint256 quorum\n    ) public returns (uint256 proposalID) {\n        uint256 executionDate = block.timestamp + debatingPeriod;\n        require(executionDate <= _releaseDate);\n        proposalID = submitProposal(metadata, debatingPeriod, quorum);\n        submitSuggestion(proposalID, \"refund\");\n        submitSuggestion(proposalID, \"not-refund\");\n        Proposal storage p = _proposals[proposalID];\n        p.locked = true;\n    }\n\n    /**\n     * @dev Execute proposal and enact result\n     */\n    function executeRefundProposal(uint256 proposalID) public {\n        require(proposalID < _numProposals);\n        Proposal storage p = _proposals[proposalID];\n        require(p.locked == true); //check that is refund type\n\n        executeProposal(proposalID);\n\n        if (p.proposalPassed && p.finalResult == 0) {\n            _transferFundsToMembers();\n        }\n    }\n\n    /**\n     * @dev Execute proposal and enact result\n     */\n    function releaseFundsToAggregator() public {\n        require(block.timestamp >= _releaseDate);\n\n        _transferFundsToAggregator();\n    }\n\n    /**\n     * @dev Add Proposal\n     */\n    function submitProposal(\n        string memory metadata,\n        uint256 debatingPeriod,\n        uint256 quorum\n    ) public returns (uint256 proposalID) {\n        require(\n            debatingPeriod >= _minDebatingPeriod,\n            \"Less than the minimum debating period\"\n        );\n        require(quorum >= _minQuorum, \"Less than the minimum quorum\");\n        uint256 executionDate = block.timestamp + debatingPeriod;\n        require(\n            checkLockedTokens(\n                msg.sender,\n                executionDate + _minDifferenceLockPeriod\n            ) > 0,\n            \"Not enough tokens locked\"\n        );\n\n        proposalID = _numProposals++;\n        Proposal storage p = _proposals[proposalID];\n        p.metadata = metadata;\n        p.executionDate = executionDate;\n        p.quorum = quorum;\n\n        emit ProposalAdded(proposalID, metadata, executionDate);\n\n        return proposalID;\n    }\n\n    /**\n     * @dev Add Suggestion\n     */\n    function submitSuggestion(uint256 proposalID, string memory metadata)\n        public\n        returns (uint256 suggestionID)\n    {\n        require(proposalID < _numProposals, \"Wrong roposal id\");\n        Proposal storage p = _proposals[proposalID];\n        require(\n            !p.locked && !p.executed && block.timestamp <= p.executionDate,\n            \"Proposal executed or to be executed\"\n        );\n        require(\n            checkLockedTokens(\n                msg.sender,\n                p.executionDate + _minDifferenceLockPeriod\n            ) > 0,\n            \"Not enough tokens locked\"\n        );\n\n        suggestionID = p.numSuggestions++;\n        Suggestion storage s = p.suggestions[suggestionID];\n        s.advisor = msg.sender;\n        s.metadata = metadata;\n\n        emit SuggestionAdded(proposalID, suggestionID, msg.sender, metadata);\n\n        return suggestionID;\n    }\n\n    /**\n     * @dev Log a vote for a proposal\n     */\n    function vote(uint256 proposalID, uint256 suggestionID)\n        public\n        returns (uint256 voteID)\n    {\n        require(proposalID < _numProposals);\n        Proposal storage p = _proposals[proposalID];\n        require(!p.executed && block.timestamp <= p.executionDate);\n        uint256 voteWeigth = checkLockedTokens(\n            msg.sender,\n            p.executionDate + _minDifferenceLockPeriod\n        );\n        require(voteWeigth > 0, \"Not enough tokens locked\");\n        Vote storage v = p.votes[msg.sender];\n        require(!v.voted);\n        require(suggestionID < p.numSuggestions);\n\n        Suggestion storage s = p.suggestions[suggestionID];\n        v.voted = true;\n        v.suggestionID = suggestionID;\n        v.voteID = s.numVotes++;\n        s.votes[v.voteID] = msg.sender;\n        s.votesQuantity += voteWeigth;\n\n        emit Voted(proposalID, suggestionID, msg.sender, voteWeigth);\n\n        return v.voteID;\n    }\n\n    /**\n     * @dev Change vote for a proposal\n     */\n    function changeVote(uint256 proposalID, uint256 newSuggestionID)\n        public\n        returns (uint256 voteID)\n    {\n        require(proposalID < _numProposals);\n        Proposal storage p = _proposals[proposalID];\n        require(!p.executed && block.timestamp <= p.executionDate);\n        uint256 voteWeigth = checkLockedTokens(\n            msg.sender,\n            p.executionDate + _minDifferenceLockPeriod\n        );\n        require(voteWeigth > 0, \"Not enough tokens locked\");\n        Vote storage v = p.votes[msg.sender];\n        require(v.voted);\n        require(v.suggestionID != newSuggestionID);\n        require(newSuggestionID < p.numSuggestions);\n\n        uint256 oldSuggestionID = v.suggestionID;\n        v.suggestionID = newSuggestionID;\n        Suggestion storage oldSuggestion = p.suggestions[oldSuggestionID];\n        Suggestion storage newSuggestion = p.suggestions[newSuggestionID];\n\n        uint256 index = v.voteID;\n        if (oldSuggestion.numVotes > 1) {\n            address last = oldSuggestion.votes[oldSuggestion.numVotes - 1];\n            oldSuggestion.votes[index] = last;\n            Vote storage vLast = p.votes[last];\n            vLast.voteID = index;\n        }\n        oldSuggestion.numVotes--;\n        oldSuggestion.votesQuantity -= voteWeigth;\n\n        v.voteID = newSuggestion.numVotes++;\n        newSuggestion.votes[v.voteID] = msg.sender;\n        newSuggestion.votesQuantity += voteWeigth;\n\n        emit VoteChanged(\n            proposalID,\n            oldSuggestionID,\n            newSuggestionID,\n            msg.sender,\n            voteWeigth\n        );\n\n        return v.voteID;\n    }\n\n    /**\n     * @dev Finish vote, count the votes proposal and execute\n     */\n    function executeProposal(uint256 proposalID) public {\n        require(proposalID < _numProposals);\n        Proposal storage p = _proposals[proposalID];\n        require(!p.executed && block.timestamp >= p.executionDate);\n\n        p.executed = true;\n        uint256 tmpMax = 0;\n        uint256 tmpTotal = p.suggestions[tmpMax].votesQuantity;\n        for (uint256 i = 1; i < p.numSuggestions; i++) {\n            tmpTotal += p.suggestions[i].votesQuantity;\n            if (\n                p.suggestions[i].votesQuantity >\n                p.suggestions[tmpMax].votesQuantity\n            ) {\n                tmpMax = i;\n            }\n        }\n\n        if (tmpTotal > p.quorum) {\n            p.proposalPassed = true;\n            p.finalResult = tmpMax;\n        } else {\n            p.proposalPassed = false;\n        }\n\n        emit ProposalExecuted(proposalID, p.proposalPassed, p.finalResult);\n    }\n\n    function _transferFundsToMembers() private {\n        uint256 totAmount = IERC20Upgradeable(_erc20token).balanceOf(\n            address(this)\n        );\n        uint256 amount = totAmount / _members.length;\n        for (uint256 i = 0; i < _members.length; i++) {\n            IERC20Upgradeable(_erc20token).transfer(_members[i], amount);\n        }\n    }\n\n    function _transferFundsToAggregator() private {\n        uint256 totAmount = IERC20Upgradeable(_erc20token).balanceOf(\n            address(this)\n        );\n        IERC20Upgradeable(_erc20token).transfer(_aggregator, totAmount);\n    }\n\n    function checkLockedTokens(address locker, uint256 minDate)\n        public\n        view\n        returns (uint256)\n    {\n        uint256 lockedTokens = 0;\n        (\n            uint256[] memory releaseTimes,\n            uint256[] memory balances\n        ) = TokenTimelockProxy(_tokenTimelocks)\n                .checkLockerReleaseTimesAndBalances(locker);\n        for (uint256 i = 0; i < releaseTimes.length; i++) {\n            if (releaseTimes[i] >= minDate) {\n                lockedTokens += balances[i];\n            }\n        }\n        return lockedTokens;\n    }\n\n    /**\n     * @return true if a proposal is executed\n     */\n    function isExecuted(uint256 proposalID) public view returns (bool) {\n        require(proposalID < _numProposals);\n        return _proposals[proposalID].executed;\n    }\n\n    /**\n     * @return Get proposal final result\n     */\n    function getProposalFinalResult(uint256 proposalID)\n        public\n        view\n        returns (uint256)\n    {\n        require(proposalID < _numProposals);\n        require(isExecuted(proposalID), \"Proposal not yet executed\");\n\n        return _proposals[proposalID].finalResult;\n    }\n\n    /**\n     * @return Proposal metadata\n     */\n    function getProposalMetadata(uint256 proposalID)\n        public\n        view\n        returns (string memory)\n    {\n        require(proposalID < _numProposals);\n\n        return _proposals[proposalID].metadata;\n    }\n\n    /**\n     * @return Proposal suggestion metadata\n     */\n    function getProposalSuggestionMetadata(\n        uint256 proposalID,\n        uint256 suggestionID\n    )\n        public\n        view\n        suggestionExists(proposalID, suggestionID)\n        returns (string memory)\n    {\n        return _proposals[proposalID].suggestions[suggestionID].metadata;\n    }\n\n    /**\n     * @return Number of proposals suggestions\n     */\n    function numberOfProposalSuggestions(uint256 proposalID)\n        public\n        view\n        returns (uint256)\n    {\n        require(proposalID < _numProposals);\n        return _proposals[proposalID].numSuggestions;\n    }\n\n    /**\n     * @return Number of votes of proposal suggestion\n     */\n    function getProposalSuggestionVotes(\n        uint256 proposalID,\n        uint256 suggestionID\n    ) public view suggestionExists(proposalID, suggestionID) returns (uint256) {\n        return _proposals[proposalID].suggestions[suggestionID].numVotes;\n    }\n\n    /**\n     * @return Quantity of votes of proposal suggestion\n     */\n    function getProposalSuggestionVotesQuantity(\n        uint256 proposalID,\n        uint256 suggestionID\n    ) public view suggestionExists(proposalID, suggestionID) returns (uint256) {\n        return _proposals[proposalID].suggestions[suggestionID].votesQuantity;\n    }\n\n    /**\n     * @return true if account voted for suggestionID in proposalID\n     */\n    function hasVotedFor(\n        address account,\n        uint256 proposalID,\n        uint256 suggestionID\n    ) public view suggestionExists(proposalID, suggestionID) returns (bool) {\n        return\n            _proposals[proposalID].votes[account].suggestionID == suggestionID;\n    }\n}\n",
  "sourcePath": "/home/miker/workspace/decentralized-auth/k-dao/contracts/kDaO.sol",
  "compiler": {
    "name": "solc",
    "version": "0.8.12+commit.f00d7308.Emscripten.clang"
  },
  "schemaVersion": "3.4.5",
  "updatedAt": "2022-05-05T14:38:54.038Z",
  "networkType": "ethereum",
  "devdoc": {
    "details": "kDaO contract",
    "kind": "dev",
    "methods": {
      "changeVote(uint256,uint256)": {
        "details": "Change vote for a proposal"
      },
      "executeProposal(uint256)": {
        "details": "Finish vote, count the votes proposal and execute"
      },
      "executeRefundProposal(uint256)": {
        "details": "Execute proposal and enact result"
      },
      "getProposalFinalResult(uint256)": {
        "returns": {
          "_0": "Get proposal final result"
        }
      },
      "getProposalMetadata(uint256)": {
        "returns": {
          "_0": "Proposal metadata"
        }
      },
      "getProposalSuggestionMetadata(uint256,uint256)": {
        "returns": {
          "_0": "Proposal suggestion metadata"
        }
      },
      "getProposalSuggestionVotes(uint256,uint256)": {
        "returns": {
          "_0": "Number of votes of proposal suggestion"
        }
      },
      "getProposalSuggestionVotesQuantity(uint256,uint256)": {
        "returns": {
          "_0": "Quantity of votes of proposal suggestion"
        }
      },
      "hasVotedFor(address,uint256,uint256)": {
        "returns": {
          "_0": "true if account voted for suggestionID in proposalID"
        }
      },
      "isExecuted(uint256)": {
        "returns": {
          "_0": "true if a proposal is executed"
        }
      },
      "numberOfProposalSuggestions(uint256)": {
        "returns": {
          "_0": "Number of proposals suggestions"
        }
      },
      "releaseFundsToAggregator()": {
        "details": "Execute proposal and enact result"
      },
      "submitProposal(string,uint256,uint256)": {
        "details": "Add Proposal"
      },
      "submitRefundProposal(string,uint256,uint256)": {
        "details": "Add Refund Proposal"
      },
      "submitSuggestion(uint256,string)": {
        "details": "Add Suggestion"
      },
      "vote(uint256,uint256)": {
        "details": "Log a vote for a proposal"
      }
    },
    "version": 1
  },
  "userdoc": {
    "events": {
      "ProposalAdded(uint256,string,uint256)": {
        "notice": "Event for a proposal added"
      },
      "ProposalExecuted(uint256,bool,uint256)": {
        "notice": "Event for an execution"
      },
      "SuggestionAdded(uint256,uint256,address,string)": {
        "notice": "Event for a suggestion added"
      },
      "VoteChanged(uint256,uint256,uint256,address,uint256)": {
        "notice": "Event for a vote changed"
      },
      "Voted(uint256,uint256,address,uint256)": {
        "notice": "Event for a vote"
      }
    },
    "kind": "user",
    "methods": {},
    "version": 1
  }
}