{
  "contractName": "kDaO",
  "abi": [
    {
      "anonymous": false,
      "inputs": [
        {
          "indexed": false,
          "internalType": "uint8",
          "name": "version",
          "type": "uint8"
        }
      ],
      "name": "Initialized",
      "type": "event"
    },
    {
      "anonymous": false,
      "inputs": [
        {
          "indexed": false,
          "internalType": "uint256",
          "name": "proposalID",
          "type": "uint256"
        },
        {
          "indexed": false,
          "internalType": "string",
          "name": "metadata",
          "type": "string"
        },
        {
          "indexed": false,
          "internalType": "uint256",
          "name": "executionDate",
          "type": "uint256"
        }
      ],
      "name": "ProposalAdded",
      "type": "event"
    },
    {
      "anonymous": false,
      "inputs": [
        {
          "indexed": false,
          "internalType": "uint256",
          "name": "proposalID",
          "type": "uint256"
        },
        {
          "indexed": false,
          "internalType": "bool",
          "name": "proposalPassed",
          "type": "bool"
        },
        {
          "indexed": false,
          "internalType": "uint256",
          "name": "finalResult",
          "type": "uint256"
        }
      ],
      "name": "ProposalExecuted",
      "type": "event"
    },
    {
      "anonymous": false,
      "inputs": [
        {
          "indexed": false,
          "internalType": "uint256",
          "name": "proposalID",
          "type": "uint256"
        },
        {
          "indexed": false,
          "internalType": "uint256",
          "name": "suggestionID",
          "type": "uint256"
        },
        {
          "indexed": false,
          "internalType": "address",
          "name": "advisor",
          "type": "address"
        },
        {
          "indexed": false,
          "internalType": "string",
          "name": "metadata",
          "type": "string"
        }
      ],
      "name": "SuggestionAdded",
      "type": "event"
    },
    {
      "anonymous": false,
      "inputs": [
        {
          "indexed": false,
          "internalType": "uint256",
          "name": "proposalID",
          "type": "uint256"
        },
        {
          "indexed": false,
          "internalType": "uint256",
          "name": "oldSuggestionID",
          "type": "uint256"
        },
        {
          "indexed": false,
          "internalType": "uint256",
          "name": "newSuggestionID",
          "type": "uint256"
        },
        {
          "indexed": false,
          "internalType": "address",
          "name": "voter",
          "type": "address"
        },
        {
          "indexed": false,
          "internalType": "uint256",
          "name": "voteWeight",
          "type": "uint256"
        }
      ],
      "name": "VoteChanged",
      "type": "event"
    },
    {
      "anonymous": false,
      "inputs": [
        {
          "indexed": false,
          "internalType": "uint256",
          "name": "proposalID",
          "type": "uint256"
        },
        {
          "indexed": false,
          "internalType": "uint256",
          "name": "suggestionID",
          "type": "uint256"
        },
        {
          "indexed": false,
          "internalType": "address",
          "name": "voter",
          "type": "address"
        },
        {
          "indexed": false,
          "internalType": "uint256",
          "name": "voteWeight",
          "type": "uint256"
        }
      ],
      "name": "Voted",
      "type": "event"
    },
    {
      "inputs": [],
      "name": "_aggregator",
      "outputs": [
        {
          "internalType": "address",
          "name": "",
          "type": "address"
        }
      ],
      "stateMutability": "view",
      "type": "function",
      "constant": true
    },
    {
      "inputs": [],
      "name": "_erc20token",
      "outputs": [
        {
          "internalType": "address",
          "name": "",
          "type": "address"
        }
      ],
      "stateMutability": "view",
      "type": "function",
      "constant": true
    },
    {
      "inputs": [
        {
          "internalType": "uint256",
          "name": "",
          "type": "uint256"
        }
      ],
      "name": "_members",
      "outputs": [
        {
          "internalType": "address",
          "name": "",
          "type": "address"
        }
      ],
      "stateMutability": "view",
      "type": "function",
      "constant": true
    },
    {
      "inputs": [],
      "name": "_minDebatingPeriod",
      "outputs": [
        {
          "internalType": "uint256",
          "name": "",
          "type": "uint256"
        }
      ],
      "stateMutability": "view",
      "type": "function",
      "constant": true
    },
    {
      "inputs": [],
      "name": "_minDifferenceLockPeriod",
      "outputs": [
        {
          "internalType": "uint256",
          "name": "",
          "type": "uint256"
        }
      ],
      "stateMutability": "view",
      "type": "function",
      "constant": true
    },
    {
      "inputs": [],
      "name": "_minQuorum",
      "outputs": [
        {
          "internalType": "uint256",
          "name": "",
          "type": "uint256"
        }
      ],
      "stateMutability": "view",
      "type": "function",
      "constant": true
    },
    {
      "inputs": [],
      "name": "_numProposals",
      "outputs": [
        {
          "internalType": "uint256",
          "name": "",
          "type": "uint256"
        }
      ],
      "stateMutability": "view",
      "type": "function",
      "constant": true
    },
    {
      "inputs": [
        {
          "internalType": "uint256",
          "name": "",
          "type": "uint256"
        }
      ],
      "name": "_proposals",
      "outputs": [
        {
          "internalType": "string",
          "name": "metadata",
          "type": "string"
        },
        {
          "internalType": "uint256",
          "name": "executionDate",
          "type": "uint256"
        },
        {
          "internalType": "uint256",
          "name": "quorum",
          "type": "uint256"
        },
        {
          "internalType": "uint256",
          "name": "numSuggestions",
          "type": "uint256"
        },
        {
          "internalType": "bool",
          "name": "executed",
          "type": "bool"
        },
        {
          "internalType": "bool",
          "name": "proposalPassed",
          "type": "bool"
        },
        {
          "internalType": "bool",
          "name": "locked",
          "type": "bool"
        },
        {
          "internalType": "uint256",
          "name": "finalResult",
          "type": "uint256"
        }
      ],
      "stateMutability": "view",
      "type": "function",
      "constant": true
    },
    {
      "inputs": [],
      "name": "_releaseDate",
      "outputs": [
        {
          "internalType": "uint256",
          "name": "",
          "type": "uint256"
        }
      ],
      "stateMutability": "view",
      "type": "function",
      "constant": true
    },
    {
      "inputs": [],
      "name": "_tokenTimelocks",
      "outputs": [
        {
          "internalType": "address",
          "name": "",
          "type": "address"
        }
      ],
      "stateMutability": "view",
      "type": "function",
      "constant": true
    },
    {
      "inputs": [
        {
          "internalType": "address",
          "name": "ERC20token",
          "type": "address"
        },
        {
          "internalType": "address[]",
          "name": "members",
          "type": "address[]"
        },
        {
          "internalType": "address",
          "name": "aggregator",
          "type": "address"
        },
        {
          "internalType": "uint256",
          "name": "releaseDate",
          "type": "uint256"
        },
        {
          "internalType": "address",
          "name": "tokenTimelockProxy",
          "type": "address"
        },
        {
          "internalType": "uint256",
          "name": "minimumQuorumForProposals",
          "type": "uint256"
        },
        {
          "internalType": "uint256",
          "name": "minTimeForDebate",
          "type": "uint256"
        },
        {
          "internalType": "uint256",
          "name": "minDifferenceLockPeriod_",
          "type": "uint256"
        }
      ],
      "name": "initialize",
      "outputs": [],
      "stateMutability": "nonpayable",
      "type": "function"
    },
    {
      "inputs": [
        {
          "internalType": "string",
          "name": "metadata",
          "type": "string"
        },
        {
          "internalType": "uint256",
          "name": "debatingPeriod",
          "type": "uint256"
        },
        {
          "internalType": "uint256",
          "name": "quorum",
          "type": "uint256"
        }
      ],
      "name": "submitRefundProposal",
      "outputs": [
        {
          "internalType": "uint256",
          "name": "proposalID",
          "type": "uint256"
        }
      ],
      "stateMutability": "nonpayable",
      "type": "function"
    },
    {
      "inputs": [
        {
          "internalType": "uint256",
          "name": "proposalID",
          "type": "uint256"
        }
      ],
      "name": "executeRefundProposal",
      "outputs": [],
      "stateMutability": "nonpayable",
      "type": "function"
    },
    {
      "inputs": [],
      "name": "releaseFundsToAggregator",
      "outputs": [],
      "stateMutability": "nonpayable",
      "type": "function"
    },
    {
      "inputs": [
        {
          "internalType": "string",
          "name": "metadata",
          "type": "string"
        },
        {
          "internalType": "uint256",
          "name": "debatingPeriod",
          "type": "uint256"
        },
        {
          "internalType": "uint256",
          "name": "quorum",
          "type": "uint256"
        }
      ],
      "name": "submitProposal",
      "outputs": [
        {
          "internalType": "uint256",
          "name": "proposalID",
          "type": "uint256"
        }
      ],
      "stateMutability": "nonpayable",
      "type": "function"
    },
    {
      "inputs": [
        {
          "internalType": "uint256",
          "name": "proposalID",
          "type": "uint256"
        },
        {
          "internalType": "string",
          "name": "metadata",
          "type": "string"
        }
      ],
      "name": "submitSuggestion",
      "outputs": [
        {
          "internalType": "uint256",
          "name": "suggestionID",
          "type": "uint256"
        }
      ],
      "stateMutability": "nonpayable",
      "type": "function"
    },
    {
      "inputs": [
        {
          "internalType": "uint256",
          "name": "proposalID",
          "type": "uint256"
        },
        {
          "internalType": "uint256",
          "name": "suggestionID",
          "type": "uint256"
        }
      ],
      "name": "vote",
      "outputs": [
        {
          "internalType": "uint256",
          "name": "voteID",
          "type": "uint256"
        }
      ],
      "stateMutability": "nonpayable",
      "type": "function"
    },
    {
      "inputs": [
        {
          "internalType": "uint256",
          "name": "proposalID",
          "type": "uint256"
        },
        {
          "internalType": "uint256",
          "name": "newSuggestionID",
          "type": "uint256"
        }
      ],
      "name": "changeVote",
      "outputs": [
        {
          "internalType": "uint256",
          "name": "voteID",
          "type": "uint256"
        }
      ],
      "stateMutability": "nonpayable",
      "type": "function"
    },
    {
      "inputs": [
        {
          "internalType": "uint256",
          "name": "proposalID",
          "type": "uint256"
        }
      ],
      "name": "executeProposal",
      "outputs": [],
      "stateMutability": "nonpayable",
      "type": "function"
    },
    {
      "inputs": [
        {
          "internalType": "address",
          "name": "locker",
          "type": "address"
        },
        {
          "internalType": "uint256",
          "name": "minDate",
          "type": "uint256"
        }
      ],
      "name": "checkLockedTokens",
      "outputs": [
        {
          "internalType": "uint256",
          "name": "",
          "type": "uint256"
        }
      ],
      "stateMutability": "view",
      "type": "function",
      "constant": true
    },
    {
      "inputs": [
        {
          "internalType": "uint256",
          "name": "proposalID",
          "type": "uint256"
        }
      ],
      "name": "isExecuted",
      "outputs": [
        {
          "internalType": "bool",
          "name": "",
          "type": "bool"
        }
      ],
      "stateMutability": "view",
      "type": "function",
      "constant": true
    },
    {
      "inputs": [
        {
          "internalType": "uint256",
          "name": "proposalID",
          "type": "uint256"
        }
      ],
      "name": "getProposalFinalResult",
      "outputs": [
        {
          "internalType": "uint256",
          "name": "",
          "type": "uint256"
        }
      ],
      "stateMutability": "view",
      "type": "function",
      "constant": true
    },
    {
      "inputs": [
        {
          "internalType": "uint256",
          "name": "proposalID",
          "type": "uint256"
        }
      ],
      "name": "getProposalMetadata",
      "outputs": [
        {
          "internalType": "string",
          "name": "",
          "type": "string"
        }
      ],
      "stateMutability": "view",
      "type": "function",
      "constant": true
    },
    {
      "inputs": [
        {
          "internalType": "uint256",
          "name": "proposalID",
          "type": "uint256"
        },
        {
          "internalType": "uint256",
          "name": "suggestionID",
          "type": "uint256"
        }
      ],
      "name": "getProposalSuggestionMetadata",
      "outputs": [
        {
          "internalType": "string",
          "name": "",
          "type": "string"
        }
      ],
      "stateMutability": "view",
      "type": "function",
      "constant": true
    },
    {
      "inputs": [
        {
          "internalType": "uint256",
          "name": "proposalID",
          "type": "uint256"
        }
      ],
      "name": "numberOfProposalSuggestions",
      "outputs": [
        {
          "internalType": "uint256",
          "name": "",
          "type": "uint256"
        }
      ],
      "stateMutability": "view",
      "type": "function",
      "constant": true
    },
    {
      "inputs": [
        {
          "internalType": "uint256",
          "name": "proposalID",
          "type": "uint256"
        },
        {
          "internalType": "uint256",
          "name": "suggestionID",
          "type": "uint256"
        }
      ],
      "name": "getProposalSuggestionVotes",
      "outputs": [
        {
          "internalType": "uint256",
          "name": "",
          "type": "uint256"
        }
      ],
      "stateMutability": "view",
      "type": "function",
      "constant": true
    },
    {
      "inputs": [
        {
          "internalType": "uint256",
          "name": "proposalID",
          "type": "uint256"
        },
        {
          "internalType": "uint256",
          "name": "suggestionID",
          "type": "uint256"
        }
      ],
      "name": "getProposalSuggestionVotesQuantity",
      "outputs": [
        {
          "internalType": "uint256",
          "name": "",
          "type": "uint256"
        }
      ],
      "stateMutability": "view",
      "type": "function",
      "constant": true
    },
    {
      "inputs": [
        {
          "internalType": "address",
          "name": "account",
          "type": "address"
        },
        {
          "internalType": "uint256",
          "name": "proposalID",
          "type": "uint256"
        },
        {
          "internalType": "uint256",
          "name": "suggestionID",
          "type": "uint256"
        }
      ],
      "name": "hasVotedFor",
      "outputs": [
        {
          "internalType": "bool",
          "name": "",
          "type": "bool"
        }
      ],
      "stateMutability": "view",
      "type": "function",
      "constant": true
    }
  ],
  "bytecode": "0x608060405234801561001057600080fd5b50613299806100206000396000f3fe608060405234801561001057600080fd5b50600436106101c45760003560e01c80639c699efd116100f9578063cf8f9e0c11610097578063eb9b983811610071578063eb9b983814610570578063ee1c3f36146105a0578063f0ded290146105d0578063f9f0e8bb14610600576101c4565b8063cf8f9e0c146104f2578063d7df4b8114610522578063e38908b914610552576101c4565b8063a6b39cdd116100d3578063a6b39cdd14610444578063a9593b9814610474578063b384abef146104a4578063c0cfb007146104d4576101c4565b80639c699efd146103c6578063a1848c98146103f6578063a449750e14610426576101c4565b80634621a5f7116101665780635fa18185116101405780635fa18185146103185780636f23b1aa1461034857806376a6bf52146103785780639411c94d146103a8576101c4565b80634621a5f7146102be5780634b8e31a2146102dc57806352e1491c146102fa576101c4565b80632e569fd2116101a25780632e569fd21461024c5780632f4af071146102685780633b9ed07e146102725780633cf87dfc1461028e576101c4565b80630a494840146101c95780630d61b5191461020057806323fcff231461021c575b600080fd5b6101e360048036038101906101de91906121c8565b61061e565b6040516101f79897969594939291906122b8565b60405180910390f35b61021a600480360381019061021591906121c8565b610715565b005b6102366004803603810190610231919061233d565b6108d5565b604051610243919061237d565b60405180910390f35b610266600480360381019061026191906121c8565b61093e565b005b6102706109c2565b005b61028c6004803603810190610287919061253e565b6109db565b005b6102a860048036038101906102a391906121c8565b610a7f565b6040516102b5919061261f565b60405180910390f35b6102c6610abe565b6040516102d3919061237d565b60405180910390f35b6102e4610ac4565b6040516102f1919061261f565b60405180910390f35b610302610aea565b60405161030f919061261f565b60405180910390f35b610332600480360381019061032d91906126ef565b610b10565b60405161033f919061237d565b60405180910390f35b610362600480360381019061035d919061233d565b610d1c565b60405161036f919061274b565b60405180910390f35b610392600480360381019061038d91906121c8565b610e0d565b60405161039f919061276d565b60405180910390f35b6103b0610e48565b6040516103bd919061237d565b60405180910390f35b6103e060048036038101906103db9190612788565b610e4e565b6040516103ed919061276d565b60405180910390f35b610410600480360381019061040b919061233d565b610ee6565b60405161041d919061237d565b60405180910390f35b61042e610f4f565b60405161043b919061237d565b60405180910390f35b61045e600480360381019061045991906127db565b610f55565b60405161046b919061237d565b60405180910390f35b61048e6004803603810190610489919061233d565b6110e9565b60405161049b919061237d565b60405180910390f35b6104be60048036038101906104b9919061233d565b611484565b6040516104cb919061237d565b60405180910390f35b6104dc6116cb565b6040516104e9919061261f565b60405180910390f35b61050c600480360381019061050791906121c8565b6116f1565b604051610519919061237d565b60405180910390f35b61053c600480360381019061053791906127db565b611767565b604051610549919061237d565b60405180910390f35b61055a611851565b604051610567919061237d565b60405180910390f35b61058a600480360381019061058591906121c8565b611857565b604051610597919061274b565b60405180910390f35b6105ba60048036038101906105b591906121c8565b61190d565b6040516105c7919061237d565b60405180910390f35b6105ea60048036038101906105e5919061284a565b61193b565b6040516105f7919061237d565b60405180910390f35b610608611a60565b604051610615919061237d565b60405180910390f35b6008602052806000526040600020600091509050806000018054610641906128b9565b80601f016020809104026020016040519081016040528092919081815260200182805461066d906128b9565b80156106ba5780601f1061068f576101008083540402835291602001916106ba565b820191906000526020600020905b81548152906001019060200180831161069d57829003601f168201915b5050505050908060010154908060020154908060040154908060060160009054906101000a900460ff16908060060160019054906101000a900460ff16908060060160029054906101000a900460ff16908060070154905088565b600954811061072357600080fd5b60006008600083815260200190815260200160002090508060060160009054906101000a900460ff1615801561075d575080600101544210155b61076657600080fd5b60018160060160006101000a81548160ff0219169083151502179055506000808260030160008381526020019081526020016000206004015490506000600190505b83600401548110156108295783600301600082815260200190815260200160002060040154826107d8919061291a565b915083600301600084815260200190815260200160002060040154846003016000838152602001908152602001600020600401541115610816578092505b808061082190612970565b9150506107a8565b5082600201548111156108615760018360060160016101000a81548160ff02191690831515021790555081836007018190555061087f565b60008360060160016101000a81548160ff0219169083151502179055505b7fec8f304a675f7bb10c5d3eb44ea2444dd65a0da66105763bd6b5bb98aa1461db848460060160019054906101000a900460ff1685600701546040516108c7939291906129b9565b60405180910390a150505050565b6000828260095482106108e757600080fd5b6008600083815260200190815260200160002060040154811061090957600080fd5b600860008681526020019081526020016000206003016000858152602001908152602001600020600301549250505092915050565b600954811061094c57600080fd5b6000600860008381526020019081526020016000209050600115158160060160029054906101000a900460ff1615151461098557600080fd5b61098e82610715565b8060060160019054906101000a900460ff1680156109b0575060008160070154145b156109be576109bd611a66565b5b5050565b6003544210156109d157600080fd5b6109d9611c21565b565b60006109e76001611d86565b90508015610a0b576001600060016101000a81548160ff0219169083151502179055505b610a1b8989898989898989611e76565b8015610a745760008060016101000a81548160ff0219169083151502179055507f7f26b83ff96e1f2b6a682f133852f6798a09c465da95921460cefb38474024986001604051610a6b9190612a42565b60405180910390a15b505050505050505050565b60018181548110610a8f57600080fd5b906000526020600020016000915054906101000a900473ffffffffffffffffffffffffffffffffffffffff1681565b60065481565b600060029054906101000a900473ffffffffffffffffffffffffffffffffffffffff1681565b600260009054906101000a900473ffffffffffffffffffffffffffffffffffffffff1681565b60006009548310610b56576040517f08c379a0000000000000000000000000000000000000000000000000000000008152600401610b4d90612aa9565b60405180910390fd5b60006008600085815260200190815260200160002090508060060160029054906101000a900460ff16158015610b9b57508060060160009054906101000a900460ff16155b8015610bab575080600101544211155b610bea576040517f08c379a0000000000000000000000000000000000000000000000000000000008152600401610be190612b3b565b60405180910390fd5b6000610c07336007548460010154610c02919061291a565b61193b565b11610c47576040517f08c379a0000000000000000000000000000000000000000000000000000000008152600401610c3e90612ba7565b60405180910390fd5b806004016000815480929190610c5c90612970565b91905055915060008160030160008481526020019081526020016000209050338160000160006101000a81548173ffffffffffffffffffffffffffffffffffffffff021916908373ffffffffffffffffffffffffffffffffffffffff16021790555083816001019080519060200190610cd6929190612051565b507f8df6b99f30e761ca43c468a8a06f7a952076821bb5f8b40ed108d3116216aa0c85843387604051610d0c9493929190612bc7565b60405180910390a1505092915050565b606082826009548210610d2e57600080fd5b60086000838152602001908152602001600020600401548110610d5057600080fd5b6008600086815260200190815260200160002060030160008581526020019081526020016000206001018054610d85906128b9565b80601f0160208091040260200160405190810160405280929190818152602001828054610db1906128b9565b8015610dfe5780601f10610dd357610100808354040283529160200191610dfe565b820191906000526020600020905b815481529060010190602001808311610de157829003601f168201915b50505050509250505092915050565b60006009548210610e1d57600080fd5b6008600083815260200190815260200160002060060160009054906101000a900460ff169050919050565b60035481565b600082826009548210610e6057600080fd5b60086000838152602001908152602001600020600401548110610e8257600080fd5b836008600087815260200190815260200160002060050160008873ffffffffffffffffffffffffffffffffffffffff1673ffffffffffffffffffffffffffffffffffffffff1681526020019081526020016000206001015414925050509392505050565b600082826009548210610ef857600080fd5b60086000838152602001908152602001600020600401548110610f1a57600080fd5b600860008681526020019081526020016000206003016000858152602001908152602001600020600401549250505092915050565b60075481565b6000600654831015610f9c576040517f08c379a0000000000000000000000000000000000000000000000000000000008152600401610f9390612c85565b60405180910390fd5b600554821015610fe1576040517f08c379a0000000000000000000000000000000000000000000000000000000008152600401610fd890612cf1565b60405180910390fd5b60008342610fef919061291a565b9050600061100a3360075484611005919061291a565b61193b565b1161104a576040517f08c379a000000000000000000000000000000000000000000000000000000000815260040161104190612ba7565b60405180910390fd5b6009600081548092919061105d90612970565b919050559150600060086000848152602001908152602001600020905085816000019080519060200190611092929190612051565b508181600101819055508381600201819055507f961208aa3e528e7624367220a862d58a9483ed782d8bc03c42f558d85e9c1ec88387846040516110d893929190612d11565b60405180910390a150509392505050565b600060095483106110f957600080fd5b60006008600085815260200190815260200160002090508060060160009054906101000a900460ff16158015611133575080600101544211155b61113c57600080fd5b6000611159336007548460010154611154919061291a565b61193b565b90506000811161119e576040517f08c379a000000000000000000000000000000000000000000000000000000000815260040161119590612ba7565b60405180910390fd5b60008260050160003373ffffffffffffffffffffffffffffffffffffffff1673ffffffffffffffffffffffffffffffffffffffff16815260200190815260200160002090508060000160009054906101000a900460ff166111fe57600080fd5b848160010154141561120f57600080fd5b8260040154851061121f57600080fd5b6000816001015490508582600101819055506000846003016000838152602001908152602001600020905060008560030160008981526020019081526020016000209050600084600201549050600183600301541115611368576000836002016000600186600301546112929190612d4f565b815260200190815260200160002060009054906101000a900473ffffffffffffffffffffffffffffffffffffffff1690508084600201600084815260200190815260200160002060006101000a81548173ffffffffffffffffffffffffffffffffffffffff021916908373ffffffffffffffffffffffffffffffffffffffff16021790555060008860050160008373ffffffffffffffffffffffffffffffffffffffff1673ffffffffffffffffffffffffffffffffffffffff168152602001908152602001600020905082816002018190555050505b82600301600081548092919061137d90612d83565b9190505550858360040160008282546113969190612d4f565b925050819055508160030160008154809291906113b290612970565b919050558560020181905550338260020160008760020154815260200190815260200160002060006101000a81548173ffffffffffffffffffffffffffffffffffffffff021916908373ffffffffffffffffffffffffffffffffffffffff1602179055508582600401600082825461142a919061291a565b925050819055507f52799e0a041002398f2dbc39d845f710f7fed55292c3e6ae29e30a3c751df1f58a858b338a604051611468959493929190612dad565b60405180910390a1846002015497505050505050505092915050565b6000600954831061149457600080fd5b60006008600085815260200190815260200160002090508060060160009054906101000a900460ff161580156114ce575080600101544211155b6114d757600080fd5b60006114f43360075484600101546114ef919061291a565b61193b565b905060008111611539576040517f08c379a000000000000000000000000000000000000000000000000000000000815260040161153090612ba7565b60405180910390fd5b60008260050160003373ffffffffffffffffffffffffffffffffffffffff1673ffffffffffffffffffffffffffffffffffffffff16815260200190815260200160002090508060000160009054906101000a900460ff161561159a57600080fd5b826004015485106115aa57600080fd5b6000836003016000878152602001908152602001600020905060018260000160006101000a81548160ff0219169083151502179055508582600101819055508060030160008154809291906115fe90612970565b919050558260020181905550338160020160008460020154815260200190815260200160002060006101000a81548173ffffffffffffffffffffffffffffffffffffffff021916908373ffffffffffffffffffffffffffffffffffffffff16021790555082816004016000828254611676919061291a565b925050819055507f41df84b3b467b06744e40c92613c666324e7c640ce0a41ec06efdf602d367606878733866040516116b29493929190612e00565b60405180910390a1816002015494505050505092915050565b600460009054906101000a900473ffffffffffffffffffffffffffffffffffffffff1681565b6000600954821061170157600080fd5b61170a82610e0d565b611749576040517f08c379a000000000000000000000000000000000000000000000000000000000815260040161174090612e91565b60405180910390fd5b60086000838152602001908152602001600020600701549050919050565b6000808342611776919061291a565b905060035481111561178757600080fd5b611792858585610f55565b91506117d3826040518060400160405280600681526020017f726566756e640000000000000000000000000000000000000000000000000000815250610b10565b50611813826040518060400160405280600a81526020017f6e6f742d726566756e6400000000000000000000000000000000000000000000815250610b10565b50600060086000848152602001908152602001600020905060018160060160026101000a81548160ff02191690831515021790555050509392505050565b60055481565b6060600954821061186757600080fd5b600860008381526020019081526020016000206000018054611888906128b9565b80601f01602080910402602001604051908101604052809291908181526020018280546118b4906128b9565b80156119015780601f106118d657610100808354040283529160200191611901565b820191906000526020600020905b8154815290600101906020018083116118e457829003601f168201915b50505050509050919050565b6000600954821061191d57600080fd5b60086000838152602001908152602001600020600401549050919050565b60008060009050600080600460009054906101000a900473ffffffffffffffffffffffffffffffffffffffff1673ffffffffffffffffffffffffffffffffffffffff166354bb83c1876040518263ffffffff1660e01b81526004016119a0919061261f565b600060405180830381865afa1580156119bd573d6000803e3d6000fd5b505050506040513d6000823e3d601f19601f820116820180604052508101906119e69190612f89565b9150915060005b8251811015611a535785838281518110611a0a57611a09613001565b5b602002602001015110611a4057818181518110611a2a57611a29613001565b5b602002602001015184611a3d919061291a565b93505b8080611a4b90612970565b9150506119ed565b5082935050505092915050565b60095481565b60008060029054906101000a900473ffffffffffffffffffffffffffffffffffffffff1673ffffffffffffffffffffffffffffffffffffffff166370a08231306040518263ffffffff1660e01b8152600401611ac2919061261f565b602060405180830381865afa158015611adf573d6000803e3d6000fd5b505050506040513d601f19601f82011682018060405250810190611b039190613030565b9050600060018054905082611b18919061308c565b905060005b600180549050811015611c1c57600060029054906101000a900473ffffffffffffffffffffffffffffffffffffffff1673ffffffffffffffffffffffffffffffffffffffff1663a9059cbb60018381548110611b7c57611b7b613001565b5b9060005260206000200160009054906101000a900473ffffffffffffffffffffffffffffffffffffffff16846040518363ffffffff1660e01b8152600401611bc59291906130bd565b6020604051808303816000875af1158015611be4573d6000803e3d6000fd5b505050506040513d601f19601f82011682018060405250810190611c089190613112565b508080611c1490612970565b915050611b1d565b505050565b60008060029054906101000a900473ffffffffffffffffffffffffffffffffffffffff1673ffffffffffffffffffffffffffffffffffffffff166370a08231306040518263ffffffff1660e01b8152600401611c7d919061261f565b602060405180830381865afa158015611c9a573d6000803e3d6000fd5b505050506040513d601f19601f82011682018060405250810190611cbe9190613030565b9050600060029054906101000a900473ffffffffffffffffffffffffffffffffffffffff1673ffffffffffffffffffffffffffffffffffffffff1663a9059cbb600260009054906101000a900473ffffffffffffffffffffffffffffffffffffffff16836040518363ffffffff1660e01b8152600401611d3f9291906130bd565b6020604051808303816000875af1158015611d5e573d6000803e3d6000fd5b505050506040513d601f19601f82011682018060405250810190611d829190613112565b5050565b60008060019054906101000a900460ff1615611dfd5760018260ff16148015611db55750611db330611edf565b155b611df4576040517f08c379a0000000000000000000000000000000000000000000000000000000008152600401611deb906131b1565b60405180910390fd5b60009050611e71565b8160ff1660008054906101000a900460ff1660ff1610611e52576040517f08c379a0000000000000000000000000000000000000000000000000000000008152600401611e49906131b1565b60405180910390fd5b816000806101000a81548160ff021916908360ff160217905550600190505b919050565b600060019054906101000a900460ff16611ec5576040517f08c379a0000000000000000000000000000000000000000000000000000000008152600401611ebc90613243565b60405180910390fd5b611ed58888888888888888611f02565b5050505050505050565b6000808273ffffffffffffffffffffffffffffffffffffffff163b119050919050565b600060019054906101000a900460ff16611f51576040517f08c379a0000000000000000000000000000000000000000000000000000000008152600401611f4890613243565b60405180910390fd5b87600060026101000a81548173ffffffffffffffffffffffffffffffffffffffff021916908373ffffffffffffffffffffffffffffffffffffffff1602179055508660019080519060200190611fa89291906120d7565b508460038190555085600260006101000a81548173ffffffffffffffffffffffffffffffffffffffff021916908373ffffffffffffffffffffffffffffffffffffffff16021790555083600460006101000a81548173ffffffffffffffffffffffffffffffffffffffff021916908373ffffffffffffffffffffffffffffffffffffffff1602179055508260058190555081600681905550806007819055505050505050505050565b82805461205d906128b9565b90600052602060002090601f01602090048101928261207f57600085556120c6565b82601f1061209857805160ff19168380011785556120c6565b828001600101855582156120c6579182015b828111156120c55782518255916020019190600101906120aa565b5b5090506120d39190612161565b5090565b828054828255906000526020600020908101928215612150579160200282015b8281111561214f5782518260006101000a81548173ffffffffffffffffffffffffffffffffffffffff021916908373ffffffffffffffffffffffffffffffffffffffff160217905550916020019190600101906120f7565b5b50905061215d9190612161565b5090565b5b8082111561217a576000816000905550600101612162565b5090565b6000604051905090565b600080fd5b600080fd5b6000819050919050565b6121a581612192565b81146121b057600080fd5b50565b6000813590506121c28161219c565b92915050565b6000602082840312156121de576121dd612188565b5b60006121ec848285016121b3565b91505092915050565b600081519050919050565b600082825260208201905092915050565b60005b8381101561222f578082015181840152602081019050612214565b8381111561223e576000848401525b50505050565b6000601f19601f8301169050919050565b6000612260826121f5565b61226a8185612200565b935061227a818560208601612211565b61228381612244565b840191505092915050565b61229781612192565b82525050565b60008115159050919050565b6122b28161229d565b82525050565b60006101008201905081810360008301526122d3818b612255565b90506122e2602083018a61228e565b6122ef604083018961228e565b6122fc606083018861228e565b61230960808301876122a9565b61231660a08301866122a9565b61232360c08301856122a9565b61233060e083018461228e565b9998505050505050505050565b6000806040838503121561235457612353612188565b5b6000612362858286016121b3565b9250506020612373858286016121b3565b9150509250929050565b6000602082019050612392600083018461228e565b92915050565b600073ffffffffffffffffffffffffffffffffffffffff82169050919050565b60006123c382612398565b9050919050565b6123d3816123b8565b81146123de57600080fd5b50565b6000813590506123f0816123ca565b92915050565b600080fd5b7f4e487b7100000000000000000000000000000000000000000000000000000000600052604160045260246000fd5b61243382612244565b810181811067ffffffffffffffff82111715612452576124516123fb565b5b80604052505050565b600061246561217e565b9050612471828261242a565b919050565b600067ffffffffffffffff821115612491576124906123fb565b5b602082029050602081019050919050565b600080fd5b60006124ba6124b584612476565b61245b565b905080838252602082019050602084028301858111156124dd576124dc6124a2565b5b835b8181101561250657806124f288826123e1565b8452602084019350506020810190506124df565b5050509392505050565b600082601f830112612525576125246123f6565b5b81356125358482602086016124a7565b91505092915050565b600080600080600080600080610100898b03121561255f5761255e612188565b5b600061256d8b828c016123e1565b985050602089013567ffffffffffffffff81111561258e5761258d61218d565b5b61259a8b828c01612510565b97505060406125ab8b828c016123e1565b96505060606125bc8b828c016121b3565b95505060806125cd8b828c016123e1565b94505060a06125de8b828c016121b3565b93505060c06125ef8b828c016121b3565b92505060e06126008b828c016121b3565b9150509295985092959890939650565b612619816123b8565b82525050565b60006020820190506126346000830184612610565b92915050565b600080fd5b600067ffffffffffffffff82111561265a576126596123fb565b5b61266382612244565b9050602081019050919050565b82818337600083830152505050565b600061269261268d8461263f565b61245b565b9050828152602081018484840111156126ae576126ad61263a565b5b6126b9848285612670565b509392505050565b600082601f8301126126d6576126d56123f6565b5b81356126e684826020860161267f565b91505092915050565b6000806040838503121561270657612705612188565b5b6000612714858286016121b3565b925050602083013567ffffffffffffffff8111156127355761273461218d565b5b612741858286016126c1565b9150509250929050565b600060208201905081810360008301526127658184612255565b905092915050565b600060208201905061278260008301846122a9565b92915050565b6000806000606084860312156127a1576127a0612188565b5b60006127af868287016123e1565b93505060206127c0868287016121b3565b92505060406127d1868287016121b3565b9150509250925092565b6000806000606084860312156127f4576127f3612188565b5b600084013567ffffffffffffffff8111156128125761281161218d565b5b61281e868287016126c1565b935050602061282f868287016121b3565b9250506040612840868287016121b3565b9150509250925092565b6000806040838503121561286157612860612188565b5b600061286f858286016123e1565b9250506020612880858286016121b3565b9150509250929050565b7f4e487b7100000000000000000000000000000000000000000000000000000000600052602260045260246000fd5b600060028204905060018216806128d157607f821691505b602082108114156128e5576128e461288a565b5b50919050565b7f4e487b7100000000000000000000000000000000000000000000000000000000600052601160045260246000fd5b600061292582612192565b915061293083612192565b9250827fffffffffffffffffffffffffffffffffffffffffffffffffffffffffffffffff03821115612965576129646128eb565b5b828201905092915050565b600061297b82612192565b91507fffffffffffffffffffffffffffffffffffffffffffffffffffffffffffffffff8214156129ae576129ad6128eb565b5b600182019050919050565b60006060820190506129ce600083018661228e565b6129db60208301856122a9565b6129e8604083018461228e565b949350505050565b6000819050919050565b600060ff82169050919050565b6000819050919050565b6000612a2c612a27612a22846129f0565b612a07565b6129fa565b9050919050565b612a3c81612a11565b82525050565b6000602082019050612a576000830184612a33565b92915050565b7f57726f6e6720726f706f73616c20696400000000000000000000000000000000600082015250565b6000612a93601083612200565b9150612a9e82612a5d565b602082019050919050565b60006020820190508181036000830152612ac281612a86565b9050919050565b7f50726f706f73616c206578656375746564206f7220746f20626520657865637560008201527f7465640000000000000000000000000000000000000000000000000000000000602082015250565b6000612b25602383612200565b9150612b3082612ac9565b604082019050919050565b60006020820190508181036000830152612b5481612b18565b9050919050565b7f4e6f7420656e6f75676820746f6b656e73206c6f636b65640000000000000000600082015250565b6000612b91601883612200565b9150612b9c82612b5b565b602082019050919050565b60006020820190508181036000830152612bc081612b84565b9050919050565b6000608082019050612bdc600083018761228e565b612be9602083018661228e565b612bf66040830185612610565b8181036060830152612c088184612255565b905095945050505050565b7f4c657373207468616e20746865206d696e696d756d206465626174696e67207060008201527f6572696f64000000000000000000000000000000000000000000000000000000602082015250565b6000612c6f602583612200565b9150612c7a82612c13565b604082019050919050565b60006020820190508181036000830152612c9e81612c62565b9050919050565b7f4c657373207468616e20746865206d696e696d756d2071756f72756d00000000600082015250565b6000612cdb601c83612200565b9150612ce682612ca5565b602082019050919050565b60006020820190508181036000830152612d0a81612cce565b9050919050565b6000606082019050612d26600083018661228e565b8181036020830152612d388185612255565b9050612d47604083018461228e565b949350505050565b6000612d5a82612192565b9150612d6583612192565b925082821015612d7857612d776128eb565b5b828203905092915050565b6000612d8e82612192565b91506000821415612da257612da16128eb565b5b600182039050919050565b600060a082019050612dc2600083018861228e565b612dcf602083018761228e565b612ddc604083018661228e565b612de96060830185612610565b612df6608083018461228e565b9695505050505050565b6000608082019050612e15600083018761228e565b612e22602083018661228e565b612e2f6040830185612610565b612e3c606083018461228e565b95945050505050565b7f50726f706f73616c206e6f742079657420657865637574656400000000000000600082015250565b6000612e7b601983612200565b9150612e8682612e45565b602082019050919050565b60006020820190508181036000830152612eaa81612e6e565b9050919050565b600067ffffffffffffffff821115612ecc57612ecb6123fb565b5b602082029050602081019050919050565b600081519050612eec8161219c565b92915050565b6000612f05612f0084612eb1565b61245b565b90508083825260208201905060208402830185811115612f2857612f276124a2565b5b835b81811015612f515780612f3d8882612edd565b845260208401935050602081019050612f2a565b5050509392505050565b600082601f830112612f7057612f6f6123f6565b5b8151612f80848260208601612ef2565b91505092915050565b60008060408385031215612fa057612f9f612188565b5b600083015167ffffffffffffffff811115612fbe57612fbd61218d565b5b612fca85828601612f5b565b925050602083015167ffffffffffffffff811115612feb57612fea61218d565b5b612ff785828601612f5b565b9150509250929050565b7f4e487b7100000000000000000000000000000000000000000000000000000000600052603260045260246000fd5b60006020828403121561304657613045612188565b5b600061305484828501612edd565b91505092915050565b7f4e487b7100000000000000000000000000000000000000000000000000000000600052601260045260246000fd5b600061309782612192565b91506130a283612192565b9250826130b2576130b161305d565b5b828204905092915050565b60006040820190506130d26000830185612610565b6130df602083018461228e565b9392505050565b6130ef8161229d565b81146130fa57600080fd5b50565b60008151905061310c816130e6565b92915050565b60006020828403121561312857613127612188565b5b6000613136848285016130fd565b91505092915050565b7f496e697469616c697a61626c653a20636f6e747261637420697320616c72656160008201527f647920696e697469616c697a6564000000000000000000000000000000000000602082015250565b600061319b602e83612200565b91506131a68261313f565b604082019050919050565b600060208201905081810360008301526131ca8161318e565b9050919050565b7f496e697469616c697a61626c653a20636f6e7472616374206973206e6f74206960008201527f6e697469616c697a696e67000000000000000000000000000000000000000000602082015250565b600061322d602b83612200565b9150613238826131d1565b604082019050919050565b6000602082019050818103600083015261325c81613220565b905091905056fea26469706673582212200ead28fa7f0f93fb1579e85c58dda66e3e28e02ffa3d9e5eafdd1d7776b4526e64736f6c634300080c0033",
  "immutableReferences": {},
  "source": "// SPDX-License-Identifier: MIT\n\npragma solidity ^0.8.0;\n\nimport \"./TokenTimelockProxy.sol\";\n\n/**\n * @dev kDaO contract\n */\ncontract kDaO is Initializable {\n    // Token used by the DAO\n    address public _erc20token;\n\n    // The DAO's members\n    address[] public _members;\n\n    // The DAO's aggregator\n    address public _aggregator;\n\n    // The aggregator's funds release date\n    uint256 public _releaseDate;\n\n    // The contract used for votes weights\n    address public _tokenTimelocks;\n\n    // The number of votes quantity able to validate a proposal\n    uint256 public _minQuorum;\n\n    // Minimum time before execution\n    uint256 public _minDebatingPeriod;\n\n    // Minimum time difference between a lock time and a debate execution\n    uint256 public _minDifferenceLockPeriod;\n\n    // List of Proposals for Artifact generated by assignee\n    mapping(uint256 => Proposal) public _proposals;\n\n    // Number of Proposals\n    uint256 public _numProposals;\n\n    /**\n     * Structure used to manipulate a proposal\n     */\n    struct Proposal {\n        string metadata;\n        uint256 executionDate;\n        uint256 quorum;\n        mapping(uint256 => Suggestion) suggestions;\n        uint256 numSuggestions;\n        mapping(address => Vote) votes;\n        bool executed;\n        bool proposalPassed;\n        bool locked;\n        uint256 finalResult;\n    }\n\n    /**\n     * Structure used to manipulate a suggestion\n     */\n    struct Suggestion {\n        address advisor;\n        string metadata;\n        mapping(uint256 => address) votes;\n        uint256 numVotes;\n        uint256 votesQuantity;\n    }\n\n    /**\n     * Structure used to manipulate a vote of a single member\n     */\n    struct Vote {\n        bool voted;\n        uint256 suggestionID;\n        uint256 voteID;\n    }\n\n    /**\n     * Event for a proposal added\n     */\n    event ProposalAdded(\n        uint256 proposalID,\n        string metadata,\n        uint256 executionDate\n    );\n\n    /**\n     * Event for a suggestion added\n     */\n    event SuggestionAdded(\n        uint256 proposalID,\n        uint256 suggestionID,\n        address advisor,\n        string metadata\n    );\n\n    /**\n     * Event for a vote\n     */\n    event Voted(\n        uint256 proposalID,\n        uint256 suggestionID,\n        address voter,\n        uint256 voteWeight\n    );\n\n    /**\n     * Event for a vote changed\n     */\n    event VoteChanged(\n        uint256 proposalID,\n        uint256 oldSuggestionID,\n        uint256 newSuggestionID,\n        address voter,\n        uint256 voteWeight\n    );\n\n    /**\n     * Event for an execution\n     */\n    event ProposalExecuted(\n        uint256 proposalID,\n        bool proposalPassed,\n        uint256 finalResult\n    );\n\n    /**\n     * @dev Modifier to allow only operating with existing suggestion\n     */\n    modifier suggestionExists(uint256 proposalID, uint256 suggestionID) {\n        require(proposalID < _numProposals);\n        require(suggestionID < _proposals[proposalID].numSuggestions);\n        _;\n    }\n\n    /**\n     * @dev init DAO\n     *\n     * @param tokenTimelockProxy Address of the token timelock proxy used for weight\n     * @param minimumQuorumForProposals Number used to validate a vote in the execution\n     * @param minTimeForDebate minimum time required before execution\n     */\n    function __kDaO_init(\n        address ERC20token,\n        address[] memory members,\n        address aggregator,\n        uint256 releaseDate,\n        address tokenTimelockProxy,\n        uint256 minimumQuorumForProposals,\n        uint256 minTimeForDebate,\n        uint256 minDifferenceLockPeriod_\n    ) internal onlyInitializing {\n        __kDaO_init_unchained(\n            ERC20token,\n            members,\n            aggregator,\n            releaseDate,\n            tokenTimelockProxy,\n            minimumQuorumForProposals,\n            minTimeForDebate,\n            minDifferenceLockPeriod_\n        );\n    }\n\n    function __kDaO_init_unchained(\n        address ERC20token,\n        address[] memory members,\n        address aggregator,\n        uint256 releaseDate,\n        address tokenTimelockProxy,\n        uint256 minimumQuorumForProposals,\n        uint256 minTimeForDebate,\n        uint256 minDifferenceLockPeriod_\n    ) internal onlyInitializing {\n        _erc20token = ERC20token;\n        _members = members;\n        _releaseDate = releaseDate;\n        _aggregator = aggregator;\n        _tokenTimelocks = tokenTimelockProxy;\n        _minQuorum = minimumQuorumForProposals;\n        _minDebatingPeriod = minTimeForDebate;\n        _minDifferenceLockPeriod = minDifferenceLockPeriod_;\n    }\n\n    function initialize(\n        address ERC20token,\n        address[] memory members,\n        address aggregator,\n        uint256 releaseDate,\n        address tokenTimelockProxy,\n        uint256 minimumQuorumForProposals,\n        uint256 minTimeForDebate,\n        uint256 minDifferenceLockPeriod_\n    ) public initializer {\n        __kDaO_init(\n            ERC20token,\n            members,\n            aggregator,\n            releaseDate,\n            tokenTimelockProxy,\n            minimumQuorumForProposals,\n            minTimeForDebate,\n            minDifferenceLockPeriod_\n        );\n    }\n\n    /**\n     * @dev Add Refund Proposal\n     */\n    function submitRefundProposal(\n        string memory metadata,\n        uint256 debatingPeriod,\n        uint256 quorum\n    ) public returns (uint256 proposalID) {\n        uint256 executionDate = block.timestamp + debatingPeriod;\n        require(executionDate <= _releaseDate);\n        proposalID = submitProposal(metadata, debatingPeriod, quorum);\n        submitSuggestion(proposalID, \"refund\");\n        submitSuggestion(proposalID, \"not-refund\");\n        Proposal storage p = _proposals[proposalID];\n        p.locked = true;\n    }\n\n    /**\n     * @dev Execute proposal and enact result\n     */\n    function executeRefundProposal(uint256 proposalID) public {\n        require(proposalID < _numProposals);\n        Proposal storage p = _proposals[proposalID];\n        require(p.locked == true); //check that is refund type\n\n        executeProposal(proposalID);\n\n        if (p.proposalPassed && p.finalResult == 0) {\n            _transferFundsToMembers();\n        }\n    }\n\n    /**\n     * @dev Execute proposal and enact result\n     */\n    function releaseFundsToAggregator() public {\n        require(block.timestamp >= _releaseDate);\n\n        _transferFundsToAggregator();\n    }\n\n    /**\n     * @dev Add Proposal\n     */\n    function submitProposal(\n        string memory metadata,\n        uint256 debatingPeriod,\n        uint256 quorum\n    ) public returns (uint256 proposalID) {\n        require(\n            debatingPeriod >= _minDebatingPeriod,\n            \"Less than the minimum debating period\"\n        );\n        require(quorum >= _minQuorum, \"Less than the minimum quorum\");\n        uint256 executionDate = block.timestamp + debatingPeriod;\n        require(\n            checkLockedTokens(\n                msg.sender,\n                executionDate + _minDifferenceLockPeriod\n            ) > 0,\n            \"Not enough tokens locked\"\n        );\n\n        proposalID = _numProposals++;\n        Proposal storage p = _proposals[proposalID];\n        p.metadata = metadata;\n        p.executionDate = executionDate;\n        p.quorum = quorum;\n\n        emit ProposalAdded(proposalID, metadata, executionDate);\n\n        return proposalID;\n    }\n\n    /**\n     * @dev Add Suggestion\n     */\n    function submitSuggestion(uint256 proposalID, string memory metadata)\n        public\n        returns (uint256 suggestionID)\n    {\n        require(proposalID < _numProposals, \"Wrong roposal id\");\n        Proposal storage p = _proposals[proposalID];\n        require(\n            !p.locked && !p.executed && block.timestamp <= p.executionDate,\n            \"Proposal executed or to be executed\"\n        );\n        require(\n            checkLockedTokens(\n                msg.sender,\n                p.executionDate + _minDifferenceLockPeriod\n            ) > 0,\n            \"Not enough tokens locked\"\n        );\n\n        suggestionID = p.numSuggestions++;\n        Suggestion storage s = p.suggestions[suggestionID];\n        s.advisor = msg.sender;\n        s.metadata = metadata;\n\n        emit SuggestionAdded(proposalID, suggestionID, msg.sender, metadata);\n\n        return suggestionID;\n    }\n\n    /**\n     * @dev Log a vote for a proposal\n     */\n    function vote(uint256 proposalID, uint256 suggestionID)\n        public\n        returns (uint256 voteID)\n    {\n        require(proposalID < _numProposals);\n        Proposal storage p = _proposals[proposalID];\n        require(!p.executed && block.timestamp <= p.executionDate);\n        uint256 voteWeigth = checkLockedTokens(\n            msg.sender,\n            p.executionDate + _minDifferenceLockPeriod\n        );\n        require(voteWeigth > 0, \"Not enough tokens locked\");\n        Vote storage v = p.votes[msg.sender];\n        require(!v.voted);\n        require(suggestionID < p.numSuggestions);\n\n        Suggestion storage s = p.suggestions[suggestionID];\n        v.voted = true;\n        v.suggestionID = suggestionID;\n        v.voteID = s.numVotes++;\n        s.votes[v.voteID] = msg.sender;\n        s.votesQuantity += voteWeigth;\n\n        emit Voted(proposalID, suggestionID, msg.sender, voteWeigth);\n\n        return v.voteID;\n    }\n\n    /**\n     * @dev Change vote for a proposal\n     */\n    function changeVote(uint256 proposalID, uint256 newSuggestionID)\n        public\n        returns (uint256 voteID)\n    {\n        require(proposalID < _numProposals);\n        Proposal storage p = _proposals[proposalID];\n        require(!p.executed && block.timestamp <= p.executionDate);\n        uint256 voteWeigth = checkLockedTokens(\n            msg.sender,\n            p.executionDate + _minDifferenceLockPeriod\n        );\n        require(voteWeigth > 0, \"Not enough tokens locked\");\n        Vote storage v = p.votes[msg.sender];\n        require(v.voted);\n        require(v.suggestionID != newSuggestionID);\n        require(newSuggestionID < p.numSuggestions);\n\n        uint256 oldSuggestionID = v.suggestionID;\n        v.suggestionID = newSuggestionID;\n        Suggestion storage oldSuggestion = p.suggestions[oldSuggestionID];\n        Suggestion storage newSuggestion = p.suggestions[newSuggestionID];\n\n        uint256 index = v.voteID;\n        if (oldSuggestion.numVotes > 1) {\n            address last = oldSuggestion.votes[oldSuggestion.numVotes - 1];\n            oldSuggestion.votes[index] = last;\n            Vote storage vLast = p.votes[last];\n            vLast.voteID = index;\n        }\n        oldSuggestion.numVotes--;\n        oldSuggestion.votesQuantity -= voteWeigth;\n\n        v.voteID = newSuggestion.numVotes++;\n        newSuggestion.votes[v.voteID] = msg.sender;\n        newSuggestion.votesQuantity += voteWeigth;\n\n        emit VoteChanged(\n            proposalID,\n            oldSuggestionID,\n            newSuggestionID,\n            msg.sender,\n            voteWeigth\n        );\n\n        return v.voteID;\n    }\n\n    /**\n     * @dev Finish vote, count the votes proposal and execute\n     */\n    function executeProposal(uint256 proposalID) public {\n        require(proposalID < _numProposals);\n        Proposal storage p = _proposals[proposalID];\n        require(!p.executed && block.timestamp >= p.executionDate);\n\n        p.executed = true;\n        uint256 tmpMax = 0;\n        uint256 tmpTotal = p.suggestions[tmpMax].votesQuantity;\n        for (uint256 i = 1; i < p.numSuggestions; i++) {\n            tmpTotal += p.suggestions[i].votesQuantity;\n            if (\n                p.suggestions[i].votesQuantity >\n                p.suggestions[tmpMax].votesQuantity\n            ) {\n                tmpMax = i;\n            }\n        }\n\n        if (tmpTotal > p.quorum) {\n            p.proposalPassed = true;\n            p.finalResult = tmpMax;\n        } else {\n            p.proposalPassed = false;\n        }\n\n        emit ProposalExecuted(proposalID, p.proposalPassed, p.finalResult);\n    }\n\n    function _transferFundsToMembers() private {\n        uint256 totAmount = IERC20Upgradeable(_erc20token).balanceOf(\n            address(this)\n        );\n        uint256 amount = totAmount / _members.length;\n        for (uint256 i = 0; i < _members.length; i++) {\n            IERC20Upgradeable(_erc20token).transfer(_members[i], amount);\n        }\n    }\n\n    function _transferFundsToAggregator() private {\n        uint256 totAmount = IERC20Upgradeable(_erc20token).balanceOf(\n            address(this)\n        );\n        IERC20Upgradeable(_erc20token).transfer(_aggregator, totAmount);\n    }\n\n    function checkLockedTokens(address locker, uint256 minDate)\n        public\n        view\n        returns (uint256)\n    {\n        uint256 lockedTokens = 0;\n        (\n            uint256[] memory releaseTimes,\n            uint256[] memory balances\n        ) = TokenTimelockProxy(_tokenTimelocks)\n                .checkLockerReleaseTimesAndBalances(locker);\n        for (uint256 i = 0; i < releaseTimes.length; i++) {\n            if (releaseTimes[i] >= minDate) {\n                lockedTokens += balances[i];\n            }\n        }\n        return lockedTokens;\n    }\n\n    /**\n     * @return true if a proposal is executed\n     */\n    function isExecuted(uint256 proposalID) public view returns (bool) {\n        require(proposalID < _numProposals);\n        return _proposals[proposalID].executed;\n    }\n\n    /**\n     * @return Get proposal final result\n     */\n    function getProposalFinalResult(uint256 proposalID)\n        public\n        view\n        returns (uint256)\n    {\n        require(proposalID < _numProposals);\n        require(isExecuted(proposalID), \"Proposal not yet executed\");\n\n        return _proposals[proposalID].finalResult;\n    }\n\n    /**\n     * @return Proposal metadata\n     */\n    function getProposalMetadata(uint256 proposalID)\n        public\n        view\n        returns (string memory)\n    {\n        require(proposalID < _numProposals);\n\n        return _proposals[proposalID].metadata;\n    }\n\n    /**\n     * @return Proposal suggestion metadata\n     */\n    function getProposalSuggestionMetadata(\n        uint256 proposalID,\n        uint256 suggestionID\n    )\n        public\n        view\n        suggestionExists(proposalID, suggestionID)\n        returns (string memory)\n    {\n        return _proposals[proposalID].suggestions[suggestionID].metadata;\n    }\n\n    /**\n     * @return Number of proposals suggestions\n     */\n    function numberOfProposalSuggestions(uint256 proposalID)\n        public\n        view\n        returns (uint256)\n    {\n        require(proposalID < _numProposals);\n        return _proposals[proposalID].numSuggestions;\n    }\n\n    /**\n     * @return Number of votes of proposal suggestion\n     */\n    function getProposalSuggestionVotes(\n        uint256 proposalID,\n        uint256 suggestionID\n    ) public view suggestionExists(proposalID, suggestionID) returns (uint256) {\n        return _proposals[proposalID].suggestions[suggestionID].numVotes;\n    }\n\n    /**\n     * @return Quantity of votes of proposal suggestion\n     */\n    function getProposalSuggestionVotesQuantity(\n        uint256 proposalID,\n        uint256 suggestionID\n    ) public view suggestionExists(proposalID, suggestionID) returns (uint256) {\n        return _proposals[proposalID].suggestions[suggestionID].votesQuantity;\n    }\n\n    /**\n     * @return true if account voted for suggestionID in proposalID\n     */\n    function hasVotedFor(\n        address account,\n        uint256 proposalID,\n        uint256 suggestionID\n    ) public view suggestionExists(proposalID, suggestionID) returns (bool) {\n        return\n            _proposals[proposalID].votes[account].suggestionID == suggestionID;\n    }\n}\n",
  "sourcePath": "/Users/miker/Workspace/others/k-DaO/contracts/kDaO.sol",
  "compiler": {
    "name": "solc",
    "version": "0.8.12+commit.f00d7308.Emscripten.clang"
  },
  "schemaVersion": "3.4.14",
  "updatedAt": "2023-10-02T11:59:25.017Z",
  "networkType": "ethereum",
  "devdoc": {
    "details": "kDaO contract",
    "kind": "dev",
    "methods": {
      "changeVote(uint256,uint256)": {
        "details": "Change vote for a proposal"
      },
      "executeProposal(uint256)": {
        "details": "Finish vote, count the votes proposal and execute"
      },
      "executeRefundProposal(uint256)": {
        "details": "Execute proposal and enact result"
      },
      "getProposalFinalResult(uint256)": {
        "returns": {
          "_0": "Get proposal final result"
        }
      },
      "getProposalMetadata(uint256)": {
        "returns": {
          "_0": "Proposal metadata"
        }
      },
      "getProposalSuggestionMetadata(uint256,uint256)": {
        "returns": {
          "_0": "Proposal suggestion metadata"
        }
      },
      "getProposalSuggestionVotes(uint256,uint256)": {
        "returns": {
          "_0": "Number of votes of proposal suggestion"
        }
      },
      "getProposalSuggestionVotesQuantity(uint256,uint256)": {
        "returns": {
          "_0": "Quantity of votes of proposal suggestion"
        }
      },
      "hasVotedFor(address,uint256,uint256)": {
        "returns": {
          "_0": "true if account voted for suggestionID in proposalID"
        }
      },
      "isExecuted(uint256)": {
        "returns": {
          "_0": "true if a proposal is executed"
        }
      },
      "numberOfProposalSuggestions(uint256)": {
        "returns": {
          "_0": "Number of proposals suggestions"
        }
      },
      "releaseFundsToAggregator()": {
        "details": "Execute proposal and enact result"
      },
      "submitProposal(string,uint256,uint256)": {
        "details": "Add Proposal"
      },
      "submitRefundProposal(string,uint256,uint256)": {
        "details": "Add Refund Proposal"
      },
      "submitSuggestion(uint256,string)": {
        "details": "Add Suggestion"
      },
      "vote(uint256,uint256)": {
        "details": "Log a vote for a proposal"
      }
    },
    "version": 1
  },
  "userdoc": {
    "events": {
      "ProposalAdded(uint256,string,uint256)": {
        "notice": "Event for a proposal added"
      },
      "ProposalExecuted(uint256,bool,uint256)": {
        "notice": "Event for an execution"
      },
      "SuggestionAdded(uint256,uint256,address,string)": {
        "notice": "Event for a suggestion added"
      },
      "VoteChanged(uint256,uint256,uint256,address,uint256)": {
        "notice": "Event for a vote changed"
      },
      "Voted(uint256,uint256,address,uint256)": {
        "notice": "Event for a vote"
      }
    },
    "kind": "user",
    "methods": {},
    "version": 1
  }
}