{
  "contractName": "NonSafeVoting",
  "abi": [
    {
      "inputs": [
        {
          "internalType": "address",
          "name": "tokenTimelockProxy",
          "type": "address"
        },
        {
          "internalType": "uint256",
          "name": "minimumQuorumForProposals",
          "type": "uint256"
        },
        {
          "internalType": "uint256",
          "name": "minTimeForDebate",
          "type": "uint256"
        },
        {
          "internalType": "uint256",
          "name": "minDifferenceLockPeriod_",
          "type": "uint256"
        }
      ],
      "stateMutability": "nonpayable",
      "type": "constructor"
    },
    {
      "anonymous": false,
      "inputs": [
        {
          "indexed": false,
          "internalType": "uint256",
          "name": "proposalID",
          "type": "uint256"
        },
        {
          "indexed": false,
          "internalType": "string",
          "name": "metadata",
          "type": "string"
        },
        {
          "indexed": false,
          "internalType": "uint256",
          "name": "executionDate",
          "type": "uint256"
        }
      ],
      "name": "ProposalAdded",
      "type": "event"
    },
    {
      "anonymous": false,
      "inputs": [
        {
          "indexed": false,
          "internalType": "uint256",
          "name": "proposalID",
          "type": "uint256"
        },
        {
          "indexed": false,
          "internalType": "bool",
          "name": "proposalPassed",
          "type": "bool"
        },
        {
          "indexed": false,
          "internalType": "uint256",
          "name": "finalResult",
          "type": "uint256"
        }
      ],
      "name": "ProposalExecuted",
      "type": "event"
    },
    {
      "anonymous": false,
      "inputs": [
        {
          "indexed": false,
          "internalType": "uint256",
          "name": "proposalID",
          "type": "uint256"
        },
        {
          "indexed": false,
          "internalType": "uint256",
          "name": "suggestionID",
          "type": "uint256"
        },
        {
          "indexed": false,
          "internalType": "address",
          "name": "advisor",
          "type": "address"
        },
        {
          "indexed": false,
          "internalType": "string",
          "name": "metadata",
          "type": "string"
        }
      ],
      "name": "SuggestionAdded",
      "type": "event"
    },
    {
      "anonymous": false,
      "inputs": [
        {
          "indexed": false,
          "internalType": "uint256",
          "name": "proposalID",
          "type": "uint256"
        },
        {
          "indexed": false,
          "internalType": "uint256",
          "name": "oldSuggestionID",
          "type": "uint256"
        },
        {
          "indexed": false,
          "internalType": "uint256",
          "name": "newSuggestionID",
          "type": "uint256"
        },
        {
          "indexed": false,
          "internalType": "address",
          "name": "voter",
          "type": "address"
        },
        {
          "indexed": false,
          "internalType": "uint256",
          "name": "voteWeight",
          "type": "uint256"
        }
      ],
      "name": "VoteChanged",
      "type": "event"
    },
    {
      "anonymous": false,
      "inputs": [
        {
          "indexed": false,
          "internalType": "uint256",
          "name": "proposalID",
          "type": "uint256"
        },
        {
          "indexed": false,
          "internalType": "uint256",
          "name": "suggestionID",
          "type": "uint256"
        },
        {
          "indexed": false,
          "internalType": "address",
          "name": "voter",
          "type": "address"
        },
        {
          "indexed": false,
          "internalType": "uint256",
          "name": "voteWeight",
          "type": "uint256"
        }
      ],
      "name": "Voted",
      "type": "event"
    },
    {
      "inputs": [],
      "name": "_minDebatingPeriod",
      "outputs": [
        {
          "internalType": "uint256",
          "name": "",
          "type": "uint256"
        }
      ],
      "stateMutability": "view",
      "type": "function"
    },
    {
      "inputs": [],
      "name": "_minDifferenceLockPeriod",
      "outputs": [
        {
          "internalType": "uint256",
          "name": "",
          "type": "uint256"
        }
      ],
      "stateMutability": "view",
      "type": "function"
    },
    {
      "inputs": [],
      "name": "_minQuorum",
      "outputs": [
        {
          "internalType": "uint256",
          "name": "",
          "type": "uint256"
        }
      ],
      "stateMutability": "view",
      "type": "function"
    },
    {
      "inputs": [],
      "name": "_numProposals",
      "outputs": [
        {
          "internalType": "uint256",
          "name": "",
          "type": "uint256"
        }
      ],
      "stateMutability": "view",
      "type": "function"
    },
    {
      "inputs": [
        {
          "internalType": "uint256",
          "name": "",
          "type": "uint256"
        }
      ],
      "name": "_proposals",
      "outputs": [
        {
          "internalType": "string",
          "name": "metadata",
          "type": "string"
        },
        {
          "internalType": "uint256",
          "name": "executionDate",
          "type": "uint256"
        },
        {
          "internalType": "uint256",
          "name": "quorum",
          "type": "uint256"
        },
        {
          "internalType": "uint256",
          "name": "numSuggestions",
          "type": "uint256"
        },
        {
          "internalType": "bool",
          "name": "executed",
          "type": "bool"
        },
        {
          "internalType": "bool",
          "name": "proposalPassed",
          "type": "bool"
        },
        {
          "internalType": "uint256",
          "name": "finalResult",
          "type": "uint256"
        }
      ],
      "stateMutability": "view",
      "type": "function"
    },
    {
      "inputs": [],
      "name": "_tokenTimelocks",
      "outputs": [
        {
          "internalType": "address",
          "name": "",
          "type": "address"
        }
      ],
      "stateMutability": "view",
      "type": "function"
    },
    {
      "inputs": [
        {
          "internalType": "string",
          "name": "metadata",
          "type": "string"
        },
        {
          "internalType": "uint256",
          "name": "debatingPeriod",
          "type": "uint256"
        },
        {
          "internalType": "uint256",
          "name": "quorum",
          "type": "uint256"
        }
      ],
      "name": "submitProposal",
      "outputs": [
        {
          "internalType": "uint256",
          "name": "proposalID",
          "type": "uint256"
        }
      ],
      "stateMutability": "nonpayable",
      "type": "function"
    },
    {
      "inputs": [
        {
          "internalType": "uint256",
          "name": "proposalID",
          "type": "uint256"
        },
        {
          "internalType": "string",
          "name": "metadata",
          "type": "string"
        }
      ],
      "name": "submitSuggestion",
      "outputs": [
        {
          "internalType": "uint256",
          "name": "suggestionID",
          "type": "uint256"
        }
      ],
      "stateMutability": "nonpayable",
      "type": "function"
    },
    {
      "inputs": [
        {
          "internalType": "uint256",
          "name": "proposalID",
          "type": "uint256"
        },
        {
          "internalType": "uint256",
          "name": "suggestionID",
          "type": "uint256"
        }
      ],
      "name": "vote",
      "outputs": [
        {
          "internalType": "uint256",
          "name": "voteID",
          "type": "uint256"
        }
      ],
      "stateMutability": "nonpayable",
      "type": "function"
    },
    {
      "inputs": [
        {
          "internalType": "uint256",
          "name": "proposalID",
          "type": "uint256"
        },
        {
          "internalType": "uint256",
          "name": "newSuggestionID",
          "type": "uint256"
        }
      ],
      "name": "changeVote",
      "outputs": [
        {
          "internalType": "uint256",
          "name": "voteID",
          "type": "uint256"
        }
      ],
      "stateMutability": "nonpayable",
      "type": "function"
    },
    {
      "inputs": [
        {
          "internalType": "uint256",
          "name": "proposalID",
          "type": "uint256"
        }
      ],
      "name": "executeProposal",
      "outputs": [],
      "stateMutability": "nonpayable",
      "type": "function"
    },
    {
      "inputs": [
        {
          "internalType": "address",
          "name": "locker",
          "type": "address"
        },
        {
          "internalType": "uint256",
          "name": "minDate",
          "type": "uint256"
        }
      ],
      "name": "checkLockedTokens",
      "outputs": [
        {
          "internalType": "uint256",
          "name": "",
          "type": "uint256"
        }
      ],
      "stateMutability": "view",
      "type": "function"
    },
    {
      "inputs": [
        {
          "internalType": "uint256",
          "name": "proposalID",
          "type": "uint256"
        }
      ],
      "name": "isExecuted",
      "outputs": [
        {
          "internalType": "bool",
          "name": "",
          "type": "bool"
        }
      ],
      "stateMutability": "view",
      "type": "function"
    },
    {
      "inputs": [
        {
          "internalType": "uint256",
          "name": "proposalID",
          "type": "uint256"
        }
      ],
      "name": "getProposalFinalResult",
      "outputs": [
        {
          "internalType": "uint256",
          "name": "",
          "type": "uint256"
        }
      ],
      "stateMutability": "view",
      "type": "function"
    },
    {
      "inputs": [
        {
          "internalType": "uint256",
          "name": "proposalID",
          "type": "uint256"
        }
      ],
      "name": "getProposalMetadata",
      "outputs": [
        {
          "internalType": "string",
          "name": "",
          "type": "string"
        }
      ],
      "stateMutability": "view",
      "type": "function"
    },
    {
      "inputs": [
        {
          "internalType": "uint256",
          "name": "proposalID",
          "type": "uint256"
        },
        {
          "internalType": "uint256",
          "name": "suggestionID",
          "type": "uint256"
        }
      ],
      "name": "getProposalSuggestionMetadata",
      "outputs": [
        {
          "internalType": "string",
          "name": "",
          "type": "string"
        }
      ],
      "stateMutability": "view",
      "type": "function"
    },
    {
      "inputs": [
        {
          "internalType": "uint256",
          "name": "proposalID",
          "type": "uint256"
        }
      ],
      "name": "numberOfProposalSuggestions",
      "outputs": [
        {
          "internalType": "uint256",
          "name": "",
          "type": "uint256"
        }
      ],
      "stateMutability": "view",
      "type": "function"
    },
    {
      "inputs": [
        {
          "internalType": "uint256",
          "name": "proposalID",
          "type": "uint256"
        },
        {
          "internalType": "uint256",
          "name": "suggestionID",
          "type": "uint256"
        }
      ],
      "name": "getProposalSuggestionVotes",
      "outputs": [
        {
          "internalType": "uint256",
          "name": "",
          "type": "uint256"
        }
      ],
      "stateMutability": "view",
      "type": "function"
    },
    {
      "inputs": [
        {
          "internalType": "uint256",
          "name": "proposalID",
          "type": "uint256"
        },
        {
          "internalType": "uint256",
          "name": "suggestionID",
          "type": "uint256"
        }
      ],
      "name": "getProposalSuggestionVotesQuantity",
      "outputs": [
        {
          "internalType": "uint256",
          "name": "",
          "type": "uint256"
        }
      ],
      "stateMutability": "view",
      "type": "function"
    },
    {
      "inputs": [
        {
          "internalType": "address",
          "name": "account",
          "type": "address"
        },
        {
          "internalType": "uint256",
          "name": "proposalID",
          "type": "uint256"
        },
        {
          "internalType": "uint256",
          "name": "suggestionID",
          "type": "uint256"
        }
      ],
      "name": "hasVotedFor",
      "outputs": [
        {
          "internalType": "bool",
          "name": "",
          "type": "bool"
        }
      ],
      "stateMutability": "view",
      "type": "function"
    }
  ],
  "bytecode": "0x60806040523480156200001157600080fd5b50604051620025193803806200251983398181016040528101906200003791906200013b565b836000806101000a81548173ffffffffffffffffffffffffffffffffffffffff021916908373ffffffffffffffffffffffffffffffffffffffff16021790555082600181905550816002819055508060038190555050505050620001ad565b600080fd5b600073ffffffffffffffffffffffffffffffffffffffff82169050919050565b6000620000c8826200009b565b9050919050565b620000da81620000bb565b8114620000e657600080fd5b50565b600081519050620000fa81620000cf565b92915050565b6000819050919050565b620001158162000100565b81146200012157600080fd5b50565b60008151905062000135816200010a565b92915050565b6000806000806080858703121562000158576200015762000096565b5b60006200016887828801620000e9565b94505060206200017b8782880162000124565b93505060406200018e8782880162000124565b9250506060620001a18782880162000124565b91505092959194509250565b61235c80620001bd6000396000f3fe608060405234801561001057600080fd5b506004361061012c5760003560e01c8063a6b39cdd116100ad578063e38908b911610071578063e38908b9146103bd578063eb9b9838146103db578063ee1c3f361461040b578063f0ded2901461043b578063f9f0e8bb1461046b5761012c565b8063a6b39cdd146102df578063a9593b981461030f578063b384abef1461033f578063c0cfb0071461036f578063cf8f9e0c1461038d5761012c565b80636f23b1aa116100f45780636f23b1aa1461020157806376a6bf52146102315780639c699efd14610261578063a1848c9814610291578063a449750e146102c15761012c565b80630a494840146101315780630d61b5191461016757806323fcff23146101835780634621a5f7146101b35780635fa18185146101d1575b600080fd5b61014b600480360381019061014691906116cf565b610489565b60405161015e97969594939291906117bf565b60405180910390f35b610181600480360381019061017c91906116cf565b61056d565b005b61019d60048036038101906101989190611835565b61072d565b6040516101aa9190611875565b60405180910390f35b6101bb610796565b6040516101c89190611875565b60405180910390f35b6101eb60048036038101906101e691906119c5565b61079c565b6040516101f89190611875565b60405180910390f35b61021b60048036038101906102169190611835565b61098c565b6040516102289190611a21565b60405180910390f35b61024b600480360381019061024691906116cf565b610a7d565b6040516102589190611a43565b60405180910390f35b61027b60048036038101906102769190611abc565b610ab8565b6040516102889190611a43565b60405180910390f35b6102ab60048036038101906102a69190611835565b610b50565b6040516102b89190611875565b60405180910390f35b6102c9610bb9565b6040516102d69190611875565b60405180910390f35b6102f960048036038101906102f49190611b0f565b610bbf565b6040516103069190611875565b60405180910390f35b61032960048036038101906103249190611835565b610d53565b6040516103369190611875565b60405180910390f35b61035960048036038101906103549190611835565b6110ee565b6040516103669190611875565b60405180910390f35b610377611335565b6040516103849190611b8d565b60405180910390f35b6103a760048036038101906103a291906116cf565b611359565b6040516103b49190611875565b60405180910390f35b6103c56113cf565b6040516103d29190611875565b60405180910390f35b6103f560048036038101906103f091906116cf565b6113d5565b6040516104029190611a21565b60405180910390f35b610425600480360381019061042091906116cf565b61148b565b6040516104329190611875565b60405180910390f35b61045560048036038101906104509190611ba8565b6114b9565b6040516104629190611875565b60405180910390f35b6104736115dc565b6040516104809190611875565b60405180910390f35b60046020528060005260406000206000915090508060000180546104ac90611c17565b80601f01602080910402602001604051908101604052809291908181526020018280546104d890611c17565b80156105255780601f106104fa57610100808354040283529160200191610525565b820191906000526020600020905b81548152906001019060200180831161050857829003601f168201915b5050505050908060010154908060020154908060040154908060060160009054906101000a900460ff16908060060160019054906101000a900460ff16908060070154905087565b600554811061057b57600080fd5b60006004600083815260200190815260200160002090508060060160009054906101000a900460ff161580156105b5575080600101544210155b6105be57600080fd5b60018160060160006101000a81548160ff0219169083151502179055506000808260030160008381526020019081526020016000206004015490506000600190505b83600401548110156106815783600301600082815260200190815260200160002060040154826106309190611c78565b91508360030160008481526020019081526020016000206004015484600301600083815260200190815260200160002060040154111561066e578092505b808061067990611cce565b915050610600565b5082600201548111156106b95760018360060160016101000a81548160ff0219169083151502179055508183600701819055506106d7565b60008360060160016101000a81548160ff0219169083151502179055505b7fec8f304a675f7bb10c5d3eb44ea2444dd65a0da66105763bd6b5bb98aa1461db848460060160019054906101000a900460ff16856007015460405161071f93929190611d17565b60405180910390a150505050565b60008282600554821061073f57600080fd5b6004600083815260200190815260200160002060040154811061076157600080fd5b600460008681526020019081526020016000206003016000858152602001908152602001600020600301549250505092915050565b60025481565b600060055483106107e2576040517f08c379a00000000000000000000000000000000000000000000000000000000081526004016107d990611d9a565b60405180910390fd5b60006004600085815260200190815260200160002090508060060160009054906101000a900460ff1615801561081b5750806001015442105b61085a576040517f08c379a000000000000000000000000000000000000000000000000000000000815260040161085190611e2c565b60405180910390fd5b60006108773360035484600101546108729190611c78565b6114b9565b116108b7576040517f08c379a00000000000000000000000000000000000000000000000000000000081526004016108ae90611e98565b60405180910390fd5b8060040160008154809291906108cc90611cce565b91905055915060008160030160008481526020019081526020016000209050338160000160006101000a81548173ffffffffffffffffffffffffffffffffffffffff021916908373ffffffffffffffffffffffffffffffffffffffff160217905550838160010190805190602001906109469291906115e2565b507f8df6b99f30e761ca43c468a8a06f7a952076821bb5f8b40ed108d3116216aa0c8584338760405161097c9493929190611eb8565b60405180910390a1505092915050565b60608282600554821061099e57600080fd5b600460008381526020019081526020016000206004015481106109c057600080fd5b60046000868152602001908152602001600020600301600085815260200190815260200160002060010180546109f590611c17565b80601f0160208091040260200160405190810160405280929190818152602001828054610a2190611c17565b8015610a6e5780601f10610a4357610100808354040283529160200191610a6e565b820191906000526020600020905b815481529060010190602001808311610a5157829003601f168201915b50505050509250505092915050565b60006005548210610a8d57600080fd5b6004600083815260200190815260200160002060060160009054906101000a900460ff169050919050565b600082826005548210610aca57600080fd5b60046000838152602001908152602001600020600401548110610aec57600080fd5b836004600087815260200190815260200160002060050160008873ffffffffffffffffffffffffffffffffffffffff1673ffffffffffffffffffffffffffffffffffffffff1681526020019081526020016000206001015414925050509392505050565b600082826005548210610b6257600080fd5b60046000838152602001908152602001600020600401548110610b8457600080fd5b600460008681526020019081526020016000206003016000858152602001908152602001600020600401549250505092915050565b60035481565b6000600254831015610c06576040517f08c379a0000000000000000000000000000000000000000000000000000000008152600401610bfd90611f76565b60405180910390fd5b600154821015610c4b576040517f08c379a0000000000000000000000000000000000000000000000000000000008152600401610c4290611fe2565b60405180910390fd5b60008342610c599190611c78565b90506000610c743360035484610c6f9190611c78565b6114b9565b11610cb4576040517f08c379a0000000000000000000000000000000000000000000000000000000008152600401610cab90611e98565b60405180910390fd5b60056000815480929190610cc790611cce565b919050559150600060046000848152602001908152602001600020905085816000019080519060200190610cfc9291906115e2565b508181600101819055508381600201819055507f961208aa3e528e7624367220a862d58a9483ed782d8bc03c42f558d85e9c1ec8838784604051610d4293929190612002565b60405180910390a150509392505050565b60006005548310610d6357600080fd5b60006004600085815260200190815260200160002090508060060160009054906101000a900460ff16158015610d9d575080600101544211155b610da657600080fd5b6000610dc3336003548460010154610dbe9190611c78565b6114b9565b905060008111610e08576040517f08c379a0000000000000000000000000000000000000000000000000000000008152600401610dff90611e98565b60405180910390fd5b60008260050160003373ffffffffffffffffffffffffffffffffffffffff1673ffffffffffffffffffffffffffffffffffffffff16815260200190815260200160002090508060000160009054906101000a900460ff16610e6857600080fd5b8481600101541415610e7957600080fd5b82600401548510610e8957600080fd5b6000816001015490508582600101819055506000846003016000838152602001908152602001600020905060008560030160008981526020019081526020016000209050600084600201549050600183600301541115610fd257600083600201600060018660030154610efc9190612040565b815260200190815260200160002060009054906101000a900473ffffffffffffffffffffffffffffffffffffffff1690508084600201600084815260200190815260200160002060006101000a81548173ffffffffffffffffffffffffffffffffffffffff021916908373ffffffffffffffffffffffffffffffffffffffff16021790555060008860050160008373ffffffffffffffffffffffffffffffffffffffff1673ffffffffffffffffffffffffffffffffffffffff168152602001908152602001600020905082816002018190555050505b826003016000815480929190610fe790612074565b9190505550858360040160008282546110009190612040565b9250508190555081600301600081548092919061101c90611cce565b919050558560020181905550338260020160008760020154815260200190815260200160002060006101000a81548173ffffffffffffffffffffffffffffffffffffffff021916908373ffffffffffffffffffffffffffffffffffffffff160217905550858260040160008282546110949190611c78565b925050819055507f52799e0a041002398f2dbc39d845f710f7fed55292c3e6ae29e30a3c751df1f58a858b338a6040516110d295949392919061209e565b60405180910390a1846002015497505050505050505092915050565b600060055483106110fe57600080fd5b60006004600085815260200190815260200160002090508060060160009054906101000a900460ff16158015611138575080600101544211155b61114157600080fd5b600061115e3360035484600101546111599190611c78565b6114b9565b9050600081116111a3576040517f08c379a000000000000000000000000000000000000000000000000000000000815260040161119a90611e98565b60405180910390fd5b60008260050160003373ffffffffffffffffffffffffffffffffffffffff1673ffffffffffffffffffffffffffffffffffffffff16815260200190815260200160002090508060000160009054906101000a900460ff161561120457600080fd5b8260040154851061121457600080fd5b6000836003016000878152602001908152602001600020905060018260000160006101000a81548160ff02191690831515021790555085826001018190555080600301600081548092919061126890611cce565b919050558260020181905550338160020160008460020154815260200190815260200160002060006101000a81548173ffffffffffffffffffffffffffffffffffffffff021916908373ffffffffffffffffffffffffffffffffffffffff160217905550828160040160008282546112e09190611c78565b925050819055507f41df84b3b467b06744e40c92613c666324e7c640ce0a41ec06efdf602d3676068787338660405161131c94939291906120f1565b60405180910390a1816002015494505050505092915050565b60008054906101000a900473ffffffffffffffffffffffffffffffffffffffff1681565b6000600554821061136957600080fd5b61137282610a7d565b6113b1576040517f08c379a00000000000000000000000000000000000000000000000000000000081526004016113a890612182565b60405180910390fd5b60046000838152602001908152602001600020600701549050919050565b60015481565b606060055482106113e557600080fd5b60046000838152602001908152602001600020600001805461140690611c17565b80601f016020809104026020016040519081016040528092919081815260200182805461143290611c17565b801561147f5780601f106114545761010080835404028352916020019161147f565b820191906000526020600020905b81548152906001019060200180831161146257829003601f168201915b50505050509050919050565b6000600554821061149b57600080fd5b60046000838152602001908152602001600020600401549050919050565b6000806000905060008060008054906101000a900473ffffffffffffffffffffffffffffffffffffffff1673ffffffffffffffffffffffffffffffffffffffff166354bb83c1876040518263ffffffff1660e01b815260040161151c9190611b8d565b600060405180830381865afa158015611539573d6000803e3d6000fd5b505050506040513d6000823e3d601f19601f82011682018060405250810190611562919061227f565b9150915060005b82518110156115cf5785838281518110611586576115856122f7565b5b6020026020010151106115bc578181815181106115a6576115a56122f7565b5b6020026020010151846115b99190611c78565b93505b80806115c790611cce565b915050611569565b5082935050505092915050565b60055481565b8280546115ee90611c17565b90600052602060002090601f0160209004810192826116105760008555611657565b82601f1061162957805160ff1916838001178555611657565b82800160010185558215611657579182015b8281111561165657825182559160200191906001019061163b565b5b5090506116649190611668565b5090565b5b80821115611681576000816000905550600101611669565b5090565b6000604051905090565b600080fd5b600080fd5b6000819050919050565b6116ac81611699565b81146116b757600080fd5b50565b6000813590506116c9816116a3565b92915050565b6000602082840312156116e5576116e461168f565b5b60006116f3848285016116ba565b91505092915050565b600081519050919050565b600082825260208201905092915050565b60005b8381101561173657808201518184015260208101905061171b565b83811115611745576000848401525b50505050565b6000601f19601f8301169050919050565b6000611767826116fc565b6117718185611707565b9350611781818560208601611718565b61178a8161174b565b840191505092915050565b61179e81611699565b82525050565b60008115159050919050565b6117b9816117a4565b82525050565b600060e08201905081810360008301526117d9818a61175c565b90506117e86020830189611795565b6117f56040830188611795565b6118026060830187611795565b61180f60808301866117b0565b61181c60a08301856117b0565b61182960c0830184611795565b98975050505050505050565b6000806040838503121561184c5761184b61168f565b5b600061185a858286016116ba565b925050602061186b858286016116ba565b9150509250929050565b600060208201905061188a6000830184611795565b92915050565b600080fd5b600080fd5b7f4e487b7100000000000000000000000000000000000000000000000000000000600052604160045260246000fd5b6118d28261174b565b810181811067ffffffffffffffff821117156118f1576118f061189a565b5b80604052505050565b6000611904611685565b905061191082826118c9565b919050565b600067ffffffffffffffff8211156119305761192f61189a565b5b6119398261174b565b9050602081019050919050565b82818337600083830152505050565b600061196861196384611915565b6118fa565b90508281526020810184848401111561198457611983611895565b5b61198f848285611946565b509392505050565b600082601f8301126119ac576119ab611890565b5b81356119bc848260208601611955565b91505092915050565b600080604083850312156119dc576119db61168f565b5b60006119ea858286016116ba565b925050602083013567ffffffffffffffff811115611a0b57611a0a611694565b5b611a1785828601611997565b9150509250929050565b60006020820190508181036000830152611a3b818461175c565b905092915050565b6000602082019050611a5860008301846117b0565b92915050565b600073ffffffffffffffffffffffffffffffffffffffff82169050919050565b6000611a8982611a5e565b9050919050565b611a9981611a7e565b8114611aa457600080fd5b50565b600081359050611ab681611a90565b92915050565b600080600060608486031215611ad557611ad461168f565b5b6000611ae386828701611aa7565b9350506020611af4868287016116ba565b9250506040611b05868287016116ba565b9150509250925092565b600080600060608486031215611b2857611b2761168f565b5b600084013567ffffffffffffffff811115611b4657611b45611694565b5b611b5286828701611997565b9350506020611b63868287016116ba565b9250506040611b74868287016116ba565b9150509250925092565b611b8781611a7e565b82525050565b6000602082019050611ba26000830184611b7e565b92915050565b60008060408385031215611bbf57611bbe61168f565b5b6000611bcd85828601611aa7565b9250506020611bde858286016116ba565b9150509250929050565b7f4e487b7100000000000000000000000000000000000000000000000000000000600052602260045260246000fd5b60006002820490506001821680611c2f57607f821691505b60208210811415611c4357611c42611be8565b5b50919050565b7f4e487b7100000000000000000000000000000000000000000000000000000000600052601160045260246000fd5b6000611c8382611699565b9150611c8e83611699565b9250827fffffffffffffffffffffffffffffffffffffffffffffffffffffffffffffffff03821115611cc357611cc2611c49565b5b828201905092915050565b6000611cd982611699565b91507fffffffffffffffffffffffffffffffffffffffffffffffffffffffffffffffff821415611d0c57611d0b611c49565b5b600182019050919050565b6000606082019050611d2c6000830186611795565b611d3960208301856117b0565b611d466040830184611795565b949350505050565b7f57726f6e6720726f706f73616c20696400000000000000000000000000000000600082015250565b6000611d84601083611707565b9150611d8f82611d4e565b602082019050919050565b60006020820190508181036000830152611db381611d77565b9050919050565b7f50726f706f73616c206578656375746564206f7220746f20626520657865637560008201527f7465640000000000000000000000000000000000000000000000000000000000602082015250565b6000611e16602383611707565b9150611e2182611dba565b604082019050919050565b60006020820190508181036000830152611e4581611e09565b9050919050565b7f4e6f7420656e6f75676820746f6b656e73206c6f636b65640000000000000000600082015250565b6000611e82601883611707565b9150611e8d82611e4c565b602082019050919050565b60006020820190508181036000830152611eb181611e75565b9050919050565b6000608082019050611ecd6000830187611795565b611eda6020830186611795565b611ee76040830185611b7e565b8181036060830152611ef9818461175c565b905095945050505050565b7f4c657373207468616e20746865206d696e696d756d206465626174696e67207060008201527f6572696f64000000000000000000000000000000000000000000000000000000602082015250565b6000611f60602583611707565b9150611f6b82611f04565b604082019050919050565b60006020820190508181036000830152611f8f81611f53565b9050919050565b7f4c657373207468616e20746865206d696e696d756d2071756f72756d00000000600082015250565b6000611fcc601c83611707565b9150611fd782611f96565b602082019050919050565b60006020820190508181036000830152611ffb81611fbf565b9050919050565b60006060820190506120176000830186611795565b8181036020830152612029818561175c565b90506120386040830184611795565b949350505050565b600061204b82611699565b915061205683611699565b92508282101561206957612068611c49565b5b828203905092915050565b600061207f82611699565b9150600082141561209357612092611c49565b5b600182039050919050565b600060a0820190506120b36000830188611795565b6120c06020830187611795565b6120cd6040830186611795565b6120da6060830185611b7e565b6120e76080830184611795565b9695505050505050565b60006080820190506121066000830187611795565b6121136020830186611795565b6121206040830185611b7e565b61212d6060830184611795565b95945050505050565b7f50726f706f73616c206e6f742079657420657865637574656400000000000000600082015250565b600061216c601983611707565b915061217782612136565b602082019050919050565b6000602082019050818103600083015261219b8161215f565b9050919050565b600067ffffffffffffffff8211156121bd576121bc61189a565b5b602082029050602081019050919050565b600080fd5b6000815190506121e2816116a3565b92915050565b60006121fb6121f6846121a2565b6118fa565b9050808382526020820190506020840283018581111561221e5761221d6121ce565b5b835b81811015612247578061223388826121d3565b845260208401935050602081019050612220565b5050509392505050565b600082601f83011261226657612265611890565b5b81516122768482602086016121e8565b91505092915050565b600080604083850312156122965761229561168f565b5b600083015167ffffffffffffffff8111156122b4576122b3611694565b5b6122c085828601612251565b925050602083015167ffffffffffffffff8111156122e1576122e0611694565b5b6122ed85828601612251565b9150509250929050565b7f4e487b7100000000000000000000000000000000000000000000000000000000600052603260045260246000fdfea26469706673582212200408e860c719937938abdd1a22d66c8f2b4d55e6880fe71415e2303b1ee37ab464736f6c634300080c0033",
  "immutableReferences": {},
  "source": "// SPDX-License-Identifier: MIT\n\npragma solidity ^0.8.0;\n\nimport \"./NonSafeTokenTimelockProxy.sol\";\n\n/**\n * @dev DAO Voting contract\n */\ncontract NonSafeVoting {\n    // The contract used for votes weights\n    address public _tokenTimelocks;\n\n    // The number of votes quantity able to validate a proposal\n    uint256 public _minQuorum;\n\n    // Minimum time before execution\n    uint256 public _minDebatingPeriod;\n\n    // Minimum time difference between a lock time and a debate execution\n    uint256 public _minDifferenceLockPeriod;\n\n    // List of Proposals for Artifact generated by assignee\n    mapping(uint256 => Proposal) public _proposals;\n\n    // Number of Proposals\n    uint256 public _numProposals;\n\n    /**\n     * Structure used to manipulate a proposal\n     */\n    struct Proposal {\n        string metadata;\n        uint256 executionDate;\n        uint256 quorum;\n        mapping(uint256 => Suggestion) suggestions;\n        uint256 numSuggestions;\n        mapping(address => Vote) votes;\n        bool executed;\n        bool proposalPassed;\n        uint256 finalResult;\n    }\n\n    /**\n     * Structure used to manipulate a suggestion\n     */\n    struct Suggestion {\n        address advisor;\n        string metadata;\n        mapping(uint256 => address) votes;\n        uint256 numVotes;\n        uint256 votesQuantity;\n    }\n\n    /**\n     * Structure used to manipulate a vote of a single member\n     */\n    struct Vote {\n        bool voted;\n        uint256 suggestionID;\n        uint256 voteID;\n    }\n\n    /**\n     * Event for a proposal added\n     */\n    event ProposalAdded(\n        uint256 proposalID,\n        string metadata,\n        uint256 executionDate\n    );\n\n    /**\n     * Event for a suggestion added\n     */\n    event SuggestionAdded(\n        uint256 proposalID,\n        uint256 suggestionID,\n        address advisor,\n        string metadata\n    );\n\n    /**\n     * Event for a vote\n     */\n    event Voted(\n        uint256 proposalID,\n        uint256 suggestionID,\n        address voter,\n        uint256 voteWeight\n    );\n\n    /**\n     * Event for a vote changed\n     */\n    event VoteChanged(\n        uint256 proposalID,\n        uint256 oldSuggestionID,\n        uint256 newSuggestionID,\n        address voter,\n        uint256 voteWeight\n    );\n\n    /**\n     * Event for an execution\n     */\n    event ProposalExecuted(\n        uint256 proposalID,\n        bool proposalPassed,\n        uint256 finalResult\n    );\n\n    /**\n     * @dev Modifier to allow only operating with existing suggestion\n     */\n    modifier suggestionExists(uint256 proposalID, uint256 suggestionID) {\n        require(proposalID < _numProposals);\n        require(suggestionID < _proposals[proposalID].numSuggestions);\n        _;\n    }\n\n    /**\n     * @param tokenTimelockProxy Address of the token timelock proxy used for weight\n     * @param minimumQuorumForProposals Number used to validate a vote in the execution\n     * @param minTimeForDebate minimum time required before execution\n     */\n    constructor(\n        address tokenTimelockProxy,\n        uint256 minimumQuorumForProposals,\n        uint256 minTimeForDebate,\n        uint256 minDifferenceLockPeriod_\n    ) {\n        _tokenTimelocks = tokenTimelockProxy;\n        _minQuorum = minimumQuorumForProposals;\n        _minDebatingPeriod = minTimeForDebate;\n        _minDifferenceLockPeriod = minDifferenceLockPeriod_;\n    }\n\n    /**\n     * @dev Add Proposal\n     */\n    function submitProposal(\n        string memory metadata,\n        uint256 debatingPeriod,\n        uint256 quorum\n    ) public returns (uint256 proposalID) {\n        require(\n            debatingPeriod >= _minDebatingPeriod,\n            \"Less than the minimum debating period\"\n        );\n        require(quorum >= _minQuorum, \"Less than the minimum quorum\");\n        uint256 executionDate = block.timestamp + debatingPeriod;\n        require(\n            checkLockedTokens(\n                msg.sender,\n                executionDate + _minDifferenceLockPeriod\n            ) > 0,\n            \"Not enough tokens locked\"\n        );\n\n        proposalID = _numProposals++;\n        Proposal storage p = _proposals[proposalID];\n        p.metadata = metadata;\n        p.executionDate = executionDate;\n        p.quorum = quorum;\n\n        emit ProposalAdded(proposalID, metadata, executionDate);\n\n        return proposalID;\n    }\n\n    /**\n     * @dev Add Suggestion\n     */\n    function submitSuggestion(uint256 proposalID, string memory metadata)\n        public\n        returns (uint256 suggestionID)\n    {\n        require(proposalID < _numProposals, \"Wrong roposal id\");\n        Proposal storage p = _proposals[proposalID];\n        require(\n            !p.executed && block.timestamp < p.executionDate,\n            \"Proposal executed or to be executed\"\n        );\n        require(\n            checkLockedTokens(\n                msg.sender,\n                p.executionDate + _minDifferenceLockPeriod\n            ) > 0,\n            \"Not enough tokens locked\"\n        );\n\n        suggestionID = p.numSuggestions++;\n        Suggestion storage s = p.suggestions[suggestionID];\n        s.advisor = msg.sender;\n        s.metadata = metadata;\n\n        emit SuggestionAdded(proposalID, suggestionID, msg.sender, metadata);\n\n        return suggestionID;\n    }\n\n    /**\n     * @dev Log a vote for a proposal\n     */\n    function vote(uint256 proposalID, uint256 suggestionID)\n        public\n        returns (uint256 voteID)\n    {\n        require(proposalID < _numProposals);\n        Proposal storage p = _proposals[proposalID];\n        require(!p.executed && block.timestamp <= p.executionDate);\n        uint256 voteWeigth =\n            checkLockedTokens(\n                msg.sender,\n                p.executionDate + _minDifferenceLockPeriod\n            );\n        require(voteWeigth > 0, \"Not enough tokens locked\");\n        Vote storage v = p.votes[msg.sender];\n        require(!v.voted);\n        require(suggestionID < p.numSuggestions);\n\n        Suggestion storage s = p.suggestions[suggestionID];\n        v.voted = true;\n        v.suggestionID = suggestionID;\n        v.voteID = s.numVotes++;\n        s.votes[v.voteID] = msg.sender;\n        s.votesQuantity += voteWeigth;\n\n        emit Voted(proposalID, suggestionID, msg.sender, voteWeigth);\n\n        return v.voteID;\n    }\n\n    /**\n     * @dev Change vote for a proposal\n     */\n    function changeVote(uint256 proposalID, uint256 newSuggestionID)\n        public\n        returns (uint256 voteID)\n    {\n        require(proposalID < _numProposals);\n        Proposal storage p = _proposals[proposalID];\n        require(!p.executed && block.timestamp <= p.executionDate);\n        uint256 voteWeigth =\n            checkLockedTokens(\n                msg.sender,\n                p.executionDate + _minDifferenceLockPeriod\n            );\n        require(voteWeigth > 0, \"Not enough tokens locked\");\n        Vote storage v = p.votes[msg.sender];\n        require(v.voted);\n        require(v.suggestionID != newSuggestionID);\n        require(newSuggestionID < p.numSuggestions);\n\n        uint256 oldSuggestionID = v.suggestionID;\n        v.suggestionID = newSuggestionID;\n        Suggestion storage oldSuggestion = p.suggestions[oldSuggestionID];\n        Suggestion storage newSuggestion = p.suggestions[newSuggestionID];\n\n        uint256 index = v.voteID;\n        if (oldSuggestion.numVotes > 1) {\n            address last = oldSuggestion.votes[oldSuggestion.numVotes - 1];\n            oldSuggestion.votes[index] = last;\n            Vote storage vLast = p.votes[last];\n            vLast.voteID = index;\n        }\n        oldSuggestion.numVotes--;\n        oldSuggestion.votesQuantity -= voteWeigth;\n\n        v.voteID = newSuggestion.numVotes++;\n        newSuggestion.votes[v.voteID] = msg.sender;\n        newSuggestion.votesQuantity += voteWeigth;\n\n        emit VoteChanged(\n            proposalID,\n            oldSuggestionID,\n            newSuggestionID,\n            msg.sender,\n            voteWeigth\n        );\n\n        return v.voteID;\n    }\n\n    /**\n     * @dev Finish vote, count the votes proposal and execute\n     */\n    function executeProposal(uint256 proposalID) public {\n        require(proposalID < _numProposals);\n        Proposal storage p = _proposals[proposalID];\n        require(!p.executed && block.timestamp >= p.executionDate);\n\n        p.executed = true;\n        uint256 tmpMax = 0;\n        uint256 tmpTotal = p.suggestions[tmpMax].votesQuantity;\n        for (uint256 i = 1; i < p.numSuggestions; i++) {\n            tmpTotal += p.suggestions[i].votesQuantity;\n            if (\n                p.suggestions[i].votesQuantity >\n                p.suggestions[tmpMax].votesQuantity\n            ) {\n                tmpMax = i;\n            }\n        }\n\n        if (tmpTotal > p.quorum) {\n            p.proposalPassed = true;\n            p.finalResult = tmpMax;\n        } else {\n            p.proposalPassed = false;\n        }\n\n        emit ProposalExecuted(proposalID, p.proposalPassed, p.finalResult);\n    }\n\n    function checkLockedTokens(address locker, uint256 minDate)\n        public\n        view\n        returns (uint256)\n    {\n        uint256 lockedTokens = 0;\n        (uint256[] memory releaseTimes, uint256[] memory balances) =\n            NonSafeTokenTimelockProxy(_tokenTimelocks)\n                .checkLockerReleaseTimesAndBalances(locker);\n        for (uint256 i = 0; i < releaseTimes.length; i++) {\n            if (releaseTimes[i] >= minDate) {\n                lockedTokens += balances[i];\n            }\n        }\n        return lockedTokens;\n    }\n\n    /**\n     * @return true if a proposal is executed\n     */\n    function isExecuted(uint256 proposalID) public view returns (bool) {\n        require(proposalID < _numProposals);\n        return _proposals[proposalID].executed;\n    }\n\n    /**\n     * @return Get proposal final result\n     */\n    function getProposalFinalResult(uint256 proposalID)\n        public\n        view\n        returns (uint256)\n    {\n        require(proposalID < _numProposals);\n        require(isExecuted(proposalID), \"Proposal not yet executed\");\n\n        return _proposals[proposalID].finalResult;\n    }\n\n    /**\n     * @return Proposal metadata\n     */\n    function getProposalMetadata(uint256 proposalID)\n        public\n        view\n        returns (string memory)\n    {\n        require(proposalID < _numProposals);\n\n        return _proposals[proposalID].metadata;\n    }\n\n    /**\n     * @return Proposal suggestion metadata\n     */\n    function getProposalSuggestionMetadata(\n        uint256 proposalID,\n        uint256 suggestionID\n    )\n        public\n        view\n        suggestionExists(proposalID, suggestionID)\n        returns (string memory)\n    {\n        return _proposals[proposalID].suggestions[suggestionID].metadata;\n    }\n\n    /**\n     * @return Number of proposals suggestions\n     */\n    function numberOfProposalSuggestions(uint256 proposalID)\n        public\n        view\n        returns (uint256)\n    {\n        require(proposalID < _numProposals);\n        return _proposals[proposalID].numSuggestions;\n    }\n\n    /**\n     * @return Number of votes of proposal suggestion\n     */\n    function getProposalSuggestionVotes(\n        uint256 proposalID,\n        uint256 suggestionID\n    ) public view suggestionExists(proposalID, suggestionID) returns (uint256) {\n        return _proposals[proposalID].suggestions[suggestionID].numVotes;\n    }\n\n    /**\n     * @return Quantity of votes of proposal suggestion\n     */\n    function getProposalSuggestionVotesQuantity(\n        uint256 proposalID,\n        uint256 suggestionID\n    ) public view suggestionExists(proposalID, suggestionID) returns (uint256) {\n        return _proposals[proposalID].suggestions[suggestionID].votesQuantity;\n    }\n\n    /**\n     * @return true if account voted for suggestionID in proposalID\n     */\n    function hasVotedFor(\n        address account,\n        uint256 proposalID,\n        uint256 suggestionID\n    ) public view suggestionExists(proposalID, suggestionID) returns (bool) {\n        return\n            _proposals[proposalID].votes[account].suggestionID == suggestionID;\n    }\n}\n",
  "sourcePath": "/home/miker/workspace/decentralized-auth/k-dao/contracts/others/NonSafeVoting.sol",
  "compiler": {
    "name": "solc",
    "version": "0.8.12+commit.f00d7308.Emscripten.clang"
  },
  "schemaVersion": "3.4.5",
  "updatedAt": "2022-04-30T06:20:12.950Z",
  "devdoc": {
    "details": "DAO Voting contract",
    "kind": "dev",
    "methods": {
      "changeVote(uint256,uint256)": {
        "details": "Change vote for a proposal"
      },
      "constructor": {
        "params": {
          "minTimeForDebate": "minimum time required before execution",
          "minimumQuorumForProposals": "Number used to validate a vote in the execution",
          "tokenTimelockProxy": "Address of the token timelock proxy used for weight"
        }
      },
      "executeProposal(uint256)": {
        "details": "Finish vote, count the votes proposal and execute"
      },
      "getProposalFinalResult(uint256)": {
        "returns": {
          "_0": "Get proposal final result"
        }
      },
      "getProposalMetadata(uint256)": {
        "returns": {
          "_0": "Proposal metadata"
        }
      },
      "getProposalSuggestionMetadata(uint256,uint256)": {
        "returns": {
          "_0": "Proposal suggestion metadata"
        }
      },
      "getProposalSuggestionVotes(uint256,uint256)": {
        "returns": {
          "_0": "Number of votes of proposal suggestion"
        }
      },
      "getProposalSuggestionVotesQuantity(uint256,uint256)": {
        "returns": {
          "_0": "Quantity of votes of proposal suggestion"
        }
      },
      "hasVotedFor(address,uint256,uint256)": {
        "returns": {
          "_0": "true if account voted for suggestionID in proposalID"
        }
      },
      "isExecuted(uint256)": {
        "returns": {
          "_0": "true if a proposal is executed"
        }
      },
      "numberOfProposalSuggestions(uint256)": {
        "returns": {
          "_0": "Number of proposals suggestions"
        }
      },
      "submitProposal(string,uint256,uint256)": {
        "details": "Add Proposal"
      },
      "submitSuggestion(uint256,string)": {
        "details": "Add Suggestion"
      },
      "vote(uint256,uint256)": {
        "details": "Log a vote for a proposal"
      }
    },
    "version": 1
  },
  "userdoc": {
    "events": {
      "ProposalAdded(uint256,string,uint256)": {
        "notice": "Event for a proposal added"
      },
      "ProposalExecuted(uint256,bool,uint256)": {
        "notice": "Event for an execution"
      },
      "SuggestionAdded(uint256,uint256,address,string)": {
        "notice": "Event for a suggestion added"
      },
      "VoteChanged(uint256,uint256,uint256,address,uint256)": {
        "notice": "Event for a vote changed"
      },
      "Voted(uint256,uint256,address,uint256)": {
        "notice": "Event for a vote"
      }
    },
    "kind": "user",
    "methods": {},
    "version": 1
  }
}