{
  "contractName": "NonSafeTokenTimelockProxy",
  "abi": [
    {
      "inputs": [
        {
          "internalType": "address",
          "name": "token_",
          "type": "address"
        },
        {
          "internalType": "address",
          "name": "implementation_",
          "type": "address"
        }
      ],
      "stateMutability": "nonpayable",
      "type": "constructor"
    },
    {
      "anonymous": false,
      "inputs": [
        {
          "indexed": false,
          "internalType": "uint256",
          "name": "amount",
          "type": "uint256"
        }
      ],
      "name": "TokensLocked",
      "type": "event"
    },
    {
      "inputs": [
        {
          "internalType": "uint256",
          "name": "",
          "type": "uint256"
        }
      ],
      "name": "_clonedContracts",
      "outputs": [
        {
          "internalType": "address",
          "name": "",
          "type": "address"
        }
      ],
      "stateMutability": "view",
      "type": "function"
    },
    {
      "inputs": [
        {
          "internalType": "address",
          "name": "",
          "type": "address"
        },
        {
          "internalType": "uint256",
          "name": "",
          "type": "uint256"
        }
      ],
      "name": "_clonedContractsPerUser",
      "outputs": [
        {
          "internalType": "uint256",
          "name": "",
          "type": "uint256"
        }
      ],
      "stateMutability": "view",
      "type": "function"
    },
    {
      "inputs": [
        {
          "internalType": "address",
          "name": "beneficiary_",
          "type": "address"
        },
        {
          "internalType": "uint256",
          "name": "amountToLock_",
          "type": "uint256"
        },
        {
          "internalType": "uint256",
          "name": "releaseTime_",
          "type": "uint256"
        }
      ],
      "name": "lockTokens",
      "outputs": [
        {
          "internalType": "address",
          "name": "",
          "type": "address"
        }
      ],
      "stateMutability": "nonpayable",
      "type": "function"
    },
    {
      "inputs": [
        {
          "internalType": "address",
          "name": "locker",
          "type": "address"
        }
      ],
      "name": "checkLocker",
      "outputs": [
        {
          "internalType": "address[]",
          "name": "",
          "type": "address[]"
        }
      ],
      "stateMutability": "view",
      "type": "function"
    },
    {
      "inputs": [
        {
          "internalType": "address",
          "name": "locker",
          "type": "address"
        }
      ],
      "name": "checkLockerReleaseTimesAndBalances",
      "outputs": [
        {
          "internalType": "uint256[]",
          "name": "",
          "type": "uint256[]"
        },
        {
          "internalType": "uint256[]",
          "name": "",
          "type": "uint256[]"
        }
      ],
      "stateMutability": "view",
      "type": "function"
    }
  ],
  "bytecode": "0x60c06040523480156200001157600080fd5b50604051620011b5380380620011b5833981810160405281019062000037919062000111565b8073ffffffffffffffffffffffffffffffffffffffff1660a08173ffffffffffffffffffffffffffffffffffffffff16815250508173ffffffffffffffffffffffffffffffffffffffff1660808173ffffffffffffffffffffffffffffffffffffffff1681525050505062000158565b600080fd5b600073ffffffffffffffffffffffffffffffffffffffff82169050919050565b6000620000d982620000ac565b9050919050565b620000eb81620000cc565b8114620000f757600080fd5b50565b6000815190506200010b81620000e0565b92915050565b600080604083850312156200012b576200012a620000a7565b5b60006200013b85828601620000fa565b92505060206200014e85828601620000fa565b9150509250929050565b60805160a0516110296200018c60003960006106090152600081816105270152818161064d01526106c001526110296000f3fe608060405234801561001057600080fd5b50600436106100575760003560e01c80633e7929601461005c57806354bb83c11461008c5780635d964aed146100bd578063a25983e5146100ed578063aa55a5991461011d575b600080fd5b61007660048036038101906100719190610985565b61014d565b60405161008391906109f3565b60405180910390f35b6100a660048036038101906100a19190610a3a565b61018c565b6040516100b4929190610b25565b60405180910390f35b6100d760048036038101906100d29190610a3a565b6103b6565b6040516100e49190610c1a565b60405180910390f35b61010760048036038101906101029190610c3c565b610522565b60405161011491906109f3565b60405180910390f35b61013760048036038101906101329190610c8f565b610844565b6040516101449190610cde565b60405180910390f35b6000818154811061015d57600080fd5b906000526020600020016000915054906101000a900473ffffffffffffffffffffffffffffffffffffffff1681565b606080600061019a846103b6565b90506000815167ffffffffffffffff8111156101b9576101b8610cf9565b5b6040519080825280602002602001820160405280156101e75781602001602082028036833780820191505090505b5090506000825167ffffffffffffffff81111561020757610206610cf9565b5b6040519080825280602002602001820160405280156102355781602001602082028036833780820191505090505b50905060005b83518110156103a75783818151811061025757610256610d28565b5b602002602001015173ffffffffffffffffffffffffffffffffffffffff1663b91d40016040518163ffffffff1660e01b8152600401602060405180830381865afa1580156102a9573d6000803e3d6000fd5b505050506040513d601f19601f820116820180604052508101906102cd9190610d6c565b8382815181106102e0576102df610d28565b5b6020026020010181815250508381815181106102ff576102fe610d28565b5b602002602001015173ffffffffffffffffffffffffffffffffffffffff1663e9932b8a6040518163ffffffff1660e01b8152600401602060405180830381865afa158015610351573d6000803e3d6000fd5b505050506040513d601f19601f820116820180604052508101906103759190610d6c565b82828151811061038857610387610d28565b5b602002602001018181525050808061039f90610dc8565b91505061023b565b50818194509450505050915091565b60606000600160008473ffffffffffffffffffffffffffffffffffffffff1673ffffffffffffffffffffffffffffffffffffffff16815260200190815260200160002090506000818054905067ffffffffffffffff81111561041b5761041a610cf9565b5b6040519080825280602002602001820160405280156104495781602001602082028036833780820191505090505b50905060005b82805490508110156105175760008382815481106104705761046f610d28565b5b90600052602060002001548154811061048c5761048b610d28565b5b9060005260206000200160009054906101000a900473ffffffffffffffffffffffffffffffffffffffff168282815181106104ca576104c9610d28565b5b602002602001019073ffffffffffffffffffffffffffffffffffffffff16908173ffffffffffffffffffffffffffffffffffffffff1681525050808061050f90610dc8565b91505061044f565b508092505050919050565b6000827f000000000000000000000000000000000000000000000000000000000000000073ffffffffffffffffffffffffffffffffffffffff1663dd62ed3e33306040518363ffffffff1660e01b8152600401610580929190610e11565b602060405180830381865afa15801561059d573d6000803e3d6000fd5b505050506040513d601f19601f820116820180604052508101906105c19190610d6c565b1015610602576040517f08c379a00000000000000000000000000000000000000000000000000000000081526004016105f990610e97565b60405180910390fd5b600061062d7f0000000000000000000000000000000000000000000000000000000000000000610875565b90508073ffffffffffffffffffffffffffffffffffffffff16631794bb3c7f000000000000000000000000000000000000000000000000000000000000000087866040518463ffffffff1660e01b815260040161068c93929190610eb7565b600060405180830381600087803b1580156106a657600080fd5b505af11580156106ba573d6000803e3d6000fd5b505050507f000000000000000000000000000000000000000000000000000000000000000073ffffffffffffffffffffffffffffffffffffffff166323b872dd3383876040518463ffffffff1660e01b815260040161071b93929190610eb7565b6020604051808303816000875af115801561073a573d6000803e3d6000fd5b505050506040513d601f19601f8201168201806040525081019061075e9190610f26565b506000819080600181540180825580915050600190039060005260206000200160009091909190916101000a81548173ffffffffffffffffffffffffffffffffffffffff021916908373ffffffffffffffffffffffffffffffffffffffff160217905550600160003373ffffffffffffffffffffffffffffffffffffffff1673ffffffffffffffffffffffffffffffffffffffff16815260200190815260200160002060016000805490506108139190610f53565b9080600181540180825580915050600190039060005260206000200160009091909190915055809150509392505050565b6001602052816000526040600020818154811061086057600080fd5b90600052602060002001600091509150505481565b60006040517f3d602d80600a3d3981f3363d3d373d3d3d363d7300000000000000000000000081528260601b60148201527f5af43d82803e903d91602b57fd5bf3000000000000000000000000000000000060288201526037816000f0915050600073ffffffffffffffffffffffffffffffffffffffff168173ffffffffffffffffffffffffffffffffffffffff161415610945576040517f08c379a000000000000000000000000000000000000000000000000000000000815260040161093c90610fd3565b60405180910390fd5b919050565b600080fd5b6000819050919050565b6109628161094f565b811461096d57600080fd5b50565b60008135905061097f81610959565b92915050565b60006020828403121561099b5761099a61094a565b5b60006109a984828501610970565b91505092915050565b600073ffffffffffffffffffffffffffffffffffffffff82169050919050565b60006109dd826109b2565b9050919050565b6109ed816109d2565b82525050565b6000602082019050610a0860008301846109e4565b92915050565b610a17816109d2565b8114610a2257600080fd5b50565b600081359050610a3481610a0e565b92915050565b600060208284031215610a5057610a4f61094a565b5b6000610a5e84828501610a25565b91505092915050565b600081519050919050565b600082825260208201905092915050565b6000819050602082019050919050565b610a9c8161094f565b82525050565b6000610aae8383610a93565b60208301905092915050565b6000602082019050919050565b6000610ad282610a67565b610adc8185610a72565b9350610ae783610a83565b8060005b83811015610b18578151610aff8882610aa2565b9750610b0a83610aba565b925050600181019050610aeb565b5085935050505092915050565b60006040820190508181036000830152610b3f8185610ac7565b90508181036020830152610b538184610ac7565b90509392505050565b600081519050919050565b600082825260208201905092915050565b6000819050602082019050919050565b610b91816109d2565b82525050565b6000610ba38383610b88565b60208301905092915050565b6000602082019050919050565b6000610bc782610b5c565b610bd18185610b67565b9350610bdc83610b78565b8060005b83811015610c0d578151610bf48882610b97565b9750610bff83610baf565b925050600181019050610be0565b5085935050505092915050565b60006020820190508181036000830152610c348184610bbc565b905092915050565b600080600060608486031215610c5557610c5461094a565b5b6000610c6386828701610a25565b9350506020610c7486828701610970565b9250506040610c8586828701610970565b9150509250925092565b60008060408385031215610ca657610ca561094a565b5b6000610cb485828601610a25565b9250506020610cc585828601610970565b9150509250929050565b610cd88161094f565b82525050565b6000602082019050610cf36000830184610ccf565b92915050565b7f4e487b7100000000000000000000000000000000000000000000000000000000600052604160045260246000fd5b7f4e487b7100000000000000000000000000000000000000000000000000000000600052603260045260246000fd5b600081519050610d6681610959565b92915050565b600060208284031215610d8257610d8161094a565b5b6000610d9084828501610d57565b91505092915050565b7f4e487b7100000000000000000000000000000000000000000000000000000000600052601160045260246000fd5b6000610dd38261094f565b91507fffffffffffffffffffffffffffffffffffffffffffffffffffffffffffffffff821415610e0657610e05610d99565b5b600182019050919050565b6000604082019050610e2660008301856109e4565b610e3360208301846109e4565b9392505050565b600082825260208201905092915050565b7f496e73756666696369656e742042616c616e6365000000000000000000000000600082015250565b6000610e81601483610e3a565b9150610e8c82610e4b565b602082019050919050565b60006020820190508181036000830152610eb081610e74565b9050919050565b6000606082019050610ecc60008301866109e4565b610ed960208301856109e4565b610ee66040830184610ccf565b949350505050565b60008115159050919050565b610f0381610eee565b8114610f0e57600080fd5b50565b600081519050610f2081610efa565b92915050565b600060208284031215610f3c57610f3b61094a565b5b6000610f4a84828501610f11565b91505092915050565b6000610f5e8261094f565b9150610f698361094f565b925082821015610f7c57610f7b610d99565b5b828203905092915050565b7f455243313136373a20637265617465206661696c656400000000000000000000600082015250565b6000610fbd601683610e3a565b9150610fc882610f87565b602082019050919050565b60006020820190508181036000830152610fec81610fb0565b905091905056fea26469706673582212201f6272e6c397034565cb3fb1ab563010be3642bda70f49c97741cd3b2f9a873264736f6c634300080c0033",
  "immutableReferences": {
    "1445": [
      {
        "length": 32,
        "start": 1319
      },
      {
        "length": 32,
        "start": 1613
      },
      {
        "length": 32,
        "start": 1728
      }
    ],
    "1447": [
      {
        "length": 32,
        "start": 1545
      }
    ]
  },
  "source": "// SPDX-License-Identifier: MIT\n\npragma solidity ^0.8.0;\n\nimport \"./NonSafeSimpleTimelockUpgradeable.sol\";\nimport \"../../node_modules/@openzeppelin/contracts/proxy/Clones.sol\";\n\n/**\n * @dev A token timelock proxy to create ERC20 token timelock contracts\n * for several addresses.\n *\n */\ncontract NonSafeTokenTimelockProxy {\n    // Token to lock on chain contract\n    address immutable _tokenToLock;\n\n    // Token Timelock on chain contract\n    address immutable _implementation;\n\n    // List of cloned Timelock contracts\n    address[] public _clonedContracts;\n\n    // List of cloned Timelock contracts per address\n    mapping(address => uint256[]) public _clonedContractsPerUser;\n\n    /**\n     * Event for a proposal added\n     */\n    event TokensLocked(uint256 amount);\n\n    constructor(address token_, address implementation_) {\n        _implementation = implementation_;\n        _tokenToLock = token_;\n    }\n\n    /**\n     * @dev Creates a new Timelock contract\n     * @return the contract address\n     */\n    function lockTokens(\n        address beneficiary_,\n        uint256 amountToLock_,\n        uint256 releaseTime_\n    ) public returns (address) {\n        require(\n            IERC20Upgradeable(_tokenToLock).allowance(\n                msg.sender,\n                address(this)\n            ) >= amountToLock_,\n            \"Insufficient Balance\"\n        );\n\n        address clone = Clones.clone(_implementation);\n        NonSafeSimpleTimelockUpgradeable(clone).initialize(\n            _tokenToLock,\n            beneficiary_,\n            releaseTime_\n        );\n\n        IERC20Upgradeable(_tokenToLock).transferFrom(\n            msg.sender,\n            clone,\n            amountToLock_\n        );\n\n        _clonedContracts.push(clone);\n        _clonedContractsPerUser[msg.sender].push(_clonedContracts.length - 1);\n\n        return clone;\n    }\n\n    function checkLocker(address locker)\n        public\n        view\n        returns (address[] memory)\n    {\n        uint256[] storage clonedIds = _clonedContractsPerUser[locker];\n        address[] memory lockerClonesAddresses =\n            new address[](clonedIds.length);\n\n        for (uint256 i = 0; i < clonedIds.length; i++) {\n            lockerClonesAddresses[i] = (_clonedContracts[clonedIds[i]]);\n        }\n\n        return lockerClonesAddresses;\n    }\n\n    function checkLockerReleaseTimesAndBalances(address locker)\n        public\n        view\n        returns (uint256[] memory, uint256[] memory)\n    {\n        address[] memory lockerClonesAddresses = checkLocker(locker);\n        uint256[] memory releaseTimes =\n            new uint256[](lockerClonesAddresses.length);\n        uint256[] memory balances = new uint256[](lockerClonesAddresses.length);\n\n        for (uint256 i = 0; i < lockerClonesAddresses.length; i++) {\n            releaseTimes[i] = NonSafeSimpleTimelockUpgradeable(\n                lockerClonesAddresses[i]\n            )\n                .releaseTime();\n            balances[i] = NonSafeSimpleTimelockUpgradeable(\n                lockerClonesAddresses[i]\n            )\n                .balanceLocked();\n        }\n\n        return (releaseTimes, balances);\n    }\n}\n",
  "sourcePath": "/home/miker/workspace/decentralized-auth/k-dao/contracts/others/NonSafeTokenTimelockProxy.sol",
  "compiler": {
    "name": "solc",
    "version": "0.8.12+commit.f00d7308.Emscripten.clang"
  },
  "schemaVersion": "3.4.5",
  "updatedAt": "2022-04-30T06:20:12.936Z",
  "devdoc": {
    "details": "A token timelock proxy to create ERC20 token timelock contracts for several addresses.",
    "kind": "dev",
    "methods": {
      "lockTokens(address,uint256,uint256)": {
        "details": "Creates a new Timelock contract",
        "returns": {
          "_0": "the contract address"
        }
      }
    },
    "version": 1
  },
  "userdoc": {
    "events": {
      "TokensLocked(uint256)": {
        "notice": "Event for a proposal added"
      }
    },
    "kind": "user",
    "methods": {},
    "version": 1
  }
}