{
  "contractName": "SimpleTimelockUpgradeable",
  "abi": [
    {
      "anonymous": false,
      "inputs": [
        {
          "indexed": false,
          "internalType": "uint8",
          "name": "version",
          "type": "uint8"
        }
      ],
      "name": "Initialized",
      "type": "event"
    },
    {
      "inputs": [],
      "name": "beneficiary",
      "outputs": [
        {
          "internalType": "address",
          "name": "",
          "type": "address"
        }
      ],
      "stateMutability": "view",
      "type": "function"
    },
    {
      "inputs": [],
      "name": "release",
      "outputs": [],
      "stateMutability": "nonpayable",
      "type": "function"
    },
    {
      "inputs": [],
      "name": "releaseTime",
      "outputs": [
        {
          "internalType": "uint256",
          "name": "",
          "type": "uint256"
        }
      ],
      "stateMutability": "view",
      "type": "function"
    },
    {
      "inputs": [],
      "name": "token",
      "outputs": [
        {
          "internalType": "contract IERC20Upgradeable",
          "name": "",
          "type": "address"
        }
      ],
      "stateMutability": "view",
      "type": "function"
    },
    {
      "inputs": [
        {
          "internalType": "address",
          "name": "token_",
          "type": "address"
        },
        {
          "internalType": "address",
          "name": "beneficiary_",
          "type": "address"
        },
        {
          "internalType": "uint256",
          "name": "releaseTime_",
          "type": "uint256"
        }
      ],
      "name": "initialize",
      "outputs": [],
      "stateMutability": "nonpayable",
      "type": "function"
    },
    {
      "inputs": [],
      "name": "balanceLocked",
      "outputs": [
        {
          "internalType": "uint256",
          "name": "",
          "type": "uint256"
        }
      ],
      "stateMutability": "view",
      "type": "function"
    }
  ],
  "bytecode": "0x608060405234801561001057600080fd5b506111e9806100206000396000f3fe608060405234801561001057600080fd5b50600436106100625760003560e01c80631794bb3c1461006757806338af3eed1461008357806386d1a69f146100a1578063b91d4001146100ab578063e9932b8a146100c9578063fc0c546a146100e7575b600080fd5b610081600480360381019061007c91906109dc565b610105565b005b61008b61019f565b6040516100989190610a3e565b60405180910390f35b6100a96101c9565b005b6100b3610317565b6040516100c09190610a68565b60405180910390f35b6100d1610321565b6040516100de9190610a68565b60405180910390f35b6100ef6103a9565b6040516100fc9190610ae2565b60405180910390f35b600061011160016103d2565b90508015610135576001600060016101000a81548160ff0219169083151502179055505b6101408484846104c2565b80156101995760008060016101000a81548160ff0219169083151502179055507f7f26b83ff96e1f2b6a682f133852f6798a09c465da95921460cefb384740249860016040516101909190610b45565b60405180910390a15b50505050565b6000600160009054906101000a900473ffffffffffffffffffffffffffffffffffffffff16905090565b6101d1610317565b421015610213576040517f08c379a000000000000000000000000000000000000000000000000000000000815260040161020a90610be3565b60405180910390fd5b600061021d6103a9565b73ffffffffffffffffffffffffffffffffffffffff166370a08231306040518263ffffffff1660e01b81526004016102559190610a3e565b602060405180830381865afa158015610272573d6000803e3d6000fd5b505050506040513d601f19601f820116820180604052508101906102969190610c18565b9050600081116102db576040517f08c379a00000000000000000000000000000000000000000000000000000000081526004016102d290610cb7565b60405180910390fd5b6103146102e661019f565b826102ef6103a9565b73ffffffffffffffffffffffffffffffffffffffff166105219092919063ffffffff16565b50565b6000600254905090565b600061032b6103a9565b73ffffffffffffffffffffffffffffffffffffffff166370a08231306040518263ffffffff1660e01b81526004016103639190610a3e565b602060405180830381865afa158015610380573d6000803e3d6000fd5b505050506040513d601f19601f820116820180604052508101906103a49190610c18565b905090565b60008060029054906101000a900473ffffffffffffffffffffffffffffffffffffffff16905090565b60008060019054906101000a900460ff16156104495760018260ff1614801561040157506103ff306105a7565b155b610440576040517f08c379a000000000000000000000000000000000000000000000000000000000815260040161043790610d49565b60405180910390fd5b600090506104bd565b8160ff1660008054906101000a900460ff1660ff161061049e576040517f08c379a000000000000000000000000000000000000000000000000000000000815260040161049590610d49565b60405180910390fd5b816000806101000a81548160ff021916908360ff160217905550600190505b919050565b600060019054906101000a900460ff16610511576040517f08c379a000000000000000000000000000000000000000000000000000000000815260040161050890610ddb565b60405180910390fd5b61051c8383836105ca565b505050565b6105a28363a9059cbb60e01b8484604051602401610540929190610dfb565b604051602081830303815290604052907bffffffffffffffffffffffffffffffffffffffffffffffffffffffff19166020820180517bffffffffffffffffffffffffffffffffffffffffffffffffffffffff83818316178352505050506106e9565b505050565b6000808273ffffffffffffffffffffffffffffffffffffffff163b119050919050565b600060019054906101000a900460ff16610619576040517f08c379a000000000000000000000000000000000000000000000000000000000815260040161061090610ddb565b60405180910390fd5b42811161065b576040517f08c379a000000000000000000000000000000000000000000000000000000000815260040161065290610e96565b60405180910390fd5b82600060026101000a81548173ffffffffffffffffffffffffffffffffffffffff021916908373ffffffffffffffffffffffffffffffffffffffff16021790555081600160006101000a81548173ffffffffffffffffffffffffffffffffffffffff021916908373ffffffffffffffffffffffffffffffffffffffff16021790555080600281905550505050565b600061074b826040518060400160405280602081526020017f5361666545524332303a206c6f772d6c6576656c2063616c6c206661696c65648152508573ffffffffffffffffffffffffffffffffffffffff166107b09092919063ffffffff16565b90506000815111156107ab578080602001905181019061076b9190610eee565b6107aa576040517f08c379a00000000000000000000000000000000000000000000000000000000081526004016107a190610f8d565b60405180910390fd5b5b505050565b60606107bf84846000856107c8565b90509392505050565b60608247101561080d576040517f08c379a00000000000000000000000000000000000000000000000000000000081526004016108049061101f565b60405180910390fd5b610816856105a7565b610855576040517f08c379a000000000000000000000000000000000000000000000000000000000815260040161084c9061108b565b60405180910390fd5b6000808673ffffffffffffffffffffffffffffffffffffffff16858760405161087e9190611125565b60006040518083038185875af1925050503d80600081146108bb576040519150601f19603f3d011682016040523d82523d6000602084013e6108c0565b606091505b50915091506108d08282866108dc565b92505050949350505050565b606083156108ec5782905061093c565b6000835111156108ff5782518084602001fd5b816040517f08c379a00000000000000000000000000000000000000000000000000000000081526004016109339190611191565b60405180910390fd5b9392505050565b600080fd5b600073ffffffffffffffffffffffffffffffffffffffff82169050919050565b600061097382610948565b9050919050565b61098381610968565b811461098e57600080fd5b50565b6000813590506109a08161097a565b92915050565b6000819050919050565b6109b9816109a6565b81146109c457600080fd5b50565b6000813590506109d6816109b0565b92915050565b6000806000606084860312156109f5576109f4610943565b5b6000610a0386828701610991565b9350506020610a1486828701610991565b9250506040610a25868287016109c7565b9150509250925092565b610a3881610968565b82525050565b6000602082019050610a536000830184610a2f565b92915050565b610a62816109a6565b82525050565b6000602082019050610a7d6000830184610a59565b92915050565b6000819050919050565b6000610aa8610aa3610a9e84610948565b610a83565b610948565b9050919050565b6000610aba82610a8d565b9050919050565b6000610acc82610aaf565b9050919050565b610adc81610ac1565b82525050565b6000602082019050610af76000830184610ad3565b92915050565b6000819050919050565b600060ff82169050919050565b6000610b2f610b2a610b2584610afd565b610a83565b610b07565b9050919050565b610b3f81610b14565b82525050565b6000602082019050610b5a6000830184610b36565b92915050565b600082825260208201905092915050565b7f546f6b656e54696d656c6f636b3a2063757272656e742074696d65206973206260008201527f65666f72652072656c656173652074696d650000000000000000000000000000602082015250565b6000610bcd603283610b60565b9150610bd882610b71565b604082019050919050565b60006020820190508181036000830152610bfc81610bc0565b9050919050565b600081519050610c12816109b0565b92915050565b600060208284031215610c2e57610c2d610943565b5b6000610c3c84828501610c03565b91505092915050565b7f546f6b656e54696d656c6f636b3a206e6f20746f6b656e7320746f2072656c6560008201527f6173650000000000000000000000000000000000000000000000000000000000602082015250565b6000610ca1602383610b60565b9150610cac82610c45565b604082019050919050565b60006020820190508181036000830152610cd081610c94565b9050919050565b7f496e697469616c697a61626c653a20636f6e747261637420697320616c72656160008201527f647920696e697469616c697a6564000000000000000000000000000000000000602082015250565b6000610d33602e83610b60565b9150610d3e82610cd7565b604082019050919050565b60006020820190508181036000830152610d6281610d26565b9050919050565b7f496e697469616c697a61626c653a20636f6e7472616374206973206e6f74206960008201527f6e697469616c697a696e67000000000000000000000000000000000000000000602082015250565b6000610dc5602b83610b60565b9150610dd082610d69565b604082019050919050565b60006020820190508181036000830152610df481610db8565b9050919050565b6000604082019050610e106000830185610a2f565b610e1d6020830184610a59565b9392505050565b7f546f6b656e54696d656c6f636b3a2072656c656173652074696d65206973206260008201527f65666f72652063757272656e742074696d650000000000000000000000000000602082015250565b6000610e80603283610b60565b9150610e8b82610e24565b604082019050919050565b60006020820190508181036000830152610eaf81610e73565b9050919050565b60008115159050919050565b610ecb81610eb6565b8114610ed657600080fd5b50565b600081519050610ee881610ec2565b92915050565b600060208284031215610f0457610f03610943565b5b6000610f1284828501610ed9565b91505092915050565b7f5361666545524332303a204552433230206f7065726174696f6e20646964206e60008201527f6f74207375636365656400000000000000000000000000000000000000000000602082015250565b6000610f77602a83610b60565b9150610f8282610f1b565b604082019050919050565b60006020820190508181036000830152610fa681610f6a565b9050919050565b7f416464726573733a20696e73756666696369656e742062616c616e636520666f60008201527f722063616c6c0000000000000000000000000000000000000000000000000000602082015250565b6000611009602683610b60565b915061101482610fad565b604082019050919050565b6000602082019050818103600083015261103881610ffc565b9050919050565b7f416464726573733a2063616c6c20746f206e6f6e2d636f6e7472616374000000600082015250565b6000611075601d83610b60565b91506110808261103f565b602082019050919050565b600060208201905081810360008301526110a481611068565b9050919050565b600081519050919050565b600081905092915050565b60005b838110156110df5780820151818401526020810190506110c4565b838111156110ee576000848401525b50505050565b60006110ff826110ab565b61110981856110b6565b93506111198185602086016110c1565b80840191505092915050565b600061113182846110f4565b915081905092915050565b600081519050919050565b6000601f19601f8301169050919050565b60006111638261113c565b61116d8185610b60565b935061117d8185602086016110c1565b61118681611147565b840191505092915050565b600060208201905081810360008301526111ab8184611158565b90509291505056fea2646970667358221220441e65848abc08169ab478d51bfe458a72283b14735710dfbf3a72265d2c608864736f6c634300080c0033",
  "immutableReferences": {},
  "source": "// SPDX-License-Identifier: MIT\n\npragma solidity ^0.8.0;\n\n//import \"./others/NonSafeTokenTimelockUpgradeable.sol\";\nimport \"../node_modules/@openzeppelin/contracts-upgradeable/token/ERC20/utils/TokenTimelockUpgradeable.sol\";\n\ncontract SimpleTimelockUpgradeable is TokenTimelockUpgradeable {\n    function initialize(\n        address token_,\n        address beneficiary_,\n        uint256 releaseTime_\n    ) public initializer {\n        __TokenTimelock_init(\n            IERC20Upgradeable(token_),\n            beneficiary_,\n            releaseTime_\n        );\n    }\n\n    function balanceLocked() public view returns (uint256) {\n        return token().balanceOf(address(this));\n    }\n}\n",
  "sourcePath": "/home/miker/workspace/decentralized-auth/k-dao/contracts/SimpleTimelockUpgradeable.sol",
  "compiler": {
    "name": "solc",
    "version": "0.8.12+commit.f00d7308.Emscripten.clang"
  },
  "schemaVersion": "3.4.5",
  "updatedAt": "2022-05-06T15:45:59.342Z",
  "devdoc": {
    "kind": "dev",
    "methods": {
      "beneficiary()": {
        "details": "Returns the beneficiary that will receive the tokens."
      },
      "release()": {
        "details": "Transfers tokens held by the timelock to the beneficiary. Will only succeed if invoked after the release time."
      },
      "releaseTime()": {
        "details": "Returns the time when the tokens are released in seconds since Unix epoch (i.e. Unix timestamp)."
      },
      "token()": {
        "details": "Returns the token being held."
      }
    },
    "version": 1
  },
  "userdoc": {
    "kind": "user",
    "methods": {},
    "version": 1
  }
}