{
  "contractName": "SimpleTimelockUpgradeable",
  "abi": [
    {
      "inputs": [],
      "name": "beneficiary",
      "outputs": [
        {
          "internalType": "address",
          "name": "",
          "type": "address"
        }
      ],
      "stateMutability": "view",
      "type": "function",
      "constant": true
    },
    {
      "inputs": [],
      "name": "release",
      "outputs": [],
      "stateMutability": "nonpayable",
      "type": "function"
    },
    {
      "inputs": [],
      "name": "releaseTime",
      "outputs": [
        {
          "internalType": "uint256",
          "name": "",
          "type": "uint256"
        }
      ],
      "stateMutability": "view",
      "type": "function",
      "constant": true
    },
    {
      "inputs": [],
      "name": "token",
      "outputs": [
        {
          "internalType": "contract IERC20Upgradeable",
          "name": "",
          "type": "address"
        }
      ],
      "stateMutability": "view",
      "type": "function",
      "constant": true
    },
    {
      "inputs": [
        {
          "internalType": "address",
          "name": "token_",
          "type": "address"
        },
        {
          "internalType": "address",
          "name": "beneficiary_",
          "type": "address"
        },
        {
          "internalType": "uint256",
          "name": "releaseTime_",
          "type": "uint256"
        }
      ],
      "name": "initialize",
      "outputs": [],
      "stateMutability": "nonpayable",
      "type": "function"
    },
    {
      "inputs": [],
      "name": "balanceLocked",
      "outputs": [
        {
          "internalType": "uint256",
          "name": "",
          "type": "uint256"
        }
      ],
      "stateMutability": "view",
      "type": "function",
      "constant": true
    }
  ],
  "bytecode": "0x608060405234801561001057600080fd5b506110ff806100206000396000f3fe608060405234801561001057600080fd5b50600436106100625760003560e01c80631794bb3c1461006757806338af3eed1461008357806386d1a69f146100a1578063b91d4001146100ab578063e9932b8a146100c9578063fc0c546a146100e7575b600080fd5b610081600480360381019061007c9190610955565b610105565b005b61008b6101f7565b60405161009891906109b7565b60405180910390f35b6100a9610221565b005b6100b361036f565b6040516100c091906109e1565b60405180910390f35b6100d1610379565b6040516100de91906109e1565b60405180910390f35b6100ef610401565b6040516100fc9190610a5b565b60405180910390f35b600060019054906101000a900460ff1661012d5760008054906101000a900460ff1615610136565b61013561042a565b5b610175576040517f08c379a000000000000000000000000000000000000000000000000000000000815260040161016c90610af9565b60405180910390fd5b60008060019054906101000a900460ff1615905080156101c5576001600060016101000a81548160ff02191690831515021790555060016000806101000a81548160ff0219169083151502179055505b6101d084848461043b565b80156101f15760008060016101000a81548160ff0219169083151502179055505b50505050565b6000600160009054906101000a900473ffffffffffffffffffffffffffffffffffffffff16905090565b61022961036f565b42101561026b576040517f08c379a000000000000000000000000000000000000000000000000000000000815260040161026290610b8b565b60405180910390fd5b6000610275610401565b73ffffffffffffffffffffffffffffffffffffffff166370a08231306040518263ffffffff1660e01b81526004016102ad91906109b7565b602060405180830381865afa1580156102ca573d6000803e3d6000fd5b505050506040513d601f19601f820116820180604052508101906102ee9190610bc0565b905060008111610333576040517f08c379a000000000000000000000000000000000000000000000000000000000815260040161032a90610c5f565b60405180910390fd5b61036c61033e6101f7565b82610347610401565b73ffffffffffffffffffffffffffffffffffffffff1661049a9092919063ffffffff16565b50565b6000600254905090565b6000610383610401565b73ffffffffffffffffffffffffffffffffffffffff166370a08231306040518263ffffffff1660e01b81526004016103bb91906109b7565b602060405180830381865afa1580156103d8573d6000803e3d6000fd5b505050506040513d601f19601f820116820180604052508101906103fc9190610bc0565b905090565b60008060029054906101000a900473ffffffffffffffffffffffffffffffffffffffff16905090565b600061043530610520565b15905090565b600060019054906101000a900460ff1661048a576040517f08c379a000000000000000000000000000000000000000000000000000000000815260040161048190610cf1565b60405180910390fd5b610495838383610543565b505050565b61051b8363a9059cbb60e01b84846040516024016104b9929190610d11565b604051602081830303815290604052907bffffffffffffffffffffffffffffffffffffffffffffffffffffffff19166020820180517bffffffffffffffffffffffffffffffffffffffffffffffffffffffff8381831617835250505050610662565b505050565b6000808273ffffffffffffffffffffffffffffffffffffffff163b119050919050565b600060019054906101000a900460ff16610592576040517f08c379a000000000000000000000000000000000000000000000000000000000815260040161058990610cf1565b60405180910390fd5b4281116105d4576040517f08c379a00000000000000000000000000000000000000000000000000000000081526004016105cb90610dac565b60405180910390fd5b82600060026101000a81548173ffffffffffffffffffffffffffffffffffffffff021916908373ffffffffffffffffffffffffffffffffffffffff16021790555081600160006101000a81548173ffffffffffffffffffffffffffffffffffffffff021916908373ffffffffffffffffffffffffffffffffffffffff16021790555080600281905550505050565b60006106c4826040518060400160405280602081526020017f5361666545524332303a206c6f772d6c6576656c2063616c6c206661696c65648152508573ffffffffffffffffffffffffffffffffffffffff166107299092919063ffffffff16565b905060008151111561072457808060200190518101906106e49190610e04565b610723576040517f08c379a000000000000000000000000000000000000000000000000000000000815260040161071a90610ea3565b60405180910390fd5b5b505050565b60606107388484600085610741565b90509392505050565b606082471015610786576040517f08c379a000000000000000000000000000000000000000000000000000000000815260040161077d90610f35565b60405180910390fd5b61078f85610520565b6107ce576040517f08c379a00000000000000000000000000000000000000000000000000000000081526004016107c590610fa1565b60405180910390fd5b6000808673ffffffffffffffffffffffffffffffffffffffff1685876040516107f7919061103b565b60006040518083038185875af1925050503d8060008114610834576040519150601f19603f3d011682016040523d82523d6000602084013e610839565b606091505b5091509150610849828286610855565b92505050949350505050565b60608315610865578290506108b5565b6000835111156108785782518084602001fd5b816040517f08c379a00000000000000000000000000000000000000000000000000000000081526004016108ac91906110a7565b60405180910390fd5b9392505050565b600080fd5b600073ffffffffffffffffffffffffffffffffffffffff82169050919050565b60006108ec826108c1565b9050919050565b6108fc816108e1565b811461090757600080fd5b50565b600081359050610919816108f3565b92915050565b6000819050919050565b6109328161091f565b811461093d57600080fd5b50565b60008135905061094f81610929565b92915050565b60008060006060848603121561096e5761096d6108bc565b5b600061097c8682870161090a565b935050602061098d8682870161090a565b925050604061099e86828701610940565b9150509250925092565b6109b1816108e1565b82525050565b60006020820190506109cc60008301846109a8565b92915050565b6109db8161091f565b82525050565b60006020820190506109f660008301846109d2565b92915050565b6000819050919050565b6000610a21610a1c610a17846108c1565b6109fc565b6108c1565b9050919050565b6000610a3382610a06565b9050919050565b6000610a4582610a28565b9050919050565b610a5581610a3a565b82525050565b6000602082019050610a706000830184610a4c565b92915050565b600082825260208201905092915050565b7f496e697469616c697a61626c653a20636f6e747261637420697320616c72656160008201527f647920696e697469616c697a6564000000000000000000000000000000000000602082015250565b6000610ae3602e83610a76565b9150610aee82610a87565b604082019050919050565b60006020820190508181036000830152610b1281610ad6565b9050919050565b7f546f6b656e54696d656c6f636b3a2063757272656e742074696d65206973206260008201527f65666f72652072656c656173652074696d650000000000000000000000000000602082015250565b6000610b75603283610a76565b9150610b8082610b19565b604082019050919050565b60006020820190508181036000830152610ba481610b68565b9050919050565b600081519050610bba81610929565b92915050565b600060208284031215610bd657610bd56108bc565b5b6000610be484828501610bab565b91505092915050565b7f546f6b656e54696d656c6f636b3a206e6f20746f6b656e7320746f2072656c6560008201527f6173650000000000000000000000000000000000000000000000000000000000602082015250565b6000610c49602383610a76565b9150610c5482610bed565b604082019050919050565b60006020820190508181036000830152610c7881610c3c565b9050919050565b7f496e697469616c697a61626c653a20636f6e7472616374206973206e6f74206960008201527f6e697469616c697a696e67000000000000000000000000000000000000000000602082015250565b6000610cdb602b83610a76565b9150610ce682610c7f565b604082019050919050565b60006020820190508181036000830152610d0a81610cce565b9050919050565b6000604082019050610d2660008301856109a8565b610d3360208301846109d2565b9392505050565b7f546f6b656e54696d656c6f636b3a2072656c656173652074696d65206973206260008201527f65666f72652063757272656e742074696d650000000000000000000000000000602082015250565b6000610d96603283610a76565b9150610da182610d3a565b604082019050919050565b60006020820190508181036000830152610dc581610d89565b9050919050565b60008115159050919050565b610de181610dcc565b8114610dec57600080fd5b50565b600081519050610dfe81610dd8565b92915050565b600060208284031215610e1a57610e196108bc565b5b6000610e2884828501610def565b91505092915050565b7f5361666545524332303a204552433230206f7065726174696f6e20646964206e60008201527f6f74207375636365656400000000000000000000000000000000000000000000602082015250565b6000610e8d602a83610a76565b9150610e9882610e31565b604082019050919050565b60006020820190508181036000830152610ebc81610e80565b9050919050565b7f416464726573733a20696e73756666696369656e742062616c616e636520666f60008201527f722063616c6c0000000000000000000000000000000000000000000000000000602082015250565b6000610f1f602683610a76565b9150610f2a82610ec3565b604082019050919050565b60006020820190508181036000830152610f4e81610f12565b9050919050565b7f416464726573733a2063616c6c20746f206e6f6e2d636f6e7472616374000000600082015250565b6000610f8b601d83610a76565b9150610f9682610f55565b602082019050919050565b60006020820190508181036000830152610fba81610f7e565b9050919050565b600081519050919050565b600081905092915050565b60005b83811015610ff5578082015181840152602081019050610fda565b83811115611004576000848401525b50505050565b600061101582610fc1565b61101f8185610fcc565b935061102f818560208601610fd7565b80840191505092915050565b6000611047828461100a565b915081905092915050565b600081519050919050565b6000601f19601f8301169050919050565b600061107982611052565b6110838185610a76565b9350611093818560208601610fd7565b61109c8161105d565b840191505092915050565b600060208201905081810360008301526110c1818461106e565b90509291505056fea2646970667358221220412dd9290d24b5e80ffc38083c0fc6ac85d1062b661f59cd502d304e10c49d0764736f6c634300080c0033",
  "immutableReferences": {},
  "source": "// SPDX-License-Identifier: MIT\n\npragma solidity ^0.8.0;\n\n//import \"./others/NonSafeTokenTimelockUpgradeable.sol\";\nimport \"../node_modules/@openzeppelin/contracts-upgradeable/token/ERC20/utils/TokenTimelockUpgradeable.sol\";\n\ncontract SimpleTimelockUpgradeable is TokenTimelockUpgradeable {\n    function initialize(\n        address token_,\n        address beneficiary_,\n        uint256 releaseTime_\n    ) public initializer {\n        __TokenTimelock_init(\n            IERC20Upgradeable(token_),\n            beneficiary_,\n            releaseTime_\n        );\n    }\n\n    function balanceLocked() public view returns (uint256) {\n        return token().balanceOf(address(this));\n    }\n}\n",
  "sourcePath": "/home/miker/workspace/decentralized-auth/k-dao/contracts/SimpleTimelockUpgradeable.sol",
  "compiler": {
    "name": "solc",
    "version": "0.8.12+commit.f00d7308.Emscripten.clang"
  },
  "schemaVersion": "3.4.5",
  "updatedAt": "2022-05-03T17:22:17.306Z",
  "networkType": "ethereum",
  "devdoc": {
    "kind": "dev",
    "methods": {
      "beneficiary()": {
        "details": "Returns the beneficiary that will receive the tokens."
      },
      "release()": {
        "details": "Transfers tokens held by the timelock to the beneficiary. Will only succeed if invoked after the release time."
      },
      "releaseTime()": {
        "details": "Returns the time when the tokens are released in seconds since Unix epoch (i.e. Unix timestamp)."
      },
      "token()": {
        "details": "Returns the token being held."
      }
    },
    "version": 1
  },
  "userdoc": {
    "kind": "user",
    "methods": {},
    "version": 1
  }
}