{
  "contractName": "TokenTimelockProxy",
  "abi": [
    {
      "inputs": [
        {
          "internalType": "address",
          "name": "token_",
          "type": "address"
        },
        {
          "internalType": "address",
          "name": "implementation_",
          "type": "address"
        }
      ],
      "stateMutability": "nonpayable",
      "type": "constructor"
    },
    {
      "anonymous": false,
      "inputs": [
        {
          "indexed": false,
          "internalType": "uint256",
          "name": "amount",
          "type": "uint256"
        }
      ],
      "name": "TokensLocked",
      "type": "event"
    },
    {
      "inputs": [
        {
          "internalType": "uint256",
          "name": "",
          "type": "uint256"
        }
      ],
      "name": "_clonedContracts",
      "outputs": [
        {
          "internalType": "address",
          "name": "",
          "type": "address"
        }
      ],
      "stateMutability": "view",
      "type": "function"
    },
    {
      "inputs": [
        {
          "internalType": "address",
          "name": "",
          "type": "address"
        },
        {
          "internalType": "uint256",
          "name": "",
          "type": "uint256"
        }
      ],
      "name": "_clonedContractsPerUser",
      "outputs": [
        {
          "internalType": "uint256",
          "name": "",
          "type": "uint256"
        }
      ],
      "stateMutability": "view",
      "type": "function"
    },
    {
      "inputs": [
        {
          "internalType": "address",
          "name": "beneficiary_",
          "type": "address"
        },
        {
          "internalType": "uint256",
          "name": "amountToLock_",
          "type": "uint256"
        },
        {
          "internalType": "uint256",
          "name": "releaseTime_",
          "type": "uint256"
        }
      ],
      "name": "lockTokens",
      "outputs": [
        {
          "internalType": "address",
          "name": "",
          "type": "address"
        }
      ],
      "stateMutability": "nonpayable",
      "type": "function"
    },
    {
      "inputs": [
        {
          "internalType": "address",
          "name": "locker",
          "type": "address"
        }
      ],
      "name": "checkLocker",
      "outputs": [
        {
          "internalType": "address[]",
          "name": "",
          "type": "address[]"
        }
      ],
      "stateMutability": "view",
      "type": "function"
    },
    {
      "inputs": [
        {
          "internalType": "address",
          "name": "locker",
          "type": "address"
        }
      ],
      "name": "checkLockerReleaseTimesAndBalances",
      "outputs": [
        {
          "internalType": "uint256[]",
          "name": "",
          "type": "uint256[]"
        },
        {
          "internalType": "uint256[]",
          "name": "",
          "type": "uint256[]"
        }
      ],
      "stateMutability": "view",
      "type": "function"
    }
  ],
  "bytecode": "0x60c06040523480156200001157600080fd5b50604051620016ff380380620016ff833981810160405281019062000037919062000111565b8073ffffffffffffffffffffffffffffffffffffffff1660a08173ffffffffffffffffffffffffffffffffffffffff16815250508173ffffffffffffffffffffffffffffffffffffffff1660808173ffffffffffffffffffffffffffffffffffffffff1681525050505062000158565b600080fd5b600073ffffffffffffffffffffffffffffffffffffffff82169050919050565b6000620000d982620000ac565b9050919050565b620000eb81620000cc565b8114620000f757600080fd5b50565b6000815190506200010b81620000e0565b92915050565b600080604083850312156200012b576200012a620000a7565b5b60006200013b85828601620000fa565b92505060206200014e85828601620000fa565b9150509250929050565b60805160a0516115736200018c60003960006106090152600081816105270152818161064d01526106c601526115736000f3fe608060405234801561001057600080fd5b50600436106100575760003560e01c80633e7929601461005c57806354bb83c11461008c5780635d964aed146100bd578063a25983e5146100ed578063aa55a5991461011d575b600080fd5b61007660048036038101906100719190610c37565b61014d565b6040516100839190610ca5565b60405180910390f35b6100a660048036038101906100a19190610cec565b61018c565b6040516100b4929190610dd7565b60405180910390f35b6100d760048036038101906100d29190610cec565b6103b6565b6040516100e49190610ecc565b60405180910390f35b61010760048036038101906101029190610eee565b610522565b6040516101149190610ca5565b60405180910390f35b61013760048036038101906101329190610f41565b6107f0565b6040516101449190610f90565b60405180910390f35b6000818154811061015d57600080fd5b906000526020600020016000915054906101000a900473ffffffffffffffffffffffffffffffffffffffff1681565b606080600061019a846103b6565b90506000815167ffffffffffffffff8111156101b9576101b8610fab565b5b6040519080825280602002602001820160405280156101e75781602001602082028036833780820191505090505b5090506000825167ffffffffffffffff81111561020757610206610fab565b5b6040519080825280602002602001820160405280156102355781602001602082028036833780820191505090505b50905060005b83518110156103a75783818151811061025757610256610fda565b5b602002602001015173ffffffffffffffffffffffffffffffffffffffff1663b91d40016040518163ffffffff1660e01b8152600401602060405180830381865afa1580156102a9573d6000803e3d6000fd5b505050506040513d601f19601f820116820180604052508101906102cd919061101e565b8382815181106102e0576102df610fda565b5b6020026020010181815250508381815181106102ff576102fe610fda565b5b602002602001015173ffffffffffffffffffffffffffffffffffffffff1663e9932b8a6040518163ffffffff1660e01b8152600401602060405180830381865afa158015610351573d6000803e3d6000fd5b505050506040513d601f19601f82011682018060405250810190610375919061101e565b82828151811061038857610387610fda565b5b602002602001018181525050808061039f9061107a565b91505061023b565b50818194509450505050915091565b60606000600160008473ffffffffffffffffffffffffffffffffffffffff1673ffffffffffffffffffffffffffffffffffffffff16815260200190815260200160002090506000818054905067ffffffffffffffff81111561041b5761041a610fab565b5b6040519080825280602002602001820160405280156104495781602001602082028036833780820191505090505b50905060005b82805490508110156105175760008382815481106104705761046f610fda565b5b90600052602060002001548154811061048c5761048b610fda565b5b9060005260206000200160009054906101000a900473ffffffffffffffffffffffffffffffffffffffff168282815181106104ca576104c9610fda565b5b602002602001019073ffffffffffffffffffffffffffffffffffffffff16908173ffffffffffffffffffffffffffffffffffffffff1681525050808061050f9061107a565b91505061044f565b508092505050919050565b6000827f000000000000000000000000000000000000000000000000000000000000000073ffffffffffffffffffffffffffffffffffffffff1663dd62ed3e33306040518363ffffffff1660e01b81526004016105809291906110c3565b602060405180830381865afa15801561059d573d6000803e3d6000fd5b505050506040513d601f19601f820116820180604052508101906105c1919061101e565b1015610602576040517f08c379a00000000000000000000000000000000000000000000000000000000081526004016105f990611149565b60405180910390fd5b600061062d7f0000000000000000000000000000000000000000000000000000000000000000610821565b90508073ffffffffffffffffffffffffffffffffffffffff16631794bb3c7f000000000000000000000000000000000000000000000000000000000000000087866040518463ffffffff1660e01b815260040161068c93929190611169565b600060405180830381600087803b1580156106a657600080fd5b505af11580156106ba573d6000803e3d6000fd5b5050505061070b3382867f000000000000000000000000000000000000000000000000000000000000000073ffffffffffffffffffffffffffffffffffffffff166108f6909392919063ffffffff16565b6000819080600181540180825580915050600190039060005260206000200160009091909190916101000a81548173ffffffffffffffffffffffffffffffffffffffff021916908373ffffffffffffffffffffffffffffffffffffffff160217905550600160003373ffffffffffffffffffffffffffffffffffffffff1673ffffffffffffffffffffffffffffffffffffffff16815260200190815260200160002060016000805490506107bf91906111a0565b9080600181540180825580915050600190039060005260206000200160009091909190915055809150509392505050565b6001602052816000526040600020818154811061080c57600080fd5b90600052602060002001600091509150505481565b60006040517f3d602d80600a3d3981f3363d3d373d3d3d363d7300000000000000000000000081528260601b60148201527f5af43d82803e903d91602b57fd5bf3000000000000000000000000000000000060288201526037816000f0915050600073ffffffffffffffffffffffffffffffffffffffff168173ffffffffffffffffffffffffffffffffffffffff1614156108f1576040517f08c379a00000000000000000000000000000000000000000000000000000000081526004016108e890611220565b60405180910390fd5b919050565b610979846323b872dd60e01b85858560405160240161091793929190611169565b604051602081830303815290604052907bffffffffffffffffffffffffffffffffffffffffffffffffffffffff19166020820180517bffffffffffffffffffffffffffffffffffffffffffffffffffffffff838183161783525050505061097f565b50505050565b60006109e1826040518060400160405280602081526020017f5361666545524332303a206c6f772d6c6576656c2063616c6c206661696c65648152508573ffffffffffffffffffffffffffffffffffffffff16610a469092919063ffffffff16565b9050600081511115610a415780806020019051810190610a019190611278565b610a40576040517f08c379a0000000000000000000000000000000000000000000000000000000008152600401610a3790611317565b60405180910390fd5b5b505050565b6060610a558484600085610a5e565b90509392505050565b606082471015610aa3576040517f08c379a0000000000000000000000000000000000000000000000000000000008152600401610a9a906113a9565b60405180910390fd5b610aac85610b72565b610aeb576040517f08c379a0000000000000000000000000000000000000000000000000000000008152600401610ae290611415565b60405180910390fd5b6000808673ffffffffffffffffffffffffffffffffffffffff168587604051610b1491906114af565b60006040518083038185875af1925050503d8060008114610b51576040519150601f19603f3d011682016040523d82523d6000602084013e610b56565b606091505b5091509150610b66828286610b95565b92505050949350505050565b6000808273ffffffffffffffffffffffffffffffffffffffff163b119050919050565b60608315610ba557829050610bf5565b600083511115610bb85782518084602001fd5b816040517f08c379a0000000000000000000000000000000000000000000000000000000008152600401610bec919061151b565b60405180910390fd5b9392505050565b600080fd5b6000819050919050565b610c1481610c01565b8114610c1f57600080fd5b50565b600081359050610c3181610c0b565b92915050565b600060208284031215610c4d57610c4c610bfc565b5b6000610c5b84828501610c22565b91505092915050565b600073ffffffffffffffffffffffffffffffffffffffff82169050919050565b6000610c8f82610c64565b9050919050565b610c9f81610c84565b82525050565b6000602082019050610cba6000830184610c96565b92915050565b610cc981610c84565b8114610cd457600080fd5b50565b600081359050610ce681610cc0565b92915050565b600060208284031215610d0257610d01610bfc565b5b6000610d1084828501610cd7565b91505092915050565b600081519050919050565b600082825260208201905092915050565b6000819050602082019050919050565b610d4e81610c01565b82525050565b6000610d608383610d45565b60208301905092915050565b6000602082019050919050565b6000610d8482610d19565b610d8e8185610d24565b9350610d9983610d35565b8060005b83811015610dca578151610db18882610d54565b9750610dbc83610d6c565b925050600181019050610d9d565b5085935050505092915050565b60006040820190508181036000830152610df18185610d79565b90508181036020830152610e058184610d79565b90509392505050565b600081519050919050565b600082825260208201905092915050565b6000819050602082019050919050565b610e4381610c84565b82525050565b6000610e558383610e3a565b60208301905092915050565b6000602082019050919050565b6000610e7982610e0e565b610e838185610e19565b9350610e8e83610e2a565b8060005b83811015610ebf578151610ea68882610e49565b9750610eb183610e61565b925050600181019050610e92565b5085935050505092915050565b60006020820190508181036000830152610ee68184610e6e565b905092915050565b600080600060608486031215610f0757610f06610bfc565b5b6000610f1586828701610cd7565b9350506020610f2686828701610c22565b9250506040610f3786828701610c22565b9150509250925092565b60008060408385031215610f5857610f57610bfc565b5b6000610f6685828601610cd7565b9250506020610f7785828601610c22565b9150509250929050565b610f8a81610c01565b82525050565b6000602082019050610fa56000830184610f81565b92915050565b7f4e487b7100000000000000000000000000000000000000000000000000000000600052604160045260246000fd5b7f4e487b7100000000000000000000000000000000000000000000000000000000600052603260045260246000fd5b60008151905061101881610c0b565b92915050565b60006020828403121561103457611033610bfc565b5b600061104284828501611009565b91505092915050565b7f4e487b7100000000000000000000000000000000000000000000000000000000600052601160045260246000fd5b600061108582610c01565b91507fffffffffffffffffffffffffffffffffffffffffffffffffffffffffffffffff8214156110b8576110b761104b565b5b600182019050919050565b60006040820190506110d86000830185610c96565b6110e56020830184610c96565b9392505050565b600082825260208201905092915050565b7f496e73756666696369656e742042616c616e6365000000000000000000000000600082015250565b60006111336014836110ec565b915061113e826110fd565b602082019050919050565b6000602082019050818103600083015261116281611126565b9050919050565b600060608201905061117e6000830186610c96565b61118b6020830185610c96565b6111986040830184610f81565b949350505050565b60006111ab82610c01565b91506111b683610c01565b9250828210156111c9576111c861104b565b5b828203905092915050565b7f455243313136373a20637265617465206661696c656400000000000000000000600082015250565b600061120a6016836110ec565b9150611215826111d4565b602082019050919050565b60006020820190508181036000830152611239816111fd565b9050919050565b60008115159050919050565b61125581611240565b811461126057600080fd5b50565b6000815190506112728161124c565b92915050565b60006020828403121561128e5761128d610bfc565b5b600061129c84828501611263565b91505092915050565b7f5361666545524332303a204552433230206f7065726174696f6e20646964206e60008201527f6f74207375636365656400000000000000000000000000000000000000000000602082015250565b6000611301602a836110ec565b915061130c826112a5565b604082019050919050565b60006020820190508181036000830152611330816112f4565b9050919050565b7f416464726573733a20696e73756666696369656e742062616c616e636520666f60008201527f722063616c6c0000000000000000000000000000000000000000000000000000602082015250565b60006113936026836110ec565b915061139e82611337565b604082019050919050565b600060208201905081810360008301526113c281611386565b9050919050565b7f416464726573733a2063616c6c20746f206e6f6e2d636f6e7472616374000000600082015250565b60006113ff601d836110ec565b915061140a826113c9565b602082019050919050565b6000602082019050818103600083015261142e816113f2565b9050919050565b600081519050919050565b600081905092915050565b60005b8381101561146957808201518184015260208101905061144e565b83811115611478576000848401525b50505050565b600061148982611435565b6114938185611440565b93506114a381856020860161144b565b80840191505092915050565b60006114bb828461147e565b915081905092915050565b600081519050919050565b6000601f19601f8301169050919050565b60006114ed826114c6565b6114f781856110ec565b935061150781856020860161144b565b611510816114d1565b840191505092915050565b6000602082019050818103600083015261153581846114e2565b90509291505056fea2646970667358221220145880f672fe7ba4a05e8c39dbd6fe9e7f9e000ff0e97566a482a96c9bf77b4464736f6c634300080c0033",
  "immutableReferences": {
    "112": [
      {
        "length": 32,
        "start": 1319
      },
      {
        "length": 32,
        "start": 1613
      },
      {
        "length": 32,
        "start": 1734
      }
    ],
    "114": [
      {
        "length": 32,
        "start": 1545
      }
    ]
  },
  "source": "// SPDX-License-Identifier: MIT\n\npragma solidity ^0.8.0;\n\nimport \"./SimpleTimelockUpgradeable.sol\";\nimport \"../node_modules/@openzeppelin/contracts/proxy/Clones.sol\";\n\n/**\n * @dev A token timelock proxy to create ERC20 token timelock contracts\n * for several addresses.\n *\n */\ncontract TokenTimelockProxy {\n    using SafeERC20Upgradeable for IERC20Upgradeable;\n\n    // Token to lock on chain contract\n    address immutable _tokenToLock;\n\n    // Token Timelock on chain contract\n    address immutable _implementation;\n\n    // List of cloned Timelock contracts\n    address[] public _clonedContracts;\n\n    // List of cloned Timelock contracts per address\n    mapping(address => uint256[]) public _clonedContractsPerUser;\n\n    /**\n     * Event for a proposal added\n     */\n    event TokensLocked(uint256 amount);\n\n    constructor(address token_, address implementation_) {\n        _implementation = implementation_;\n        _tokenToLock = token_;\n    }\n\n    /**\n     * @dev Creates a new Timelock contract\n     * @return the contract address\n     */\n    function lockTokens(\n        address beneficiary_,\n        uint256 amountToLock_,\n        uint256 releaseTime_\n    ) public returns (address) {\n        require(\n            IERC20Upgradeable(_tokenToLock).allowance(\n                msg.sender,\n                address(this)\n            ) >= amountToLock_,\n            \"Insufficient Balance\"\n        );\n\n        address clone = Clones.clone(_implementation);\n        SimpleTimelockUpgradeable(clone).initialize(\n            _tokenToLock,\n            beneficiary_,\n            releaseTime_\n        );\n\n        IERC20Upgradeable(_tokenToLock).safeTransferFrom(\n            msg.sender,\n            clone,\n            amountToLock_\n        );\n\n        _clonedContracts.push(clone);\n        _clonedContractsPerUser[msg.sender].push(_clonedContracts.length - 1);\n\n        return clone;\n    }\n\n    function checkLocker(address locker)\n        public\n        view\n        returns (address[] memory)\n    {\n        uint256[] storage clonedIds = _clonedContractsPerUser[locker];\n        address[] memory lockerClonesAddresses =\n            new address[](clonedIds.length);\n\n        for (uint256 i = 0; i < clonedIds.length; i++) {\n            lockerClonesAddresses[i] = (_clonedContracts[clonedIds[i]]);\n        }\n\n        return lockerClonesAddresses;\n    }\n\n    function checkLockerReleaseTimesAndBalances(address locker)\n        public\n        view\n        returns (uint256[] memory, uint256[] memory)\n    {\n        address[] memory lockerClonesAddresses = checkLocker(locker);\n        uint256[] memory releaseTimes =\n            new uint256[](lockerClonesAddresses.length);\n        uint256[] memory balances = new uint256[](lockerClonesAddresses.length);\n\n        for (uint256 i = 0; i < lockerClonesAddresses.length; i++) {\n            releaseTimes[i] = SimpleTimelockUpgradeable(\n                lockerClonesAddresses[i]\n            )\n                .releaseTime();\n            balances[i] = SimpleTimelockUpgradeable(lockerClonesAddresses[i])\n                .balanceLocked();\n        }\n\n        return (releaseTimes, balances);\n    }\n}\n",
  "sourcePath": "/home/miker/workspace/decentralized-auth/k-dao/contracts/TokenTimelockProxy.sol",
  "compiler": {
    "name": "solc",
    "version": "0.8.12+commit.f00d7308.Emscripten.clang"
  },
  "schemaVersion": "3.4.5",
  "updatedAt": "2022-04-30T06:20:12.873Z",
  "devdoc": {
    "details": "A token timelock proxy to create ERC20 token timelock contracts for several addresses.",
    "kind": "dev",
    "methods": {
      "lockTokens(address,uint256,uint256)": {
        "details": "Creates a new Timelock contract",
        "returns": {
          "_0": "the contract address"
        }
      }
    },
    "version": 1
  },
  "userdoc": {
    "events": {
      "TokensLocked(uint256)": {
        "notice": "Event for a proposal added"
      }
    },
    "kind": "user",
    "methods": {},
    "version": 1
  }
}