{
  "contractName": "TokenTimelockUpgradeable",
  "abi": [
    {
      "anonymous": false,
      "inputs": [
        {
          "indexed": false,
          "internalType": "uint8",
          "name": "version",
          "type": "uint8"
        }
      ],
      "name": "Initialized",
      "type": "event"
    },
    {
      "inputs": [],
      "name": "token",
      "outputs": [
        {
          "internalType": "contract IERC20Upgradeable",
          "name": "",
          "type": "address"
        }
      ],
      "stateMutability": "view",
      "type": "function"
    },
    {
      "inputs": [],
      "name": "beneficiary",
      "outputs": [
        {
          "internalType": "address",
          "name": "",
          "type": "address"
        }
      ],
      "stateMutability": "view",
      "type": "function"
    },
    {
      "inputs": [],
      "name": "releaseTime",
      "outputs": [
        {
          "internalType": "uint256",
          "name": "",
          "type": "uint256"
        }
      ],
      "stateMutability": "view",
      "type": "function"
    },
    {
      "inputs": [],
      "name": "release",
      "outputs": [],
      "stateMutability": "nonpayable",
      "type": "function"
    }
  ],
  "bytecode": "0x608060405234801561001057600080fd5b50610b5c806100206000396000f3fe608060405234801561001057600080fd5b506004361061004c5760003560e01c806338af3eed1461005157806386d1a69f1461006f578063b91d400114610079578063fc0c546a14610097575b600080fd5b6100596100b5565b60405161006691906105a4565b60405180910390f35b6100776100df565b005b61008161022d565b60405161008e91906105d8565b60405180910390f35b61009f610237565b6040516100ac9190610652565b60405180910390f35b6000600160009054906101000a900473ffffffffffffffffffffffffffffffffffffffff16905090565b6100e761022d565b421015610129576040517f08c379a0000000000000000000000000000000000000000000000000000000008152600401610120906106f0565b60405180910390fd5b6000610133610237565b73ffffffffffffffffffffffffffffffffffffffff166370a08231306040518263ffffffff1660e01b815260040161016b91906105a4565b602060405180830381865afa158015610188573d6000803e3d6000fd5b505050506040513d601f19601f820116820180604052508101906101ac9190610741565b9050600081116101f1576040517f08c379a00000000000000000000000000000000000000000000000000000000081526004016101e8906107e0565b60405180910390fd5b61022a6101fc6100b5565b82610205610237565b73ffffffffffffffffffffffffffffffffffffffff166102609092919063ffffffff16565b50565b6000600254905090565b60008060029054906101000a900473ffffffffffffffffffffffffffffffffffffffff16905090565b6102e18363a9059cbb60e01b848460405160240161027f929190610800565b604051602081830303815290604052907bffffffffffffffffffffffffffffffffffffffffffffffffffffffff19166020820180517bffffffffffffffffffffffffffffffffffffffffffffffffffffffff83818316178352505050506102e6565b505050565b6000610348826040518060400160405280602081526020017f5361666545524332303a206c6f772d6c6576656c2063616c6c206661696c65648152508573ffffffffffffffffffffffffffffffffffffffff166103ad9092919063ffffffff16565b90506000815111156103a857808060200190518101906103689190610861565b6103a7576040517f08c379a000000000000000000000000000000000000000000000000000000000815260040161039e90610900565b60405180910390fd5b5b505050565b60606103bc84846000856103c5565b90509392505050565b60608247101561040a576040517f08c379a000000000000000000000000000000000000000000000000000000000815260040161040190610992565b60405180910390fd5b610413856104d9565b610452576040517f08c379a0000000000000000000000000000000000000000000000000000000008152600401610449906109fe565b60405180910390fd5b6000808673ffffffffffffffffffffffffffffffffffffffff16858760405161047b9190610a98565b60006040518083038185875af1925050503d80600081146104b8576040519150601f19603f3d011682016040523d82523d6000602084013e6104bd565b606091505b50915091506104cd8282866104fc565b92505050949350505050565b6000808273ffffffffffffffffffffffffffffffffffffffff163b119050919050565b6060831561050c5782905061055c565b60008351111561051f5782518084602001fd5b816040517f08c379a00000000000000000000000000000000000000000000000000000000081526004016105539190610b04565b60405180910390fd5b9392505050565b600073ffffffffffffffffffffffffffffffffffffffff82169050919050565b600061058e82610563565b9050919050565b61059e81610583565b82525050565b60006020820190506105b96000830184610595565b92915050565b6000819050919050565b6105d2816105bf565b82525050565b60006020820190506105ed60008301846105c9565b92915050565b6000819050919050565b600061061861061361060e84610563565b6105f3565b610563565b9050919050565b600061062a826105fd565b9050919050565b600061063c8261061f565b9050919050565b61064c81610631565b82525050565b60006020820190506106676000830184610643565b92915050565b600082825260208201905092915050565b7f546f6b656e54696d656c6f636b3a2063757272656e742074696d65206973206260008201527f65666f72652072656c656173652074696d650000000000000000000000000000602082015250565b60006106da60328361066d565b91506106e58261067e565b604082019050919050565b60006020820190508181036000830152610709816106cd565b9050919050565b600080fd5b61071e816105bf565b811461072957600080fd5b50565b60008151905061073b81610715565b92915050565b60006020828403121561075757610756610710565b5b60006107658482850161072c565b91505092915050565b7f546f6b656e54696d656c6f636b3a206e6f20746f6b656e7320746f2072656c6560008201527f6173650000000000000000000000000000000000000000000000000000000000602082015250565b60006107ca60238361066d565b91506107d58261076e565b604082019050919050565b600060208201905081810360008301526107f9816107bd565b9050919050565b60006040820190506108156000830185610595565b61082260208301846105c9565b9392505050565b60008115159050919050565b61083e81610829565b811461084957600080fd5b50565b60008151905061085b81610835565b92915050565b60006020828403121561087757610876610710565b5b60006108858482850161084c565b91505092915050565b7f5361666545524332303a204552433230206f7065726174696f6e20646964206e60008201527f6f74207375636365656400000000000000000000000000000000000000000000602082015250565b60006108ea602a8361066d565b91506108f58261088e565b604082019050919050565b60006020820190508181036000830152610919816108dd565b9050919050565b7f416464726573733a20696e73756666696369656e742062616c616e636520666f60008201527f722063616c6c0000000000000000000000000000000000000000000000000000602082015250565b600061097c60268361066d565b915061098782610920565b604082019050919050565b600060208201905081810360008301526109ab8161096f565b9050919050565b7f416464726573733a2063616c6c20746f206e6f6e2d636f6e7472616374000000600082015250565b60006109e8601d8361066d565b91506109f3826109b2565b602082019050919050565b60006020820190508181036000830152610a17816109db565b9050919050565b600081519050919050565b600081905092915050565b60005b83811015610a52578082015181840152602081019050610a37565b83811115610a61576000848401525b50505050565b6000610a7282610a1e565b610a7c8185610a29565b9350610a8c818560208601610a34565b80840191505092915050565b6000610aa48284610a67565b915081905092915050565b600081519050919050565b6000601f19601f8301169050919050565b6000610ad682610aaf565b610ae0818561066d565b9350610af0818560208601610a34565b610af981610aba565b840191505092915050565b60006020820190508181036000830152610b1e8184610acb565b90509291505056fea26469706673582212200e871d757210a507606d72b27250809044d08d6164a7eb252653211c8cb6d01264736f6c634300080c0033",
  "immutableReferences": {},
  "source": "// SPDX-License-Identifier: MIT\n// OpenZeppelin Contracts (last updated v4.5.0) (token/ERC20/utils/TokenTimelock.sol)\n\npragma solidity ^0.8.0;\n\nimport \"./SafeERC20Upgradeable.sol\";\nimport \"../../../proxy/utils/Initializable.sol\";\n\n/**\n * @dev A token holder contract that will allow a beneficiary to extract the\n * tokens after a given release time.\n *\n * Useful for simple vesting schedules like \"advisors get all of their tokens\n * after 1 year\".\n *\n * @custom:storage-size 53\n */\ncontract TokenTimelockUpgradeable is Initializable {\n    using SafeERC20Upgradeable for IERC20Upgradeable;\n\n    // ERC20 basic token contract being held\n    IERC20Upgradeable private _token;\n\n    // beneficiary of tokens after they are released\n    address private _beneficiary;\n\n    // timestamp when token release is enabled\n    uint256 private _releaseTime;\n\n    /**\n     * @dev Deploys a timelock instance that is able to hold the token specified, and will only release it to\n     * `beneficiary_` when {release} is invoked after `releaseTime_`. The release time is specified as a Unix timestamp\n     * (in seconds).\n     */\n    function __TokenTimelock_init(\n        IERC20Upgradeable token_,\n        address beneficiary_,\n        uint256 releaseTime_\n    ) internal onlyInitializing {\n        __TokenTimelock_init_unchained(token_, beneficiary_, releaseTime_);\n    }\n\n    function __TokenTimelock_init_unchained(\n        IERC20Upgradeable token_,\n        address beneficiary_,\n        uint256 releaseTime_\n    ) internal onlyInitializing {\n        require(releaseTime_ > block.timestamp, \"TokenTimelock: release time is before current time\");\n        _token = token_;\n        _beneficiary = beneficiary_;\n        _releaseTime = releaseTime_;\n    }\n\n    /**\n     * @dev Returns the token being held.\n     */\n    function token() public view virtual returns (IERC20Upgradeable) {\n        return _token;\n    }\n\n    /**\n     * @dev Returns the beneficiary that will receive the tokens.\n     */\n    function beneficiary() public view virtual returns (address) {\n        return _beneficiary;\n    }\n\n    /**\n     * @dev Returns the time when the tokens are released in seconds since Unix epoch (i.e. Unix timestamp).\n     */\n    function releaseTime() public view virtual returns (uint256) {\n        return _releaseTime;\n    }\n\n    /**\n     * @dev Transfers tokens held by the timelock to the beneficiary. Will only succeed if invoked after the release\n     * time.\n     */\n    function release() public virtual {\n        require(block.timestamp >= releaseTime(), \"TokenTimelock: current time is before release time\");\n\n        uint256 amount = token().balanceOf(address(this));\n        require(amount > 0, \"TokenTimelock: no tokens to release\");\n\n        token().safeTransfer(beneficiary(), amount);\n    }\n\n    /**\n     * @dev This empty reserved space is put in place to allow future versions to add new\n     * variables without shifting down storage in the inheritance chain.\n     * See https://docs.openzeppelin.com/contracts/4.x/upgradeable#storage_gaps\n     */\n    uint256[50] private __gap;\n}\n",
  "sourcePath": "/Users/miker/Workspace/others/k-DaO/node_modules/@openzeppelin/contracts-upgradeable/token/ERC20/utils/TokenTimelockUpgradeable.sol",
  "compiler": {
    "name": "solc",
    "version": "0.8.12+commit.f00d7308.Emscripten.clang"
  },
  "schemaVersion": "3.4.14",
  "updatedAt": "2023-10-02T11:57:10.896Z",
  "devdoc": {
    "custom:storage-size": "53",
    "details": "A token holder contract that will allow a beneficiary to extract the tokens after a given release time. Useful for simple vesting schedules like \"advisors get all of their tokens after 1 year\".",
    "kind": "dev",
    "methods": {
      "beneficiary()": {
        "details": "Returns the beneficiary that will receive the tokens."
      },
      "release()": {
        "details": "Transfers tokens held by the timelock to the beneficiary. Will only succeed if invoked after the release time."
      },
      "releaseTime()": {
        "details": "Returns the time when the tokens are released in seconds since Unix epoch (i.e. Unix timestamp)."
      },
      "token()": {
        "details": "Returns the token being held."
      }
    },
    "stateVariables": {
      "__gap": {
        "details": "This empty reserved space is put in place to allow future versions to add new variables without shifting down storage in the inheritance chain. See https://docs.openzeppelin.com/contracts/4.x/upgradeable#storage_gaps"
      }
    },
    "version": 1
  },
  "userdoc": {
    "kind": "user",
    "methods": {},
    "version": 1
  }
}