{
  "contractName": "Voting",
  "abi": [
    {
      "inputs": [
        {
          "internalType": "address",
          "name": "tokenTimelockProxy",
          "type": "address"
        },
        {
          "internalType": "uint256",
          "name": "minimumQuorumForProposals",
          "type": "uint256"
        },
        {
          "internalType": "uint256",
          "name": "minTimeForDebate",
          "type": "uint256"
        },
        {
          "internalType": "uint256",
          "name": "minDifferenceLockPeriod_",
          "type": "uint256"
        }
      ],
      "stateMutability": "nonpayable",
      "type": "constructor"
    },
    {
      "anonymous": false,
      "inputs": [
        {
          "indexed": false,
          "internalType": "uint256",
          "name": "proposalID",
          "type": "uint256"
        },
        {
          "indexed": false,
          "internalType": "string",
          "name": "metadata",
          "type": "string"
        },
        {
          "indexed": false,
          "internalType": "uint256",
          "name": "executionDate",
          "type": "uint256"
        }
      ],
      "name": "ProposalAdded",
      "type": "event"
    },
    {
      "anonymous": false,
      "inputs": [
        {
          "indexed": false,
          "internalType": "uint256",
          "name": "proposalID",
          "type": "uint256"
        },
        {
          "indexed": false,
          "internalType": "bool",
          "name": "proposalPassed",
          "type": "bool"
        },
        {
          "indexed": false,
          "internalType": "uint256",
          "name": "finalResult",
          "type": "uint256"
        }
      ],
      "name": "ProposalExecuted",
      "type": "event"
    },
    {
      "anonymous": false,
      "inputs": [
        {
          "indexed": false,
          "internalType": "uint256",
          "name": "proposalID",
          "type": "uint256"
        },
        {
          "indexed": false,
          "internalType": "uint256",
          "name": "suggestionID",
          "type": "uint256"
        },
        {
          "indexed": false,
          "internalType": "address",
          "name": "advisor",
          "type": "address"
        },
        {
          "indexed": false,
          "internalType": "string",
          "name": "metadata",
          "type": "string"
        }
      ],
      "name": "SuggestionAdded",
      "type": "event"
    },
    {
      "anonymous": false,
      "inputs": [
        {
          "indexed": false,
          "internalType": "uint256",
          "name": "proposalID",
          "type": "uint256"
        },
        {
          "indexed": false,
          "internalType": "uint256",
          "name": "oldSuggestionID",
          "type": "uint256"
        },
        {
          "indexed": false,
          "internalType": "uint256",
          "name": "newSuggestionID",
          "type": "uint256"
        },
        {
          "indexed": false,
          "internalType": "address",
          "name": "voter",
          "type": "address"
        },
        {
          "indexed": false,
          "internalType": "uint256",
          "name": "voteWeight",
          "type": "uint256"
        }
      ],
      "name": "VoteChanged",
      "type": "event"
    },
    {
      "anonymous": false,
      "inputs": [
        {
          "indexed": false,
          "internalType": "uint256",
          "name": "proposalID",
          "type": "uint256"
        },
        {
          "indexed": false,
          "internalType": "uint256",
          "name": "suggestionID",
          "type": "uint256"
        },
        {
          "indexed": false,
          "internalType": "address",
          "name": "voter",
          "type": "address"
        },
        {
          "indexed": false,
          "internalType": "uint256",
          "name": "voteWeight",
          "type": "uint256"
        }
      ],
      "name": "Voted",
      "type": "event"
    },
    {
      "inputs": [],
      "name": "_minDebatingPeriod",
      "outputs": [
        {
          "internalType": "uint256",
          "name": "",
          "type": "uint256"
        }
      ],
      "stateMutability": "view",
      "type": "function"
    },
    {
      "inputs": [],
      "name": "_minDifferenceLockPeriod",
      "outputs": [
        {
          "internalType": "uint256",
          "name": "",
          "type": "uint256"
        }
      ],
      "stateMutability": "view",
      "type": "function"
    },
    {
      "inputs": [],
      "name": "_minQuorum",
      "outputs": [
        {
          "internalType": "uint256",
          "name": "",
          "type": "uint256"
        }
      ],
      "stateMutability": "view",
      "type": "function"
    },
    {
      "inputs": [],
      "name": "_numProposals",
      "outputs": [
        {
          "internalType": "uint256",
          "name": "",
          "type": "uint256"
        }
      ],
      "stateMutability": "view",
      "type": "function"
    },
    {
      "inputs": [
        {
          "internalType": "uint256",
          "name": "",
          "type": "uint256"
        }
      ],
      "name": "_proposals",
      "outputs": [
        {
          "internalType": "string",
          "name": "metadata",
          "type": "string"
        },
        {
          "internalType": "uint256",
          "name": "executionDate",
          "type": "uint256"
        },
        {
          "internalType": "uint256",
          "name": "quorum",
          "type": "uint256"
        },
        {
          "internalType": "uint256",
          "name": "numSuggestions",
          "type": "uint256"
        },
        {
          "internalType": "bool",
          "name": "executed",
          "type": "bool"
        },
        {
          "internalType": "bool",
          "name": "proposalPassed",
          "type": "bool"
        },
        {
          "internalType": "uint256",
          "name": "finalResult",
          "type": "uint256"
        }
      ],
      "stateMutability": "view",
      "type": "function"
    },
    {
      "inputs": [],
      "name": "_tokenTimelocks",
      "outputs": [
        {
          "internalType": "address",
          "name": "",
          "type": "address"
        }
      ],
      "stateMutability": "view",
      "type": "function"
    },
    {
      "inputs": [
        {
          "internalType": "string",
          "name": "metadata",
          "type": "string"
        },
        {
          "internalType": "uint256",
          "name": "debatingPeriod",
          "type": "uint256"
        },
        {
          "internalType": "uint256",
          "name": "quorum",
          "type": "uint256"
        }
      ],
      "name": "submitProposal",
      "outputs": [
        {
          "internalType": "uint256",
          "name": "proposalID",
          "type": "uint256"
        }
      ],
      "stateMutability": "nonpayable",
      "type": "function"
    },
    {
      "inputs": [
        {
          "internalType": "uint256",
          "name": "proposalID",
          "type": "uint256"
        },
        {
          "internalType": "string",
          "name": "metadata",
          "type": "string"
        }
      ],
      "name": "submitSuggestion",
      "outputs": [
        {
          "internalType": "uint256",
          "name": "suggestionID",
          "type": "uint256"
        }
      ],
      "stateMutability": "nonpayable",
      "type": "function"
    },
    {
      "inputs": [
        {
          "internalType": "uint256",
          "name": "proposalID",
          "type": "uint256"
        },
        {
          "internalType": "uint256",
          "name": "suggestionID",
          "type": "uint256"
        }
      ],
      "name": "vote",
      "outputs": [
        {
          "internalType": "uint256",
          "name": "voteID",
          "type": "uint256"
        }
      ],
      "stateMutability": "nonpayable",
      "type": "function"
    },
    {
      "inputs": [
        {
          "internalType": "uint256",
          "name": "proposalID",
          "type": "uint256"
        },
        {
          "internalType": "uint256",
          "name": "newSuggestionID",
          "type": "uint256"
        }
      ],
      "name": "changeVote",
      "outputs": [
        {
          "internalType": "uint256",
          "name": "voteID",
          "type": "uint256"
        }
      ],
      "stateMutability": "nonpayable",
      "type": "function"
    },
    {
      "inputs": [
        {
          "internalType": "uint256",
          "name": "proposalID",
          "type": "uint256"
        }
      ],
      "name": "executeProposal",
      "outputs": [],
      "stateMutability": "nonpayable",
      "type": "function"
    },
    {
      "inputs": [
        {
          "internalType": "address",
          "name": "locker",
          "type": "address"
        },
        {
          "internalType": "uint256",
          "name": "minDate",
          "type": "uint256"
        }
      ],
      "name": "checkLockedTokens",
      "outputs": [
        {
          "internalType": "uint256",
          "name": "",
          "type": "uint256"
        }
      ],
      "stateMutability": "view",
      "type": "function"
    },
    {
      "inputs": [
        {
          "internalType": "uint256",
          "name": "proposalID",
          "type": "uint256"
        }
      ],
      "name": "isExecuted",
      "outputs": [
        {
          "internalType": "bool",
          "name": "",
          "type": "bool"
        }
      ],
      "stateMutability": "view",
      "type": "function"
    },
    {
      "inputs": [
        {
          "internalType": "uint256",
          "name": "proposalID",
          "type": "uint256"
        }
      ],
      "name": "getProposalFinalResult",
      "outputs": [
        {
          "internalType": "uint256",
          "name": "",
          "type": "uint256"
        }
      ],
      "stateMutability": "view",
      "type": "function"
    },
    {
      "inputs": [
        {
          "internalType": "uint256",
          "name": "proposalID",
          "type": "uint256"
        }
      ],
      "name": "getProposalMetadata",
      "outputs": [
        {
          "internalType": "string",
          "name": "",
          "type": "string"
        }
      ],
      "stateMutability": "view",
      "type": "function"
    },
    {
      "inputs": [
        {
          "internalType": "uint256",
          "name": "proposalID",
          "type": "uint256"
        },
        {
          "internalType": "uint256",
          "name": "suggestionID",
          "type": "uint256"
        }
      ],
      "name": "getProposalSuggestionMetadata",
      "outputs": [
        {
          "internalType": "string",
          "name": "",
          "type": "string"
        }
      ],
      "stateMutability": "view",
      "type": "function"
    },
    {
      "inputs": [
        {
          "internalType": "uint256",
          "name": "proposalID",
          "type": "uint256"
        }
      ],
      "name": "numberOfProposalSuggestions",
      "outputs": [
        {
          "internalType": "uint256",
          "name": "",
          "type": "uint256"
        }
      ],
      "stateMutability": "view",
      "type": "function"
    },
    {
      "inputs": [
        {
          "internalType": "uint256",
          "name": "proposalID",
          "type": "uint256"
        },
        {
          "internalType": "uint256",
          "name": "suggestionID",
          "type": "uint256"
        }
      ],
      "name": "getProposalSuggestionVotes",
      "outputs": [
        {
          "internalType": "uint256",
          "name": "",
          "type": "uint256"
        }
      ],
      "stateMutability": "view",
      "type": "function"
    },
    {
      "inputs": [
        {
          "internalType": "uint256",
          "name": "proposalID",
          "type": "uint256"
        },
        {
          "internalType": "uint256",
          "name": "suggestionID",
          "type": "uint256"
        }
      ],
      "name": "getProposalSuggestionVotesQuantity",
      "outputs": [
        {
          "internalType": "uint256",
          "name": "",
          "type": "uint256"
        }
      ],
      "stateMutability": "view",
      "type": "function"
    },
    {
      "inputs": [
        {
          "internalType": "address",
          "name": "account",
          "type": "address"
        },
        {
          "internalType": "uint256",
          "name": "proposalID",
          "type": "uint256"
        },
        {
          "internalType": "uint256",
          "name": "suggestionID",
          "type": "uint256"
        }
      ],
      "name": "hasVotedFor",
      "outputs": [
        {
          "internalType": "bool",
          "name": "",
          "type": "bool"
        }
      ],
      "stateMutability": "view",
      "type": "function"
    }
  ],
  "bytecode": "0x60806040523480156200001157600080fd5b506040516200251a3803806200251a83398181016040528101906200003791906200013b565b836000806101000a81548173ffffffffffffffffffffffffffffffffffffffff021916908373ffffffffffffffffffffffffffffffffffffffff16021790555082600181905550816002819055508060038190555050505050620001ad565b600080fd5b600073ffffffffffffffffffffffffffffffffffffffff82169050919050565b6000620000c8826200009b565b9050919050565b620000da81620000bb565b8114620000e657600080fd5b50565b600081519050620000fa81620000cf565b92915050565b6000819050919050565b620001158162000100565b81146200012157600080fd5b50565b60008151905062000135816200010a565b92915050565b6000806000806080858703121562000158576200015762000096565b5b60006200016887828801620000e9565b94505060206200017b8782880162000124565b93505060406200018e8782880162000124565b9250506060620001a18782880162000124565b91505092959194509250565b61235d80620001bd6000396000f3fe608060405234801561001057600080fd5b506004361061012c5760003560e01c8063a6b39cdd116100ad578063e38908b911610071578063e38908b9146103bd578063eb9b9838146103db578063ee1c3f361461040b578063f0ded2901461043b578063f9f0e8bb1461046b5761012c565b8063a6b39cdd146102df578063a9593b981461030f578063b384abef1461033f578063c0cfb0071461036f578063cf8f9e0c1461038d5761012c565b80636f23b1aa116100f45780636f23b1aa1461020157806376a6bf52146102315780639c699efd14610261578063a1848c9814610291578063a449750e146102c15761012c565b80630a494840146101315780630d61b5191461016757806323fcff23146101835780634621a5f7146101b35780635fa18185146101d1575b600080fd5b61014b600480360381019061014691906116d0565b610489565b60405161015e97969594939291906117c0565b60405180910390f35b610181600480360381019061017c91906116d0565b61056d565b005b61019d60048036038101906101989190611836565b61072d565b6040516101aa9190611876565b60405180910390f35b6101bb610796565b6040516101c89190611876565b60405180910390f35b6101eb60048036038101906101e691906119c6565b61079c565b6040516101f89190611876565b60405180910390f35b61021b60048036038101906102169190611836565b61098d565b6040516102289190611a22565b60405180910390f35b61024b600480360381019061024691906116d0565b610a7e565b6040516102589190611a44565b60405180910390f35b61027b60048036038101906102769190611abd565b610ab9565b6040516102889190611a44565b60405180910390f35b6102ab60048036038101906102a69190611836565b610b51565b6040516102b89190611876565b60405180910390f35b6102c9610bba565b6040516102d69190611876565b60405180910390f35b6102f960048036038101906102f49190611b10565b610bc0565b6040516103069190611876565b60405180910390f35b61032960048036038101906103249190611836565b610d54565b6040516103369190611876565b60405180910390f35b61035960048036038101906103549190611836565b6110ef565b6040516103669190611876565b60405180910390f35b610377611336565b6040516103849190611b8e565b60405180910390f35b6103a760048036038101906103a291906116d0565b61135a565b6040516103b49190611876565b60405180910390f35b6103c56113d0565b6040516103d29190611876565b60405180910390f35b6103f560048036038101906103f091906116d0565b6113d6565b6040516104029190611a22565b60405180910390f35b610425600480360381019061042091906116d0565b61148c565b6040516104329190611876565b60405180910390f35b61045560048036038101906104509190611ba9565b6114ba565b6040516104629190611876565b60405180910390f35b6104736115dd565b6040516104809190611876565b60405180910390f35b60046020528060005260406000206000915090508060000180546104ac90611c18565b80601f01602080910402602001604051908101604052809291908181526020018280546104d890611c18565b80156105255780601f106104fa57610100808354040283529160200191610525565b820191906000526020600020905b81548152906001019060200180831161050857829003601f168201915b5050505050908060010154908060020154908060040154908060060160009054906101000a900460ff16908060060160019054906101000a900460ff16908060070154905087565b600554811061057b57600080fd5b60006004600083815260200190815260200160002090508060060160009054906101000a900460ff161580156105b5575080600101544210155b6105be57600080fd5b60018160060160006101000a81548160ff0219169083151502179055506000808260030160008381526020019081526020016000206004015490506000600190505b83600401548110156106815783600301600082815260200190815260200160002060040154826106309190611c79565b91508360030160008481526020019081526020016000206004015484600301600083815260200190815260200160002060040154111561066e578092505b808061067990611ccf565b915050610600565b5082600201548111156106b95760018360060160016101000a81548160ff0219169083151502179055508183600701819055506106d7565b60008360060160016101000a81548160ff0219169083151502179055505b7fec8f304a675f7bb10c5d3eb44ea2444dd65a0da66105763bd6b5bb98aa1461db848460060160019054906101000a900460ff16856007015460405161071f93929190611d18565b60405180910390a150505050565b60008282600554821061073f57600080fd5b6004600083815260200190815260200160002060040154811061076157600080fd5b600460008681526020019081526020016000206003016000858152602001908152602001600020600301549250505092915050565b60025481565b600060055483106107e2576040517f08c379a00000000000000000000000000000000000000000000000000000000081526004016107d990611d9b565b60405180910390fd5b60006004600085815260200190815260200160002090508060060160009054906101000a900460ff1615801561081c575080600101544211155b61085b576040517f08c379a000000000000000000000000000000000000000000000000000000000815260040161085290611e2d565b60405180910390fd5b60006108783360035484600101546108739190611c79565b6114ba565b116108b8576040517f08c379a00000000000000000000000000000000000000000000000000000000081526004016108af90611e99565b60405180910390fd5b8060040160008154809291906108cd90611ccf565b91905055915060008160030160008481526020019081526020016000209050338160000160006101000a81548173ffffffffffffffffffffffffffffffffffffffff021916908373ffffffffffffffffffffffffffffffffffffffff160217905550838160010190805190602001906109479291906115e3565b507f8df6b99f30e761ca43c468a8a06f7a952076821bb5f8b40ed108d3116216aa0c8584338760405161097d9493929190611eb9565b60405180910390a1505092915050565b60608282600554821061099f57600080fd5b600460008381526020019081526020016000206004015481106109c157600080fd5b60046000868152602001908152602001600020600301600085815260200190815260200160002060010180546109f690611c18565b80601f0160208091040260200160405190810160405280929190818152602001828054610a2290611c18565b8015610a6f5780601f10610a4457610100808354040283529160200191610a6f565b820191906000526020600020905b815481529060010190602001808311610a5257829003601f168201915b50505050509250505092915050565b60006005548210610a8e57600080fd5b6004600083815260200190815260200160002060060160009054906101000a900460ff169050919050565b600082826005548210610acb57600080fd5b60046000838152602001908152602001600020600401548110610aed57600080fd5b836004600087815260200190815260200160002060050160008873ffffffffffffffffffffffffffffffffffffffff1673ffffffffffffffffffffffffffffffffffffffff1681526020019081526020016000206001015414925050509392505050565b600082826005548210610b6357600080fd5b60046000838152602001908152602001600020600401548110610b8557600080fd5b600460008681526020019081526020016000206003016000858152602001908152602001600020600401549250505092915050565b60035481565b6000600254831015610c07576040517f08c379a0000000000000000000000000000000000000000000000000000000008152600401610bfe90611f77565b60405180910390fd5b600154821015610c4c576040517f08c379a0000000000000000000000000000000000000000000000000000000008152600401610c4390611fe3565b60405180910390fd5b60008342610c5a9190611c79565b90506000610c753360035484610c709190611c79565b6114ba565b11610cb5576040517f08c379a0000000000000000000000000000000000000000000000000000000008152600401610cac90611e99565b60405180910390fd5b60056000815480929190610cc890611ccf565b919050559150600060046000848152602001908152602001600020905085816000019080519060200190610cfd9291906115e3565b508181600101819055508381600201819055507f961208aa3e528e7624367220a862d58a9483ed782d8bc03c42f558d85e9c1ec8838784604051610d4393929190612003565b60405180910390a150509392505050565b60006005548310610d6457600080fd5b60006004600085815260200190815260200160002090508060060160009054906101000a900460ff16158015610d9e575080600101544211155b610da757600080fd5b6000610dc4336003548460010154610dbf9190611c79565b6114ba565b905060008111610e09576040517f08c379a0000000000000000000000000000000000000000000000000000000008152600401610e0090611e99565b60405180910390fd5b60008260050160003373ffffffffffffffffffffffffffffffffffffffff1673ffffffffffffffffffffffffffffffffffffffff16815260200190815260200160002090508060000160009054906101000a900460ff16610e6957600080fd5b8481600101541415610e7a57600080fd5b82600401548510610e8a57600080fd5b6000816001015490508582600101819055506000846003016000838152602001908152602001600020905060008560030160008981526020019081526020016000209050600084600201549050600183600301541115610fd357600083600201600060018660030154610efd9190612041565b815260200190815260200160002060009054906101000a900473ffffffffffffffffffffffffffffffffffffffff1690508084600201600084815260200190815260200160002060006101000a81548173ffffffffffffffffffffffffffffffffffffffff021916908373ffffffffffffffffffffffffffffffffffffffff16021790555060008860050160008373ffffffffffffffffffffffffffffffffffffffff1673ffffffffffffffffffffffffffffffffffffffff168152602001908152602001600020905082816002018190555050505b826003016000815480929190610fe890612075565b9190505550858360040160008282546110019190612041565b9250508190555081600301600081548092919061101d90611ccf565b919050558560020181905550338260020160008760020154815260200190815260200160002060006101000a81548173ffffffffffffffffffffffffffffffffffffffff021916908373ffffffffffffffffffffffffffffffffffffffff160217905550858260040160008282546110959190611c79565b925050819055507f52799e0a041002398f2dbc39d845f710f7fed55292c3e6ae29e30a3c751df1f58a858b338a6040516110d395949392919061209f565b60405180910390a1846002015497505050505050505092915050565b600060055483106110ff57600080fd5b60006004600085815260200190815260200160002090508060060160009054906101000a900460ff16158015611139575080600101544211155b61114257600080fd5b600061115f33600354846001015461115a9190611c79565b6114ba565b9050600081116111a4576040517f08c379a000000000000000000000000000000000000000000000000000000000815260040161119b90611e99565b60405180910390fd5b60008260050160003373ffffffffffffffffffffffffffffffffffffffff1673ffffffffffffffffffffffffffffffffffffffff16815260200190815260200160002090508060000160009054906101000a900460ff161561120557600080fd5b8260040154851061121557600080fd5b6000836003016000878152602001908152602001600020905060018260000160006101000a81548160ff02191690831515021790555085826001018190555080600301600081548092919061126990611ccf565b919050558260020181905550338160020160008460020154815260200190815260200160002060006101000a81548173ffffffffffffffffffffffffffffffffffffffff021916908373ffffffffffffffffffffffffffffffffffffffff160217905550828160040160008282546112e19190611c79565b925050819055507f41df84b3b467b06744e40c92613c666324e7c640ce0a41ec06efdf602d3676068787338660405161131d94939291906120f2565b60405180910390a1816002015494505050505092915050565b60008054906101000a900473ffffffffffffffffffffffffffffffffffffffff1681565b6000600554821061136a57600080fd5b61137382610a7e565b6113b2576040517f08c379a00000000000000000000000000000000000000000000000000000000081526004016113a990612183565b60405180910390fd5b60046000838152602001908152602001600020600701549050919050565b60015481565b606060055482106113e657600080fd5b60046000838152602001908152602001600020600001805461140790611c18565b80601f016020809104026020016040519081016040528092919081815260200182805461143390611c18565b80156114805780601f1061145557610100808354040283529160200191611480565b820191906000526020600020905b81548152906001019060200180831161146357829003601f168201915b50505050509050919050565b6000600554821061149c57600080fd5b60046000838152602001908152602001600020600401549050919050565b6000806000905060008060008054906101000a900473ffffffffffffffffffffffffffffffffffffffff1673ffffffffffffffffffffffffffffffffffffffff166354bb83c1876040518263ffffffff1660e01b815260040161151d9190611b8e565b600060405180830381865afa15801561153a573d6000803e3d6000fd5b505050506040513d6000823e3d601f19601f820116820180604052508101906115639190612280565b9150915060005b82518110156115d05785838281518110611587576115866122f8565b5b6020026020010151106115bd578181815181106115a7576115a66122f8565b5b6020026020010151846115ba9190611c79565b93505b80806115c890611ccf565b91505061156a565b5082935050505092915050565b60055481565b8280546115ef90611c18565b90600052602060002090601f0160209004810192826116115760008555611658565b82601f1061162a57805160ff1916838001178555611658565b82800160010185558215611658579182015b8281111561165757825182559160200191906001019061163c565b5b5090506116659190611669565b5090565b5b8082111561168257600081600090555060010161166a565b5090565b6000604051905090565b600080fd5b600080fd5b6000819050919050565b6116ad8161169a565b81146116b857600080fd5b50565b6000813590506116ca816116a4565b92915050565b6000602082840312156116e6576116e5611690565b5b60006116f4848285016116bb565b91505092915050565b600081519050919050565b600082825260208201905092915050565b60005b8381101561173757808201518184015260208101905061171c565b83811115611746576000848401525b50505050565b6000601f19601f8301169050919050565b6000611768826116fd565b6117728185611708565b9350611782818560208601611719565b61178b8161174c565b840191505092915050565b61179f8161169a565b82525050565b60008115159050919050565b6117ba816117a5565b82525050565b600060e08201905081810360008301526117da818a61175d565b90506117e96020830189611796565b6117f66040830188611796565b6118036060830187611796565b61181060808301866117b1565b61181d60a08301856117b1565b61182a60c0830184611796565b98975050505050505050565b6000806040838503121561184d5761184c611690565b5b600061185b858286016116bb565b925050602061186c858286016116bb565b9150509250929050565b600060208201905061188b6000830184611796565b92915050565b600080fd5b600080fd5b7f4e487b7100000000000000000000000000000000000000000000000000000000600052604160045260246000fd5b6118d38261174c565b810181811067ffffffffffffffff821117156118f2576118f161189b565b5b80604052505050565b6000611905611686565b905061191182826118ca565b919050565b600067ffffffffffffffff8211156119315761193061189b565b5b61193a8261174c565b9050602081019050919050565b82818337600083830152505050565b600061196961196484611916565b6118fb565b90508281526020810184848401111561198557611984611896565b5b611990848285611947565b509392505050565b600082601f8301126119ad576119ac611891565b5b81356119bd848260208601611956565b91505092915050565b600080604083850312156119dd576119dc611690565b5b60006119eb858286016116bb565b925050602083013567ffffffffffffffff811115611a0c57611a0b611695565b5b611a1885828601611998565b9150509250929050565b60006020820190508181036000830152611a3c818461175d565b905092915050565b6000602082019050611a5960008301846117b1565b92915050565b600073ffffffffffffffffffffffffffffffffffffffff82169050919050565b6000611a8a82611a5f565b9050919050565b611a9a81611a7f565b8114611aa557600080fd5b50565b600081359050611ab781611a91565b92915050565b600080600060608486031215611ad657611ad5611690565b5b6000611ae486828701611aa8565b9350506020611af5868287016116bb565b9250506040611b06868287016116bb565b9150509250925092565b600080600060608486031215611b2957611b28611690565b5b600084013567ffffffffffffffff811115611b4757611b46611695565b5b611b5386828701611998565b9350506020611b64868287016116bb565b9250506040611b75868287016116bb565b9150509250925092565b611b8881611a7f565b82525050565b6000602082019050611ba36000830184611b7f565b92915050565b60008060408385031215611bc057611bbf611690565b5b6000611bce85828601611aa8565b9250506020611bdf858286016116bb565b9150509250929050565b7f4e487b7100000000000000000000000000000000000000000000000000000000600052602260045260246000fd5b60006002820490506001821680611c3057607f821691505b60208210811415611c4457611c43611be9565b5b50919050565b7f4e487b7100000000000000000000000000000000000000000000000000000000600052601160045260246000fd5b6000611c848261169a565b9150611c8f8361169a565b9250827fffffffffffffffffffffffffffffffffffffffffffffffffffffffffffffffff03821115611cc457611cc3611c4a565b5b828201905092915050565b6000611cda8261169a565b91507fffffffffffffffffffffffffffffffffffffffffffffffffffffffffffffffff821415611d0d57611d0c611c4a565b5b600182019050919050565b6000606082019050611d2d6000830186611796565b611d3a60208301856117b1565b611d476040830184611796565b949350505050565b7f57726f6e6720726f706f73616c20696400000000000000000000000000000000600082015250565b6000611d85601083611708565b9150611d9082611d4f565b602082019050919050565b60006020820190508181036000830152611db481611d78565b9050919050565b7f50726f706f73616c206578656375746564206f7220746f20626520657865637560008201527f7465640000000000000000000000000000000000000000000000000000000000602082015250565b6000611e17602383611708565b9150611e2282611dbb565b604082019050919050565b60006020820190508181036000830152611e4681611e0a565b9050919050565b7f4e6f7420656e6f75676820746f6b656e73206c6f636b65640000000000000000600082015250565b6000611e83601883611708565b9150611e8e82611e4d565b602082019050919050565b60006020820190508181036000830152611eb281611e76565b9050919050565b6000608082019050611ece6000830187611796565b611edb6020830186611796565b611ee86040830185611b7f565b8181036060830152611efa818461175d565b905095945050505050565b7f4c657373207468616e20746865206d696e696d756d206465626174696e67207060008201527f6572696f64000000000000000000000000000000000000000000000000000000602082015250565b6000611f61602583611708565b9150611f6c82611f05565b604082019050919050565b60006020820190508181036000830152611f9081611f54565b9050919050565b7f4c657373207468616e20746865206d696e696d756d2071756f72756d00000000600082015250565b6000611fcd601c83611708565b9150611fd882611f97565b602082019050919050565b60006020820190508181036000830152611ffc81611fc0565b9050919050565b60006060820190506120186000830186611796565b818103602083015261202a818561175d565b90506120396040830184611796565b949350505050565b600061204c8261169a565b91506120578361169a565b92508282101561206a57612069611c4a565b5b828203905092915050565b60006120808261169a565b9150600082141561209457612093611c4a565b5b600182039050919050565b600060a0820190506120b46000830188611796565b6120c16020830187611796565b6120ce6040830186611796565b6120db6060830185611b7f565b6120e86080830184611796565b9695505050505050565b60006080820190506121076000830187611796565b6121146020830186611796565b6121216040830185611b7f565b61212e6060830184611796565b95945050505050565b7f50726f706f73616c206e6f742079657420657865637574656400000000000000600082015250565b600061216d601983611708565b915061217882612137565b602082019050919050565b6000602082019050818103600083015261219c81612160565b9050919050565b600067ffffffffffffffff8211156121be576121bd61189b565b5b602082029050602081019050919050565b600080fd5b6000815190506121e3816116a4565b92915050565b60006121fc6121f7846121a3565b6118fb565b9050808382526020820190506020840283018581111561221f5761221e6121cf565b5b835b81811015612248578061223488826121d4565b845260208401935050602081019050612221565b5050509392505050565b600082601f83011261226757612266611891565b5b81516122778482602086016121e9565b91505092915050565b6000806040838503121561229757612296611690565b5b600083015167ffffffffffffffff8111156122b5576122b4611695565b5b6122c185828601612252565b925050602083015167ffffffffffffffff8111156122e2576122e1611695565b5b6122ee85828601612252565b9150509250929050565b7f4e487b7100000000000000000000000000000000000000000000000000000000600052603260045260246000fdfea26469706673582212208d3ba2922e656310844fea47da9be224a244202b826db9f2f408630b040cbb2164736f6c634300080c0033",
  "immutableReferences": {},
  "source": "// SPDX-License-Identifier: MIT\n\npragma solidity ^0.8.0;\n\nimport \"./TokenTimelockProxy.sol\";\n\n/**\n * @dev DAO Voting contract\n */\ncontract Voting {\n    // The contract used for votes weights\n    address public _tokenTimelocks;\n\n    // The number of votes quantity able to validate a proposal\n    uint256 public _minQuorum;\n\n    // Minimum time before execution\n    uint256 public _minDebatingPeriod;\n\n    // Minimum time difference between a lock time and a debate execution\n    uint256 public _minDifferenceLockPeriod;\n\n    // List of Proposals for Artifact generated by assignee\n    mapping(uint256 => Proposal) public _proposals;\n\n    // Number of Proposals\n    uint256 public _numProposals;\n\n    /**\n     * Structure used to manipulate a proposal\n     */\n    struct Proposal {\n        string metadata;\n        uint256 executionDate;\n        uint256 quorum;\n        mapping(uint256 => Suggestion) suggestions;\n        uint256 numSuggestions;\n        mapping(address => Vote) votes;\n        bool executed;\n        bool proposalPassed;\n        uint256 finalResult;\n    }\n\n    /**\n     * Structure used to manipulate a suggestion\n     */\n    struct Suggestion {\n        address advisor;\n        string metadata;\n        mapping(uint256 => address) votes;\n        uint256 numVotes;\n        uint256 votesQuantity;\n    }\n\n    /**\n     * Structure used to manipulate a vote of a single member\n     */\n    struct Vote {\n        bool voted;\n        uint256 suggestionID;\n        uint256 voteID;\n    }\n\n    /**\n     * Event for a proposal added\n     */\n    event ProposalAdded(\n        uint256 proposalID,\n        string metadata,\n        uint256 executionDate\n    );\n\n    /**\n     * Event for a suggestion added\n     */\n    event SuggestionAdded(\n        uint256 proposalID,\n        uint256 suggestionID,\n        address advisor,\n        string metadata\n    );\n\n    /**\n     * Event for a vote\n     */\n    event Voted(\n        uint256 proposalID,\n        uint256 suggestionID,\n        address voter,\n        uint256 voteWeight\n    );\n\n    /**\n     * Event for a vote changed\n     */\n    event VoteChanged(\n        uint256 proposalID,\n        uint256 oldSuggestionID,\n        uint256 newSuggestionID,\n        address voter,\n        uint256 voteWeight\n    );\n\n    /**\n     * Event for an execution\n     */\n    event ProposalExecuted(\n        uint256 proposalID,\n        bool proposalPassed,\n        uint256 finalResult\n    );\n\n    /**\n     * @dev Modifier to allow only operating with existing suggestion\n     */\n    modifier suggestionExists(uint256 proposalID, uint256 suggestionID) {\n        require(proposalID < _numProposals);\n        require(suggestionID < _proposals[proposalID].numSuggestions);\n        _;\n    }\n\n    /**\n     * @param tokenTimelockProxy Address of the token timelock proxy used for weight\n     * @param minimumQuorumForProposals Number used to validate a vote in the execution\n     * @param minTimeForDebate minimum time required before execution\n     */\n    constructor(\n        address tokenTimelockProxy,\n        uint256 minimumQuorumForProposals,\n        uint256 minTimeForDebate,\n        uint256 minDifferenceLockPeriod_\n    ) {\n        _tokenTimelocks = tokenTimelockProxy;\n        _minQuorum = minimumQuorumForProposals;\n        _minDebatingPeriod = minTimeForDebate;\n        _minDifferenceLockPeriod = minDifferenceLockPeriod_;\n    }\n\n    /**\n     * @dev Add Proposal\n     */\n    function submitProposal(\n        string memory metadata,\n        uint256 debatingPeriod,\n        uint256 quorum\n    ) public returns (uint256 proposalID) {\n        require(\n            debatingPeriod >= _minDebatingPeriod,\n            \"Less than the minimum debating period\"\n        );\n        require(quorum >= _minQuorum, \"Less than the minimum quorum\");\n        uint256 executionDate = block.timestamp + debatingPeriod;\n        require(\n            checkLockedTokens(\n                msg.sender,\n                executionDate + _minDifferenceLockPeriod\n            ) > 0,\n            \"Not enough tokens locked\"\n        );\n\n        proposalID = _numProposals++;\n        Proposal storage p = _proposals[proposalID];\n        p.metadata = metadata;\n        p.executionDate = executionDate;\n        p.quorum = quorum;\n\n        emit ProposalAdded(proposalID, metadata, executionDate);\n\n        return proposalID;\n    }\n\n    /**\n     * @dev Add Suggestion\n     */\n    function submitSuggestion(uint256 proposalID, string memory metadata)\n        public\n        returns (uint256 suggestionID)\n    {\n        require(proposalID < _numProposals, \"Wrong roposal id\");\n        Proposal storage p = _proposals[proposalID];\n        require(\n            !p.executed && block.timestamp <= p.executionDate,\n            \"Proposal executed or to be executed\"\n        );\n        require(\n            checkLockedTokens(\n                msg.sender,\n                p.executionDate + _minDifferenceLockPeriod\n            ) > 0,\n            \"Not enough tokens locked\"\n        );\n\n        suggestionID = p.numSuggestions++;\n        Suggestion storage s = p.suggestions[suggestionID];\n        s.advisor = msg.sender;\n        s.metadata = metadata;\n\n        emit SuggestionAdded(proposalID, suggestionID, msg.sender, metadata);\n\n        return suggestionID;\n    }\n\n    /**\n     * @dev Log a vote for a proposal\n     */\n    function vote(uint256 proposalID, uint256 suggestionID)\n        public\n        returns (uint256 voteID)\n    {\n        require(proposalID < _numProposals);\n        Proposal storage p = _proposals[proposalID];\n        require(!p.executed && block.timestamp <= p.executionDate);\n        uint256 voteWeigth =\n            checkLockedTokens(\n                msg.sender,\n                p.executionDate + _minDifferenceLockPeriod\n            );\n        require(voteWeigth > 0, \"Not enough tokens locked\");\n        Vote storage v = p.votes[msg.sender];\n        require(!v.voted);\n        require(suggestionID < p.numSuggestions);\n\n        Suggestion storage s = p.suggestions[suggestionID];\n        v.voted = true;\n        v.suggestionID = suggestionID;\n        v.voteID = s.numVotes++;\n        s.votes[v.voteID] = msg.sender;\n        s.votesQuantity += voteWeigth;\n\n        emit Voted(proposalID, suggestionID, msg.sender, voteWeigth);\n\n        return v.voteID;\n    }\n\n    /**\n     * @dev Change vote for a proposal\n     */\n    function changeVote(uint256 proposalID, uint256 newSuggestionID)\n        public\n        returns (uint256 voteID)\n    {\n        require(proposalID < _numProposals);\n        Proposal storage p = _proposals[proposalID];\n        require(!p.executed && block.timestamp <= p.executionDate);\n        uint256 voteWeigth =\n            checkLockedTokens(\n                msg.sender,\n                p.executionDate + _minDifferenceLockPeriod\n            );\n        require(voteWeigth > 0, \"Not enough tokens locked\");\n        Vote storage v = p.votes[msg.sender];\n        require(v.voted);\n        require(v.suggestionID != newSuggestionID);\n        require(newSuggestionID < p.numSuggestions);\n\n        uint256 oldSuggestionID = v.suggestionID;\n        v.suggestionID = newSuggestionID;\n        Suggestion storage oldSuggestion = p.suggestions[oldSuggestionID];\n        Suggestion storage newSuggestion = p.suggestions[newSuggestionID];\n\n        uint256 index = v.voteID;\n        if (oldSuggestion.numVotes > 1) {\n            address last = oldSuggestion.votes[oldSuggestion.numVotes - 1];\n            oldSuggestion.votes[index] = last;\n            Vote storage vLast = p.votes[last];\n            vLast.voteID = index;\n        }\n        oldSuggestion.numVotes--;\n        oldSuggestion.votesQuantity -= voteWeigth;\n\n        v.voteID = newSuggestion.numVotes++;\n        newSuggestion.votes[v.voteID] = msg.sender;\n        newSuggestion.votesQuantity += voteWeigth;\n\n        emit VoteChanged(\n            proposalID,\n            oldSuggestionID,\n            newSuggestionID,\n            msg.sender,\n            voteWeigth\n        );\n\n        return v.voteID;\n    }\n\n    /**\n     * @dev Finish vote, count the votes proposal and execute\n     */\n    function executeProposal(uint256 proposalID) public {\n        require(proposalID < _numProposals);\n        Proposal storage p = _proposals[proposalID];\n        require(!p.executed && block.timestamp >= p.executionDate);\n\n        p.executed = true;\n        uint256 tmpMax = 0;\n        uint256 tmpTotal = p.suggestions[tmpMax].votesQuantity;\n        for (uint256 i = 1; i < p.numSuggestions; i++) {\n            tmpTotal += p.suggestions[i].votesQuantity;\n            if (\n                p.suggestions[i].votesQuantity >\n                p.suggestions[tmpMax].votesQuantity\n            ) {\n                tmpMax = i;\n            }\n        }\n\n        if (tmpTotal > p.quorum) {\n            p.proposalPassed = true;\n            p.finalResult = tmpMax;\n        } else {\n            p.proposalPassed = false;\n        }\n\n        emit ProposalExecuted(proposalID, p.proposalPassed, p.finalResult);\n    }\n\n    function checkLockedTokens(address locker, uint256 minDate)\n        public\n        view\n        returns (uint256)\n    {\n        uint256 lockedTokens = 0;\n        (uint256[] memory releaseTimes, uint256[] memory balances) =\n            TokenTimelockProxy(_tokenTimelocks)\n                .checkLockerReleaseTimesAndBalances(locker);\n        for (uint256 i = 0; i < releaseTimes.length; i++) {\n            if (releaseTimes[i] >= minDate) {\n                lockedTokens += balances[i];\n            }\n        }\n        return lockedTokens;\n    }\n\n    /**\n     * @return true if a proposal is executed\n     */\n    function isExecuted(uint256 proposalID) public view returns (bool) {\n        require(proposalID < _numProposals);\n        return _proposals[proposalID].executed;\n    }\n\n    /**\n     * @return Get proposal final result\n     */\n    function getProposalFinalResult(uint256 proposalID)\n        public\n        view\n        returns (uint256)\n    {\n        require(proposalID < _numProposals);\n        require(isExecuted(proposalID), \"Proposal not yet executed\");\n\n        return _proposals[proposalID].finalResult;\n    }\n\n    /**\n     * @return Proposal metadata\n     */\n    function getProposalMetadata(uint256 proposalID)\n        public\n        view\n        returns (string memory)\n    {\n        require(proposalID < _numProposals);\n\n        return _proposals[proposalID].metadata;\n    }\n\n    /**\n     * @return Proposal suggestion metadata\n     */\n    function getProposalSuggestionMetadata(\n        uint256 proposalID,\n        uint256 suggestionID\n    )\n        public\n        view\n        suggestionExists(proposalID, suggestionID)\n        returns (string memory)\n    {\n        return _proposals[proposalID].suggestions[suggestionID].metadata;\n    }\n\n    /**\n     * @return Number of proposals suggestions\n     */\n    function numberOfProposalSuggestions(uint256 proposalID)\n        public\n        view\n        returns (uint256)\n    {\n        require(proposalID < _numProposals);\n        return _proposals[proposalID].numSuggestions;\n    }\n\n    /**\n     * @return Number of votes of proposal suggestion\n     */\n    function getProposalSuggestionVotes(\n        uint256 proposalID,\n        uint256 suggestionID\n    ) public view suggestionExists(proposalID, suggestionID) returns (uint256) {\n        return _proposals[proposalID].suggestions[suggestionID].numVotes;\n    }\n\n    /**\n     * @return Quantity of votes of proposal suggestion\n     */\n    function getProposalSuggestionVotesQuantity(\n        uint256 proposalID,\n        uint256 suggestionID\n    ) public view suggestionExists(proposalID, suggestionID) returns (uint256) {\n        return _proposals[proposalID].suggestions[suggestionID].votesQuantity;\n    }\n\n    /**\n     * @return true if account voted for suggestionID in proposalID\n     */\n    function hasVotedFor(\n        address account,\n        uint256 proposalID,\n        uint256 suggestionID\n    ) public view suggestionExists(proposalID, suggestionID) returns (bool) {\n        return\n            _proposals[proposalID].votes[account].suggestionID == suggestionID;\n    }\n}\n",
  "sourcePath": "/home/miker/workspace/decentralized-auth/k-dao/contracts/Voting.sol",
  "compiler": {
    "name": "solc",
    "version": "0.8.12+commit.f00d7308.Emscripten.clang"
  },
  "schemaVersion": "3.4.5",
  "updatedAt": "2022-04-30T06:20:12.887Z",
  "devdoc": {
    "details": "DAO Voting contract",
    "kind": "dev",
    "methods": {
      "changeVote(uint256,uint256)": {
        "details": "Change vote for a proposal"
      },
      "constructor": {
        "params": {
          "minTimeForDebate": "minimum time required before execution",
          "minimumQuorumForProposals": "Number used to validate a vote in the execution",
          "tokenTimelockProxy": "Address of the token timelock proxy used for weight"
        }
      },
      "executeProposal(uint256)": {
        "details": "Finish vote, count the votes proposal and execute"
      },
      "getProposalFinalResult(uint256)": {
        "returns": {
          "_0": "Get proposal final result"
        }
      },
      "getProposalMetadata(uint256)": {
        "returns": {
          "_0": "Proposal metadata"
        }
      },
      "getProposalSuggestionMetadata(uint256,uint256)": {
        "returns": {
          "_0": "Proposal suggestion metadata"
        }
      },
      "getProposalSuggestionVotes(uint256,uint256)": {
        "returns": {
          "_0": "Number of votes of proposal suggestion"
        }
      },
      "getProposalSuggestionVotesQuantity(uint256,uint256)": {
        "returns": {
          "_0": "Quantity of votes of proposal suggestion"
        }
      },
      "hasVotedFor(address,uint256,uint256)": {
        "returns": {
          "_0": "true if account voted for suggestionID in proposalID"
        }
      },
      "isExecuted(uint256)": {
        "returns": {
          "_0": "true if a proposal is executed"
        }
      },
      "numberOfProposalSuggestions(uint256)": {
        "returns": {
          "_0": "Number of proposals suggestions"
        }
      },
      "submitProposal(string,uint256,uint256)": {
        "details": "Add Proposal"
      },
      "submitSuggestion(uint256,string)": {
        "details": "Add Suggestion"
      },
      "vote(uint256,uint256)": {
        "details": "Log a vote for a proposal"
      }
    },
    "version": 1
  },
  "userdoc": {
    "events": {
      "ProposalAdded(uint256,string,uint256)": {
        "notice": "Event for a proposal added"
      },
      "ProposalExecuted(uint256,bool,uint256)": {
        "notice": "Event for an execution"
      },
      "SuggestionAdded(uint256,uint256,address,string)": {
        "notice": "Event for a suggestion added"
      },
      "VoteChanged(uint256,uint256,uint256,address,uint256)": {
        "notice": "Event for a vote changed"
      },
      "Voted(uint256,uint256,address,uint256)": {
        "notice": "Event for a vote"
      }
    },
    "kind": "user",
    "methods": {},
    "version": 1
  }
}